{
  "_format": "hh-sol-artifact-1",
  "contractName": "ChainRegistry",
  "sourceName": "contracts/ChainRegistry.sol",
  "abi": [
    {
      "inputs": [],
      "stateMutability": "nonpayable",
      "type": "constructor"
    },
    {
      "inputs": [
        {
          "internalType": "address",
          "name": "owner",
          "type": "address"
        }
      ],
      "name": "OwnableInvalidOwner",
      "type": "error"
    },
    {
      "inputs": [
        {
          "internalType": "address",
          "name": "account",
          "type": "address"
        }
      ],
      "name": "OwnableUnauthorizedAccount",
      "type": "error"
    },
    {
      "inputs": [],
      "name": "UnregisteredChain",
      "type": "error"
    },
    {
      "anonymous": false,
      "inputs": [
        {
          "indexed": true,
          "internalType": "uint256",
          "name": "chainId",
          "type": "uint256"
        },
        {
          "indexed": true,
          "internalType": "address",
          "name": "billingAdapter",
          "type": "address"
        }
      ],
      "name": "ChainRegistered",
      "type": "event"
    },
    {
      "anonymous": false,
      "inputs": [
        {
          "indexed": true,
          "internalType": "uint256",
          "name": "chainId",
          "type": "uint256"
        },
        {
          "indexed": false,
          "internalType": "bool",
          "name": "active",
          "type": "bool"
        }
      ],
      "name": "ChainStatusUpdated",
      "type": "event"
    },
    {
      "anonymous": false,
      "inputs": [
        {
          "indexed": true,
          "internalType": "address",
          "name": "previousOwner",
          "type": "address"
        },
        {
          "indexed": true,
          "internalType": "address",
          "name": "newOwner",
          "type": "address"
        }
      ],
      "name": "OwnershipTransferred",
      "type": "event"
    },
    {
      "anonymous": false,
      "inputs": [
        {
          "indexed": true,
          "internalType": "uint256",
          "name": "chainId",
          "type": "uint256"
        },
        {
          "indexed": true,
          "internalType": "address",
          "name": "token",
          "type": "address"
        },
        {
          "indexed": false,
          "internalType": "bool",
          "name": "supported",
          "type": "bool"
        }
      ],
      "name": "TokenSupportUpdated",
      "type": "event"
    },
    {
      "inputs": [
        {
          "internalType": "uint256",
          "name": "_cid",
          "type": "uint256"
        }
      ],
      "name": "getBillingAdapter",
      "outputs": [
        {
          "internalType": "address",
          "name": "",
          "type": "address"
        }
      ],
      "stateMutability": "view",
      "type": "function"
    },
    {
      "inputs": [
        {
          "internalType": "uint256",
          "name": "_cid",
          "type": "uint256"
        }
      ],
      "name": "isChainSupported",
      "outputs": [
        {
          "internalType": "bool",
          "name": "",
          "type": "bool"
        }
      ],
      "stateMutability": "view",
      "type": "function"
    },
    {
      "inputs": [
        {
          "internalType": "uint256",
          "name": "_cid",
          "type": "uint256"
        },
        {
          "internalType": "address",
          "name": "_token",
          "type": "address"
        }
      ],
      "name": "isTokenSupported",
      "outputs": [
        {
          "internalType": "bool",
          "name": "",
          "type": "bool"
        }
      ],
      "stateMutability": "view",
      "type": "function"
    },
    {
      "inputs": [
        {
          "internalType": "uint256",
          "name": "_cid",
          "type": "uint256"
        },
        {
          "internalType": "address",
          "name": "_adapter",
          "type": "address"
        }
      ],
      "name": "isValidAdapter",
      "outputs": [
        {
          "internalType": "bool",
          "name": "",
          "type": "bool"
        }
      ],
      "stateMutability": "view",
      "type": "function"
    },
    {
      "inputs": [],
      "name": "owner",
      "outputs": [
        {
          "internalType": "address",
          "name": "",
          "type": "address"
        }
      ],
      "stateMutability": "view",
      "type": "function"
    },
    {
      "inputs": [
        {
          "internalType": "uint256",
          "name": "_cid",
          "type": "uint256"
        },
        {
          "internalType": "address",
          "name": "_adapter",
          "type": "address"
        }
      ],
      "name": "registerChain",
      "outputs": [],
      "stateMutability": "nonpayable",
      "type": "function"
    },
    {
      "inputs": [],
      "name": "renounceOwnership",
      "outputs": [],
      "stateMutability": "nonpayable",
      "type": "function"
    },
    {
      "inputs": [
        {
          "internalType": "uint256",
          "name": "_cid",
          "type": "uint256"
        },
        {
          "internalType": "bool",
          "name": "_active",
          "type": "bool"
        }
      ],
      "name": "setChainStatus",
      "outputs": [],
      "stateMutability": "nonpayable",
      "type": "function"
    },
    {
      "inputs": [
        {
          "internalType": "uint256",
          "name": "_cid",
          "type": "uint256"
        },
        {
          "internalType": "address",
          "name": "_token",
          "type": "address"
        },
        {
          "internalType": "bool",
          "name": "_support",
          "type": "bool"
        }
      ],
      "name": "setTokenSupport",
      "outputs": [],
      "stateMutability": "nonpayable",
      "type": "function"
    },
    {
      "inputs": [
        {
          "internalType": "address",
          "name": "newOwner",
          "type": "address"
        }
      ],
      "name": "transferOwnership",
      "outputs": [],
      "stateMutability": "nonpayable",
      "type": "function"
    },
    {
      "inputs": [
        {
          "internalType": "address",
          "name": "_newController",
          "type": "address"
        }
      ],
      "name": "updateController",
      "outputs": [],
      "stateMutability": "nonpayable",
      "type": "function"
    }
  ],
  "bytecode": "0x608060405234801561001057600080fd5b5033600073ffffffffffffffffffffffffffffffffffffffff168173ffffffffffffffffffffffffffffffffffffffff16036100845760006040517f1e4fbdf700000000000000000000000000000000000000000000000000000000815260040161007b919061019e565b60405180910390fd5b6100938161009960201b60201c565b506101b9565b60008060009054906101000a900473ffffffffffffffffffffffffffffffffffffffff169050816000806101000a81548173ffffffffffffffffffffffffffffffffffffffff021916908373ffffffffffffffffffffffffffffffffffffffff1602179055508173ffffffffffffffffffffffffffffffffffffffff168173ffffffffffffffffffffffffffffffffffffffff167f8be0079c531659141344cd1fd0a4f28419497f9722a3daafe3b4186f6b6457e060405160405180910390a35050565b600073ffffffffffffffffffffffffffffffffffffffff82169050919050565b60006101888261015d565b9050919050565b6101988161017d565b82525050565b60006020820190506101b3600083018461018f565b92915050565b611013806101c86000396000f3fe608060405234801561001057600080fd5b50600436106100a95760003560e01c80637a9a0025116100715780637a9a0025146101645780637e25b5f81461018057806382ef7cf51461019c5780638da5cb5b146101cc578063f2fde38b146101ea578063fc46b8b014610206576100a9565b806306cb5b66146100ae57806320ef882c146100ca5780635221c1f0146100fa578063715018a61461012a57806375979f7914610134575b600080fd5b6100c860048036038101906100c39190610c4f565b610222565b005b6100e460048036038101906100df9190610cb2565b61026e565b6040516100f19190610d0d565b60405180910390f35b610114600480360381019061010f9190610d28565b610309565b6040516101219190610d0d565b60405180910390f35b6101326103e7565b005b61014e60048036038101906101499190610cb2565b6103fb565b60405161015b9190610d0d565b60405180910390f35b61017e60048036038101906101799190610d81565b610414565b005b61019a60048036038101906101959190610cb2565b610694565b005b6101b660048036038101906101b19190610d28565b610834565b6040516101c39190610de3565b60405180910390f35b6101d4610874565b6040516101e19190610de3565b60405180910390f35b61020460048036038101906101ff9190610c4f565b61089d565b005b610220600480360381019061021b9190610dfe565b610923565b005b61022a610a31565b80600360006101000a81548173ffffffffffffffffffffffffffffffffffffffff021916908373ffffffffffffffffffffffffffffffffffffffff16021790555050565b60008173ffffffffffffffffffffffffffffffffffffffff166001600085815260200190815260200160002060000160009054906101000a900473ffffffffffffffffffffffffffffffffffffffff1673ffffffffffffffffffffffffffffffffffffffff1614801561030157506001600084815260200190815260200160002060000160149054906101000a900460ff165b905092915050565b600080600160008481526020019081526020016000206040518060400160405290816000820160009054906101000a900473ffffffffffffffffffffffffffffffffffffffff1673ffffffffffffffffffffffffffffffffffffffff1673ffffffffffffffffffffffffffffffffffffffff1681526020016000820160149054906101000a900460ff1615151515815250509050600073ffffffffffffffffffffffffffffffffffffffff16816000015173ffffffffffffffffffffffffffffffffffffffff16141580156103df575080602001515b915050919050565b6103ef610a31565b6103f96000610ab8565b565b6000806104088484610b7c565b90508091505092915050565b61041c610a31565b600073ffffffffffffffffffffffffffffffffffffffff166001600085815260200190815260200160002060000160009054906101000a900473ffffffffffffffffffffffffffffffffffffffff1673ffffffffffffffffffffffffffffffffffffffff1614806104ae57506001600084815260200190815260200160002060000160149054906101000a900460ff16155b156104e5576040517fa3e4cb5700000000000000000000000000000000000000000000000000000000815260040160405180910390fd5b806002600085815260200190815260200160002060008473ffffffffffffffffffffffffffffffffffffffff1673ffffffffffffffffffffffffffffffffffffffff16815260200190815260200160002060006101000a81548160ff0219169083151502179055508173ffffffffffffffffffffffffffffffffffffffff16837f2cd0e2d9f28ea02c722dd6cf4d460b6c53daa27d12f26415f19c752e0b177905836040516105949190610d0d565b60405180910390a360008383836040516020016105b393929190610e4d565b6040516020818303038152906040529050600360009054906101000a900473ffffffffffffffffffffffffffffffffffffffff1673ffffffffffffffffffffffffffffffffffffffff16633a358484856001600088815260200190815260200160002060000160009054906101000a900473ffffffffffffffffffffffffffffffffffffffff166000856040518563ffffffff1660e01b815260040161065c9493929190610f14565b600060405180830381600087803b15801561067657600080fd5b505af115801561068a573d6000803e3d6000fd5b5050505050505050565b61069c610a31565b600073ffffffffffffffffffffffffffffffffffffffff166001600084815260200190815260200160002060000160009054906101000a900473ffffffffffffffffffffffffffffffffffffffff1673ffffffffffffffffffffffffffffffffffffffff1614610741576040517f08c379a000000000000000000000000000000000000000000000000000000000815260040161073890610fbd565b60405180910390fd5b60405180604001604052808273ffffffffffffffffffffffffffffffffffffffff168152602001600015158152506001600084815260200190815260200160002060008201518160000160006101000a81548173ffffffffffffffffffffffffffffffffffffffff021916908373ffffffffffffffffffffffffffffffffffffffff16021790555060208201518160000160146101000a81548160ff0219169083151502179055509050508073ffffffffffffffffffffffffffffffffffffffff16827f7f74812a5c28f04eea9007878d0e63eb304afe494a442babbe1b2875fbc1cfd660405160405180910390a35050565b60006001600083815260200190815260200160002060000160009054906101000a900473ffffffffffffffffffffffffffffffffffffffff169050919050565b60008060009054906101000a900473ffffffffffffffffffffffffffffffffffffffff16905090565b6108a5610a31565b600073ffffffffffffffffffffffffffffffffffffffff168173ffffffffffffffffffffffffffffffffffffffff16036109175760006040517f1e4fbdf700000000000000000000000000000000000000000000000000000000815260040161090e9190610de3565b60405180910390fd5b61092081610ab8565b50565b61092b610a31565b600073ffffffffffffffffffffffffffffffffffffffff166001600084815260200190815260200160002060000160009054906101000a900473ffffffffffffffffffffffffffffffffffffffff1673ffffffffffffffffffffffffffffffffffffffff16036109c7576040517fa3e4cb5700000000000000000000000000000000000000000000000000000000815260040160405180910390fd5b806001600084815260200190815260200160002060000160146101000a81548160ff021916908315150217905550817f27ac1f8582df24c5a440380c6f532a5e3c80caf348beb3f6484f310f2c6bbd0b82604051610a259190610d0d565b60405180910390a25050565b610a39610be4565b73ffffffffffffffffffffffffffffffffffffffff16610a57610874565b73ffffffffffffffffffffffffffffffffffffffff1614610ab657610a7a610be4565b6040517f118cdaa7000000000000000000000000000000000000000000000000000000008152600401610aad9190610de3565b60405180910390fd5b565b60008060009054906101000a900473ffffffffffffffffffffffffffffffffffffffff169050816000806101000a81548173ffffffffffffffffffffffffffffffffffffffff021916908373ffffffffffffffffffffffffffffffffffffffff1602179055508173ffffffffffffffffffffffffffffffffffffffff168173ffffffffffffffffffffffffffffffffffffffff167f8be0079c531659141344cd1fd0a4f28419497f9722a3daafe3b4186f6b6457e060405160405180910390a35050565b60006002600084815260200190815260200160002060008373ffffffffffffffffffffffffffffffffffffffff1673ffffffffffffffffffffffffffffffffffffffff16815260200190815260200160002060009054906101000a900460ff16905092915050565b600033905090565b600080fd5b600073ffffffffffffffffffffffffffffffffffffffff82169050919050565b6000610c1c82610bf1565b9050919050565b610c2c81610c11565b8114610c3757600080fd5b50565b600081359050610c4981610c23565b92915050565b600060208284031215610c6557610c64610bec565b5b6000610c7384828501610c3a565b91505092915050565b6000819050919050565b610c8f81610c7c565b8114610c9a57600080fd5b50565b600081359050610cac81610c86565b92915050565b60008060408385031215610cc957610cc8610bec565b5b6000610cd785828601610c9d565b9250506020610ce885828601610c3a565b9150509250929050565b60008115159050919050565b610d0781610cf2565b82525050565b6000602082019050610d226000830184610cfe565b92915050565b600060208284031215610d3e57610d3d610bec565b5b6000610d4c84828501610c9d565b91505092915050565b610d5e81610cf2565b8114610d6957600080fd5b50565b600081359050610d7b81610d55565b92915050565b600080600060608486031215610d9a57610d99610bec565b5b6000610da886828701610c9d565b9350506020610db986828701610c3a565b9250506040610dca86828701610d6c565b9150509250925092565b610ddd81610c11565b82525050565b6000602082019050610df86000830184610dd4565b92915050565b60008060408385031215610e1557610e14610bec565b5b6000610e2385828601610c9d565b9250506020610e3485828601610d6c565b9150509250929050565b610e4781610c7c565b82525050565b6000606082019050610e626000830186610e3e565b610e6f6020830185610dd4565b610e7c6040830184610cfe565b949350505050565b600081519050919050565b600082825260208201905092915050565b60005b83811015610ebe578082015181840152602081019050610ea3565b60008484015250505050565b6000601f19601f8301169050919050565b6000610ee682610e84565b610ef08185610e8f565b9350610f00818560208601610ea0565b610f0981610eca565b840191505092915050565b6000608082019050610f296000830187610e3e565b610f366020830186610dd4565b610f436040830185610cfe565b8181036060830152610f558184610edb565b905095945050505050565b600082825260208201905092915050565b7f434841494e5f4558495354530000000000000000000000000000000000000000600082015250565b6000610fa7600c83610f60565b9150610fb282610f71565b602082019050919050565b60006020820190508181036000830152610fd681610f9a565b905091905056fea2646970667358221220d1fda7d2b7e722b5493d6c1968150e2aa8374b1730b7957e67c633b7159aa02164736f6c634300081c0033",
  "linkReferences": {},
  "deployedLinkReferences": {}
}