{
  "_format": "hh-sol-artifact-1",
  "contractName": "ChainRegistry",
  "sourceName": "contracts/ChainRegistry.sol",
  "abi": [
    {
      "inputs": [
        {
          "internalType": "address",
          "name": "_controller",
          "type": "address"
        }
      ],
      "stateMutability": "nonpayable",
      "type": "constructor"
    },
    {
      "inputs": [
        {
          "internalType": "address",
          "name": "owner",
          "type": "address"
        }
      ],
      "name": "OwnableInvalidOwner",
      "type": "error"
    },
    {
      "inputs": [
        {
          "internalType": "address",
          "name": "account",
          "type": "address"
        }
      ],
      "name": "OwnableUnauthorizedAccount",
      "type": "error"
    },
    {
      "inputs": [],
      "name": "UnregisteredChain",
      "type": "error"
    },
    {
      "anonymous": false,
      "inputs": [
        {
          "indexed": true,
          "internalType": "uint256",
          "name": "chainId",
          "type": "uint256"
        },
        {
          "indexed": true,
          "internalType": "address",
          "name": "billingAdapter",
          "type": "address"
        }
      ],
      "name": "ChainRegistered",
      "type": "event"
    },
    {
      "anonymous": false,
      "inputs": [
        {
          "indexed": true,
          "internalType": "uint256",
          "name": "chainId",
          "type": "uint256"
        },
        {
          "indexed": false,
          "internalType": "bool",
          "name": "active",
          "type": "bool"
        }
      ],
      "name": "ChainStatusUpdated",
      "type": "event"
    },
    {
      "anonymous": false,
      "inputs": [
        {
          "indexed": true,
          "internalType": "address",
          "name": "previousOwner",
          "type": "address"
        },
        {
          "indexed": true,
          "internalType": "address",
          "name": "newOwner",
          "type": "address"
        }
      ],
      "name": "OwnershipTransferred",
      "type": "event"
    },
    {
      "anonymous": false,
      "inputs": [
        {
          "indexed": true,
          "internalType": "uint256",
          "name": "chainId",
          "type": "uint256"
        },
        {
          "indexed": true,
          "internalType": "address",
          "name": "token",
          "type": "address"
        },
        {
          "indexed": false,
          "internalType": "bool",
          "name": "supported",
          "type": "bool"
        }
      ],
      "name": "TokenSupportUpdated",
      "type": "event"
    },
    {
      "inputs": [
        {
          "internalType": "uint256",
          "name": "_cid",
          "type": "uint256"
        }
      ],
      "name": "getBillingAdapter",
      "outputs": [
        {
          "internalType": "address",
          "name": "",
          "type": "address"
        }
      ],
      "stateMutability": "view",
      "type": "function"
    },
    {
      "inputs": [
        {
          "internalType": "uint256",
          "name": "_cid",
          "type": "uint256"
        }
      ],
      "name": "isChainSupported",
      "outputs": [
        {
          "internalType": "bool",
          "name": "",
          "type": "bool"
        }
      ],
      "stateMutability": "view",
      "type": "function"
    },
    {
      "inputs": [
        {
          "internalType": "uint256",
          "name": "_cid",
          "type": "uint256"
        },
        {
          "internalType": "address",
          "name": "_token",
          "type": "address"
        }
      ],
      "name": "isTokenSupported",
      "outputs": [
        {
          "internalType": "bool",
          "name": "",
          "type": "bool"
        }
      ],
      "stateMutability": "view",
      "type": "function"
    },
    {
      "inputs": [
        {
          "internalType": "uint256",
          "name": "_cid",
          "type": "uint256"
        },
        {
          "internalType": "address",
          "name": "_adapter",
          "type": "address"
        }
      ],
      "name": "isValidAdapter",
      "outputs": [
        {
          "internalType": "bool",
          "name": "",
          "type": "bool"
        }
      ],
      "stateMutability": "view",
      "type": "function"
    },
    {
      "inputs": [],
      "name": "owner",
      "outputs": [
        {
          "internalType": "address",
          "name": "",
          "type": "address"
        }
      ],
      "stateMutability": "view",
      "type": "function"
    },
    {
      "inputs": [
        {
          "internalType": "uint256",
          "name": "_cid",
          "type": "uint256"
        },
        {
          "internalType": "address",
          "name": "_adapter",
          "type": "address"
        }
      ],
      "name": "registerChain",
      "outputs": [],
      "stateMutability": "nonpayable",
      "type": "function"
    },
    {
      "inputs": [],
      "name": "renounceOwnership",
      "outputs": [],
      "stateMutability": "nonpayable",
      "type": "function"
    },
    {
      "inputs": [
        {
          "internalType": "uint256",
          "name": "_cid",
          "type": "uint256"
        },
        {
          "internalType": "bool",
          "name": "_active",
          "type": "bool"
        }
      ],
      "name": "setChainStatus",
      "outputs": [],
      "stateMutability": "nonpayable",
      "type": "function"
    },
    {
      "inputs": [
        {
          "internalType": "uint256",
          "name": "_cid",
          "type": "uint256"
        },
        {
          "internalType": "address",
          "name": "_token",
          "type": "address"
        },
        {
          "internalType": "bool",
          "name": "_support",
          "type": "bool"
        }
      ],
      "name": "setTokenSupport",
      "outputs": [],
      "stateMutability": "nonpayable",
      "type": "function"
    },
    {
      "inputs": [
        {
          "internalType": "address",
          "name": "newOwner",
          "type": "address"
        }
      ],
      "name": "transferOwnership",
      "outputs": [],
      "stateMutability": "nonpayable",
      "type": "function"
    },
    {
      "inputs": [
        {
          "internalType": "address",
          "name": "_newController",
          "type": "address"
        }
      ],
      "name": "updateController",
      "outputs": [],
      "stateMutability": "nonpayable",
      "type": "function"
    }
  ],
  "bytecode": "0x608060405234801561001057600080fd5b5060405161129d38038061129d83398181016040528101906100329190610223565b33600073ffffffffffffffffffffffffffffffffffffffff168173ffffffffffffffffffffffffffffffffffffffff16036100a55760006040517f1e4fbdf700000000000000000000000000000000000000000000000000000000815260040161009c919061025f565b60405180910390fd5b6100b4816100fc60201b60201c565b5080600360006101000a81548173ffffffffffffffffffffffffffffffffffffffff021916908373ffffffffffffffffffffffffffffffffffffffff1602179055505061027a565b60008060009054906101000a900473ffffffffffffffffffffffffffffffffffffffff169050816000806101000a81548173ffffffffffffffffffffffffffffffffffffffff021916908373ffffffffffffffffffffffffffffffffffffffff1602179055508173ffffffffffffffffffffffffffffffffffffffff168173ffffffffffffffffffffffffffffffffffffffff167f8be0079c531659141344cd1fd0a4f28419497f9722a3daafe3b4186f6b6457e060405160405180910390a35050565b600080fd5b600073ffffffffffffffffffffffffffffffffffffffff82169050919050565b60006101f0826101c5565b9050919050565b610200816101e5565b811461020b57600080fd5b50565b60008151905061021d816101f7565b92915050565b600060208284031215610239576102386101c0565b5b60006102478482850161020e565b91505092915050565b610259816101e5565b82525050565b60006020820190506102746000830184610250565b92915050565b611014806102896000396000f3fe608060405234801561001057600080fd5b50600436106100a95760003560e01c80637a9a0025116100715780637a9a0025146101645780637e25b5f81461018057806382ef7cf51461019c5780638da5cb5b146101cc578063f2fde38b146101ea578063fc46b8b014610206576100a9565b806306cb5b66146100ae57806320ef882c146100ca5780635221c1f0146100fa578063715018a61461012a57806375979f7914610134575b600080fd5b6100c860048036038101906100c39190610c50565b610222565b005b6100e460048036038101906100df9190610cb3565b61026e565b6040516100f19190610d0e565b60405180910390f35b610114600480360381019061010f9190610d29565b610309565b6040516101219190610d0e565b60405180910390f35b6101326103e7565b005b61014e60048036038101906101499190610cb3565b6103fb565b60405161015b9190610d0e565b60405180910390f35b61017e60048036038101906101799190610d82565b610414565b005b61019a60048036038101906101959190610cb3565b610695565b005b6101b660048036038101906101b19190610d29565b610835565b6040516101c39190610de4565b60405180910390f35b6101d4610875565b6040516101e19190610de4565b60405180910390f35b61020460048036038101906101ff9190610c50565b61089e565b005b610220600480360381019061021b9190610dff565b610924565b005b61022a610a32565b80600360006101000a81548173ffffffffffffffffffffffffffffffffffffffff021916908373ffffffffffffffffffffffffffffffffffffffff16021790555050565b60008173ffffffffffffffffffffffffffffffffffffffff166001600085815260200190815260200160002060000160009054906101000a900473ffffffffffffffffffffffffffffffffffffffff1673ffffffffffffffffffffffffffffffffffffffff1614801561030157506001600084815260200190815260200160002060000160149054906101000a900460ff165b905092915050565b600080600160008481526020019081526020016000206040518060400160405290816000820160009054906101000a900473ffffffffffffffffffffffffffffffffffffffff1673ffffffffffffffffffffffffffffffffffffffff1673ffffffffffffffffffffffffffffffffffffffff1681526020016000820160149054906101000a900460ff1615151515815250509050600073ffffffffffffffffffffffffffffffffffffffff16816000015173ffffffffffffffffffffffffffffffffffffffff16141580156103df575080602001515b915050919050565b6103ef610a32565b6103f96000610ab9565b565b6000806104088484610b7d565b90508091505092915050565b61041c610a32565b600073ffffffffffffffffffffffffffffffffffffffff166001600085815260200190815260200160002060000160009054906101000a900473ffffffffffffffffffffffffffffffffffffffff1673ffffffffffffffffffffffffffffffffffffffff1614806104ae57506001600084815260200190815260200160002060000160149054906101000a900460ff16155b156104e5576040517fa3e4cb5700000000000000000000000000000000000000000000000000000000815260040160405180910390fd5b60006002600085815260200190815260200160002060008473ffffffffffffffffffffffffffffffffffffffff1673ffffffffffffffffffffffffffffffffffffffff16815260200190815260200160002060006101000a81548160ff0219169083151502179055508173ffffffffffffffffffffffffffffffffffffffff16837f2cd0e2d9f28ea02c722dd6cf4d460b6c53daa27d12f26415f19c752e0b177905836040516105959190610d0e565b60405180910390a360008383836040516020016105b493929190610e4e565b6040516020818303038152906040529050600360009054906101000a900473ffffffffffffffffffffffffffffffffffffffff1673ffffffffffffffffffffffffffffffffffffffff16633a358484856001600088815260200190815260200160002060000160009054906101000a900473ffffffffffffffffffffffffffffffffffffffff166000856040518563ffffffff1660e01b815260040161065d9493929190610f15565b600060405180830381600087803b15801561067757600080fd5b505af115801561068b573d6000803e3d6000fd5b5050505050505050565b61069d610a32565b600073ffffffffffffffffffffffffffffffffffffffff166001600084815260200190815260200160002060000160009054906101000a900473ffffffffffffffffffffffffffffffffffffffff1673ffffffffffffffffffffffffffffffffffffffff1614610742576040517f08c379a000000000000000000000000000000000000000000000000000000000815260040161073990610fbe565b60405180910390fd5b60405180604001604052808273ffffffffffffffffffffffffffffffffffffffff168152602001600015158152506001600084815260200190815260200160002060008201518160000160006101000a81548173ffffffffffffffffffffffffffffffffffffffff021916908373ffffffffffffffffffffffffffffffffffffffff16021790555060208201518160000160146101000a81548160ff0219169083151502179055509050508073ffffffffffffffffffffffffffffffffffffffff16827f7f74812a5c28f04eea9007878d0e63eb304afe494a442babbe1b2875fbc1cfd660405160405180910390a35050565b60006001600083815260200190815260200160002060000160009054906101000a900473ffffffffffffffffffffffffffffffffffffffff169050919050565b60008060009054906101000a900473ffffffffffffffffffffffffffffffffffffffff16905090565b6108a6610a32565b600073ffffffffffffffffffffffffffffffffffffffff168173ffffffffffffffffffffffffffffffffffffffff16036109185760006040517f1e4fbdf700000000000000000000000000000000000000000000000000000000815260040161090f9190610de4565b60405180910390fd5b61092181610ab9565b50565b61092c610a32565b600073ffffffffffffffffffffffffffffffffffffffff166001600084815260200190815260200160002060000160009054906101000a900473ffffffffffffffffffffffffffffffffffffffff1673ffffffffffffffffffffffffffffffffffffffff16036109c8576040517fa3e4cb5700000000000000000000000000000000000000000000000000000000815260040160405180910390fd5b806001600084815260200190815260200160002060000160146101000a81548160ff021916908315150217905550817f27ac1f8582df24c5a440380c6f532a5e3c80caf348beb3f6484f310f2c6bbd0b82604051610a269190610d0e565b60405180910390a25050565b610a3a610be5565b73ffffffffffffffffffffffffffffffffffffffff16610a58610875565b73ffffffffffffffffffffffffffffffffffffffff1614610ab757610a7b610be5565b6040517f118cdaa7000000000000000000000000000000000000000000000000000000008152600401610aae9190610de4565b60405180910390fd5b565b60008060009054906101000a900473ffffffffffffffffffffffffffffffffffffffff169050816000806101000a81548173ffffffffffffffffffffffffffffffffffffffff021916908373ffffffffffffffffffffffffffffffffffffffff1602179055508173ffffffffffffffffffffffffffffffffffffffff168173ffffffffffffffffffffffffffffffffffffffff167f8be0079c531659141344cd1fd0a4f28419497f9722a3daafe3b4186f6b6457e060405160405180910390a35050565b60006002600084815260200190815260200160002060008373ffffffffffffffffffffffffffffffffffffffff1673ffffffffffffffffffffffffffffffffffffffff16815260200190815260200160002060009054906101000a900460ff16905092915050565b600033905090565b600080fd5b600073ffffffffffffffffffffffffffffffffffffffff82169050919050565b6000610c1d82610bf2565b9050919050565b610c2d81610c12565b8114610c3857600080fd5b50565b600081359050610c4a81610c24565b92915050565b600060208284031215610c6657610c65610bed565b5b6000610c7484828501610c3b565b91505092915050565b6000819050919050565b610c9081610c7d565b8114610c9b57600080fd5b50565b600081359050610cad81610c87565b92915050565b60008060408385031215610cca57610cc9610bed565b5b6000610cd885828601610c9e565b9250506020610ce985828601610c3b565b9150509250929050565b60008115159050919050565b610d0881610cf3565b82525050565b6000602082019050610d236000830184610cff565b92915050565b600060208284031215610d3f57610d3e610bed565b5b6000610d4d84828501610c9e565b91505092915050565b610d5f81610cf3565b8114610d6a57600080fd5b50565b600081359050610d7c81610d56565b92915050565b600080600060608486031215610d9b57610d9a610bed565b5b6000610da986828701610c9e565b9350506020610dba86828701610c3b565b9250506040610dcb86828701610d6d565b9150509250925092565b610dde81610c12565b82525050565b6000602082019050610df96000830184610dd5565b92915050565b60008060408385031215610e1657610e15610bed565b5b6000610e2485828601610c9e565b9250506020610e3585828601610d6d565b9150509250929050565b610e4881610c7d565b82525050565b6000606082019050610e636000830186610e3f565b610e706020830185610dd5565b610e7d6040830184610cff565b949350505050565b600081519050919050565b600082825260208201905092915050565b60005b83811015610ebf578082015181840152602081019050610ea4565b60008484015250505050565b6000601f19601f8301169050919050565b6000610ee782610e85565b610ef18185610e90565b9350610f01818560208601610ea1565b610f0a81610ecb565b840191505092915050565b6000608082019050610f2a6000830187610e3f565b610f376020830186610dd5565b610f446040830185610cff565b8181036060830152610f568184610edc565b905095945050505050565b600082825260208201905092915050565b7f434841494e5f4558495354530000000000000000000000000000000000000000600082015250565b6000610fa8600c83610f61565b9150610fb382610f72565b602082019050919050565b60006020820190508181036000830152610fd781610f9b565b905091905056fea2646970667358221220478a0b472f326ec37537d15c196a18e396920484a2b2039c29c16f0d08eb888d64736f6c634300081c0033",
  "linkReferences": {},
  "deployedLinkReferences": {}
}