{
  "_format": "hh-sol-artifact-1",
  "contractName": "MerchantRegistry",
  "sourceName": "contracts/MerchantRegistry.sol",
  "abi": [
    {
      "inputs": [
        {
          "internalType": "address",
          "name": "_chain",
          "type": "address"
        },
        {
          "internalType": "address",
          "name": "_mgr",
          "type": "address"
        }
      ],
      "stateMutability": "nonpayable",
      "type": "constructor"
    },
    {
      "inputs": [],
      "name": "MerchantNotUnique",
      "type": "error"
    },
    {
      "inputs": [],
      "name": "MissingMerchant",
      "type": "error"
    },
    {
      "inputs": [
        {
          "internalType": "address",
          "name": "owner",
          "type": "address"
        }
      ],
      "name": "OwnableInvalidOwner",
      "type": "error"
    },
    {
      "inputs": [
        {
          "internalType": "address",
          "name": "account",
          "type": "address"
        }
      ],
      "name": "OwnableUnauthorizedAccount",
      "type": "error"
    },
    {
      "inputs": [],
      "name": "Unauthorized",
      "type": "error"
    },
    {
      "inputs": [],
      "name": "UnregisteredChain",
      "type": "error"
    },
    {
      "inputs": [],
      "name": "UnsupportedChain",
      "type": "error"
    },
    {
      "inputs": [],
      "name": "UnsupportedToken",
      "type": "error"
    },
    {
      "anonymous": false,
      "inputs": [
        {
          "indexed": true,
          "internalType": "address",
          "name": "mId",
          "type": "address"
        },
        {
          "indexed": true,
          "internalType": "bytes",
          "name": "metadata",
          "type": "bytes"
        }
      ],
      "name": "MerchantCreated",
      "type": "event"
    },
    {
      "anonymous": false,
      "inputs": [
        {
          "indexed": true,
          "internalType": "address",
          "name": "mId",
          "type": "address"
        },
        {
          "indexed": false,
          "internalType": "bool",
          "name": "status",
          "type": "bool"
        }
      ],
      "name": "MerchantStatusUpdated",
      "type": "event"
    },
    {
      "anonymous": false,
      "inputs": [
        {
          "indexed": true,
          "internalType": "address",
          "name": "mid",
          "type": "address"
        },
        {
          "indexed": false,
          "internalType": "uint256",
          "name": "_grace",
          "type": "uint256"
        },
        {
          "indexed": false,
          "internalType": "uint256",
          "name": "window",
          "type": "uint256"
        },
        {
          "indexed": false,
          "internalType": "bytes",
          "name": "metadata",
          "type": "bytes"
        }
      ],
      "name": "MerchantUpdated",
      "type": "event"
    },
    {
      "anonymous": false,
      "inputs": [
        {
          "indexed": true,
          "internalType": "address",
          "name": "previousOwner",
          "type": "address"
        },
        {
          "indexed": true,
          "internalType": "address",
          "name": "newOwner",
          "type": "address"
        }
      ],
      "name": "OwnershipTransferred",
      "type": "event"
    },
    {
      "anonymous": false,
      "inputs": [
        {
          "indexed": true,
          "internalType": "address",
          "name": "mId",
          "type": "address"
        },
        {
          "indexed": true,
          "internalType": "uint256",
          "name": "chainId",
          "type": "uint256"
        },
        {
          "indexed": false,
          "internalType": "address",
          "name": "payoutAddr",
          "type": "address"
        },
        {
          "indexed": false,
          "internalType": "address",
          "name": "old",
          "type": "address"
        }
      ],
      "name": "PayoutAddressSet",
      "type": "event"
    },
    {
      "anonymous": false,
      "inputs": [
        {
          "indexed": true,
          "internalType": "address",
          "name": "mid",
          "type": "address"
        },
        {
          "indexed": true,
          "internalType": "uint256",
          "name": "cid",
          "type": "uint256"
        },
        {
          "indexed": false,
          "internalType": "address[]",
          "name": "tokens",
          "type": "address[]"
        },
        {
          "indexed": false,
          "internalType": "bool",
          "name": "isAdding",
          "type": "bool"
        }
      ],
      "name": "TokensAdded",
      "type": "event"
    },
    {
      "inputs": [
        {
          "internalType": "uint256",
          "name": "_grace",
          "type": "uint256"
        },
        {
          "internalType": "uint256",
          "name": "_window",
          "type": "uint256"
        },
        {
          "internalType": "bytes",
          "name": "_meta",
          "type": "bytes"
        }
      ],
      "name": "createMerchant",
      "outputs": [
        {
          "internalType": "address",
          "name": "mId",
          "type": "address"
        }
      ],
      "stateMutability": "nonpayable",
      "type": "function"
    },
    {
      "inputs": [
        {
          "internalType": "address",
          "name": "_mid",
          "type": "address"
        }
      ],
      "name": "getMerchant",
      "outputs": [
        {
          "components": [
            {
              "internalType": "uint256",
              "name": "grace",
              "type": "uint256"
            },
            {
              "internalType": "uint256",
              "name": "window",
              "type": "uint256"
            },
            {
              "internalType": "bool",
              "name": "active",
              "type": "bool"
            },
            {
              "internalType": "bytes",
              "name": "metadata",
              "type": "bytes"
            }
          ],
          "internalType": "struct Merchant",
          "name": "",
          "type": "tuple"
        }
      ],
      "stateMutability": "view",
      "type": "function"
    },
    {
      "inputs": [
        {
          "internalType": "address",
          "name": "_mid",
          "type": "address"
        },
        {
          "internalType": "uint256",
          "name": "_cid",
          "type": "uint256"
        }
      ],
      "name": "getPayoutAddress",
      "outputs": [
        {
          "internalType": "address",
          "name": "",
          "type": "address"
        }
      ],
      "stateMutability": "view",
      "type": "function"
    },
    {
      "inputs": [
        {
          "internalType": "address",
          "name": "_mid",
          "type": "address"
        },
        {
          "internalType": "uint256",
          "name": "_cid",
          "type": "uint256"
        },
        {
          "internalType": "address",
          "name": "_token",
          "type": "address"
        }
      ],
      "name": "isApprovedToken",
      "outputs": [
        {
          "internalType": "bool",
          "name": "",
          "type": "bool"
        }
      ],
      "stateMutability": "view",
      "type": "function"
    },
    {
      "inputs": [],
      "name": "owner",
      "outputs": [
        {
          "internalType": "address",
          "name": "",
          "type": "address"
        }
      ],
      "stateMutability": "view",
      "type": "function"
    },
    {
      "inputs": [],
      "name": "renounceOwnership",
      "outputs": [],
      "stateMutability": "nonpayable",
      "type": "function"
    },
    {
      "inputs": [
        {
          "internalType": "address",
          "name": "_mid",
          "type": "address"
        },
        {
          "internalType": "bool",
          "name": "active",
          "type": "bool"
        }
      ],
      "name": "setMerchantStatus",
      "outputs": [],
      "stateMutability": "nonpayable",
      "type": "function"
    },
    {
      "inputs": [
        {
          "internalType": "address",
          "name": "_mid",
          "type": "address"
        },
        {
          "internalType": "uint256",
          "name": "_cid",
          "type": "uint256"
        },
        {
          "internalType": "address",
          "name": "_payout",
          "type": "address"
        }
      ],
      "name": "setPayoutAddress",
      "outputs": [],
      "stateMutability": "nonpayable",
      "type": "function"
    },
    {
      "inputs": [
        {
          "internalType": "address",
          "name": "_mgr",
          "type": "address"
        }
      ],
      "name": "setSubscriptionManager",
      "outputs": [],
      "stateMutability": "nonpayable",
      "type": "function"
    },
    {
      "inputs": [],
      "name": "subManager",
      "outputs": [
        {
          "internalType": "contract ISubscriptionManager",
          "name": "",
          "type": "address"
        }
      ],
      "stateMutability": "view",
      "type": "function"
    },
    {
      "inputs": [],
      "name": "subsController",
      "outputs": [
        {
          "internalType": "contract ISubscriptionsController",
          "name": "",
          "type": "address"
        }
      ],
      "stateMutability": "view",
      "type": "function"
    },
    {
      "inputs": [
        {
          "internalType": "address",
          "name": "newOwner",
          "type": "address"
        }
      ],
      "name": "transferOwnership",
      "outputs": [],
      "stateMutability": "nonpayable",
      "type": "function"
    },
    {
      "inputs": [
        {
          "internalType": "address",
          "name": "_mid",
          "type": "address"
        },
        {
          "internalType": "uint256",
          "name": "_cid",
          "type": "uint256"
        },
        {
          "internalType": "address[]",
          "name": "_tokens",
          "type": "address[]"
        },
        {
          "internalType": "bool",
          "name": "_adding",
          "type": "bool"
        }
      ],
      "name": "updateAllowedToken",
      "outputs": [],
      "stateMutability": "nonpayable",
      "type": "function"
    },
    {
      "inputs": [
        {
          "internalType": "address",
          "name": "_controller",
          "type": "address"
        }
      ],
      "name": "updateController",
      "outputs": [],
      "stateMutability": "nonpayable",
      "type": "function"
    },
    {
      "inputs": [
        {
          "internalType": "address",
          "name": "_mid",
          "type": "address"
        },
        {
          "internalType": "uint256",
          "name": "_grace",
          "type": "uint256"
        },
        {
          "internalType": "uint256",
          "name": "_window",
          "type": "uint256"
        },
        {
          "internalType": "bytes",
          "name": "_metadata",
          "type": "bytes"
        }
      ],
      "name": "updateMerchantConfig",
      "outputs": [],
      "stateMutability": "nonpayable",
      "type": "function"
    }
  ],
  "bytecode": "0x60a060405234801561001057600080fd5b50604051612e07380380612e0783398181016040528101906100329190610258565b33600073ffffffffffffffffffffffffffffffffffffffff168173ffffffffffffffffffffffffffffffffffffffff16036100a55760006040517f1e4fbdf700000000000000000000000000000000000000000000000000000000815260040161009c91906102a7565b60405180910390fd5b6100b48161013160201b60201c565b508173ffffffffffffffffffffffffffffffffffffffff1660808173ffffffffffffffffffffffffffffffffffffffff168152505080600560006101000a81548173ffffffffffffffffffffffffffffffffffffffff021916908373ffffffffffffffffffffffffffffffffffffffff16021790555050506102c2565b60008060009054906101000a900473ffffffffffffffffffffffffffffffffffffffff169050816000806101000a81548173ffffffffffffffffffffffffffffffffffffffff021916908373ffffffffffffffffffffffffffffffffffffffff1602179055508173ffffffffffffffffffffffffffffffffffffffff168173ffffffffffffffffffffffffffffffffffffffff167f8be0079c531659141344cd1fd0a4f28419497f9722a3daafe3b4186f6b6457e060405160405180910390a35050565b600080fd5b600073ffffffffffffffffffffffffffffffffffffffff82169050919050565b6000610225826101fa565b9050919050565b6102358161021a565b811461024057600080fd5b50565b6000815190506102528161022c565b92915050565b6000806040838503121561026f5761026e6101f5565b5b600061027d85828601610243565b925050602061028e85828601610243565b9150509250929050565b6102a18161021a565b82525050565b60006020820190506102bc6000830184610298565b92915050565b608051612b0e6102f96000396000818161080801528181610a5b0152818161151001528181611638015261189b0152612b0e6000f3fe608060405234801561001057600080fd5b50600436106100f55760003560e01c8063715018a611610097578063b338407411610066578063b33840741461025e578063c05b35851461028e578063ddcbbc52146102aa578063f2fde38b146102c6576100f5565b8063715018a6146101ea578063876598d6146101f45780638da5cb5b14610210578063b2734eaf1461022e576100f5565b80633830ae88116100d35780633830ae881461017657806347d9abdf1461019457806357ccb6a0146101b05780636632ba93146101cc576100f5565b806306cb5b66146100fa578063278d21e61461011657806327b0d9dc14610146575b600080fd5b610114600480360381019061010f9190611c96565b6102e2565b005b610130600480360381019061012b9190611d5e565b61032e565b60405161013d9190611de1565b60405180910390f35b610160600480360381019061015b9190611dfc565b6105b3565b60405161016d9190611de1565b60405180910390f35b61017e61061e565b60405161018b9190611e9b565b60405180910390f35b6101ae60048036038101906101a99190611eb6565b610644565b005b6101ca60048036038101906101c59190611f41565b610b91565b005b6101d4610ce6565b6040516101e19190611fa2565b60405180910390f35b6101f2610d0c565b005b61020e60048036038101906102099190611fbd565b610d20565b005b610218611075565b6040516102259190611de1565b60405180910390f35b61024860048036038101906102439190611c96565b61109e565b6040516102559190612156565b60405180910390f35b61027860048036038101906102739190611eb6565b6111b8565b6040516102859190612187565b60405180910390f35b6102a860048036038101906102a39190611c96565b61136f565b005b6102c460048036038101906102bf91906122e0565b6113bb565b005b6102e060048036038101906102db9190611c96565b611a21565b005b6102ea611aa7565b80600460006101000a81548173ffffffffffffffffffffffffffffffffffffffff021916908373ffffffffffffffffffffffffffffffffffffffff16021790555050565b6000600160003373ffffffffffffffffffffffffffffffffffffffff1673ffffffffffffffffffffffffffffffffffffffff16815260200190815260200160002060020160009054906101000a900460ff1680156103ce57506000600160003373ffffffffffffffffffffffffffffffffffffffff1673ffffffffffffffffffffffffffffffffffffffff16815260200190815260200160002060010154115b15610405576040517f0b1d936e00000000000000000000000000000000000000000000000000000000815260040160405180910390fd5b604051806080016040528086815260200185815260200160011515815260200184848080601f016020809104026020016040519081016040528093929190818152602001838380828437600081840152601f19601f82011690508083019250505050505050815250600160003373ffffffffffffffffffffffffffffffffffffffff1673ffffffffffffffffffffffffffffffffffffffff168152602001908152602001600020600082015181600001556020820151816001015560408201518160020160006101000a81548160ff02191690831515021790555060608201518160030190816104f59190612565565b509050508282604051610509929190612676565b60405180910390203373ffffffffffffffffffffffffffffffffffffffff167f27e4621d653f2188d51dcb21fc1d6c5b08a4127e53877d3c0a81b28ceb1ab15e60405160405180910390a33390503373ffffffffffffffffffffffffffffffffffffffff167f1e0721ce5ad511fbe5fe9cf8f47e973c0d9aceafd914099246cd7378efe18da1868686866040516105a394939291906126dc565b60405180910390a2949350505050565b60008083836040516020016105c992919061271c565b6040516020818303038152906040528051906020012090506002600082815260200190815260200160002060009054906101000a900473ffffffffffffffffffffffffffffffffffffffff1691505092915050565b600460009054906101000a900473ffffffffffffffffffffffffffffffffffffffff1681565b8273ffffffffffffffffffffffffffffffffffffffff163373ffffffffffffffffffffffffffffffffffffffff16146106a9576040517f82b4290000000000000000000000000000000000000000000000000000000000815260040160405180910390fd5b6000600160008573ffffffffffffffffffffffffffffffffffffffff1673ffffffffffffffffffffffffffffffffffffffff16815260200190815260200160002060405180608001604052908160008201548152602001600182015481526020016002820160009054906101000a900460ff1615151515815260200160038201805461073490612392565b80601f016020809104026020016040519081016040528092919081815260200182805461076090612392565b80156107ad5780601f10610782576101008083540402835291602001916107ad565b820191906000526020600020905b81548152906001019060200180831161079057829003601f168201915b5050505050815250509050806040015115806107cd575060008160200151145b15610804576040517f6840319000000000000000000000000000000000000000000000000000000000815260040160405180910390fd5b60007f000000000000000000000000000000000000000000000000000000000000000073ffffffffffffffffffffffffffffffffffffffff16635221c1f0856040518263ffffffff1660e01b815260040161085f9190612745565b602060405180830381865afa15801561087c573d6000803e3d6000fd5b505050506040513d601f19601f820116820180604052508101906108a09190612775565b9050806108d9576040517fa3e4cb5700000000000000000000000000000000000000000000000000000000815260040160405180910390fd5b600085856040516020016108ee92919061271c565b60405160208183030381529060405280519060200120905060006002600083815260200190815260200160002060009054906101000a900473ffffffffffffffffffffffffffffffffffffffff169050846002600084815260200190815260200160002060006101000a81548173ffffffffffffffffffffffffffffffffffffffff021916908373ffffffffffffffffffffffffffffffffffffffff160217905550858773ffffffffffffffffffffffffffffffffffffffff167f054d84519acf7f691e1596de791426eff0674b07596b12c82234891d2c20269887846040516109d99291906127a2565b60405180910390a360008787600067ffffffffffffffff811115610a00576109ff6121a2565b5b604051908082528060200260200182016040528015610a2e5781602001602082028036833780820191505090505b50600189604051602001610a46959493929190612889565b604051602081830303815290604052905060007f000000000000000000000000000000000000000000000000000000000000000073ffffffffffffffffffffffffffffffffffffffff166382ef7cf5896040518263ffffffff1660e01b8152600401610ab29190612745565b602060405180830381865afa158015610acf573d6000803e3d6000fd5b505050506040513d601f19601f82011682018060405250810190610af391906128f8565b9050600460009054906101000a900473ffffffffffffffffffffffffffffffffffffffff1673ffffffffffffffffffffffffffffffffffffffff16633d453da48983856040518463ffffffff1660e01b8152600401610b549392919061295e565b600060405180830381600087803b158015610b6e57600080fd5b505af1158015610b82573d6000803e3d6000fd5b50505050505050505050505050565b8173ffffffffffffffffffffffffffffffffffffffff163373ffffffffffffffffffffffffffffffffffffffff1614610bf6576040517f82b4290000000000000000000000000000000000000000000000000000000000815260040160405180910390fd5b6000600160008473ffffffffffffffffffffffffffffffffffffffff1673ffffffffffffffffffffffffffffffffffffffff16815260200190815260200160002090506000816001015403610c77576040517f6840319000000000000000000000000000000000000000000000000000000000815260040160405180910390fd5b818160020160006101000a81548160ff0219169083151502179055508273ffffffffffffffffffffffffffffffffffffffff167f30a45c7f8d59b99f6da52c65ba25fd31c955b18e3955a95a10a3293cda42b70183604051610cd99190612187565b60405180910390a2505050565b600560009054906101000a900473ffffffffffffffffffffffffffffffffffffffff1681565b610d14611aa7565b610d1e6000611b2e565b565b8473ffffffffffffffffffffffffffffffffffffffff163373ffffffffffffffffffffffffffffffffffffffff1614610d85576040517f82b4290000000000000000000000000000000000000000000000000000000000815260040160405180910390fd5b6000600160008773ffffffffffffffffffffffffffffffffffffffff1673ffffffffffffffffffffffffffffffffffffffff16815260200190815260200160002060405180608001604052908160008201548152602001600182015481526020016002820160009054906101000a900460ff16151515158152602001600382018054610e1090612392565b80601f0160208091040260200160405190810160405280929190818152602001828054610e3c90612392565b8015610e895780601f10610e5e57610100808354040283529160200191610e89565b820191906000526020600020905b815481529060010190602001808311610e6c57829003601f168201915b505050505081525050905080604001511580610ea9575060008160200151145b15610ee0576040517f6840319000000000000000000000000000000000000000000000000000000000815260040160405180910390fd5b60405180608001604052808681526020016000861480610f035750826020015186145b610f0d5785610f13565b82602001515b815260200182604001511515815260200184848080601f016020809104026020016040519081016040528093929190818152602001838380828437600081840152601f19601f82011690508083019250505050505050815250600160008873ffffffffffffffffffffffffffffffffffffffff1673ffffffffffffffffffffffffffffffffffffffff168152602001908152602001600020600082015181600001556020820151816001015560408201518160020160006101000a81548160ff0219169083151502179055506060820151816003019081610ff49190612565565b509050508573ffffffffffffffffffffffffffffffffffffffff167f1e0721ce5ad511fbe5fe9cf8f47e973c0d9aceafd914099246cd7378efe18da18660008714806110435750836020015187145b61104d5786611053565b83602001515b868660405161106594939291906126dc565b60405180910390a2505050505050565b60008060009054906101000a900473ffffffffffffffffffffffffffffffffffffffff16905090565b6110a6611bfa565b600160008373ffffffffffffffffffffffffffffffffffffffff1673ffffffffffffffffffffffffffffffffffffffff16815260200190815260200160002060405180608001604052908160008201548152602001600182015481526020016002820160009054906101000a900460ff1615151515815260200160038201805461112f90612392565b80601f016020809104026020016040519081016040528092919081815260200182805461115b90612392565b80156111a85780601f1061117d576101008083540402835291602001916111a8565b820191906000526020600020905b81548152906001019060200180831161118b57829003601f168201915b5050505050815250509050919050565b600080600160008673ffffffffffffffffffffffffffffffffffffffff1673ffffffffffffffffffffffffffffffffffffffff16815260200190815260200160002060405180608001604052908160008201548152602001600182015481526020016002820160009054906101000a900460ff1615151515815260200160038201805461124490612392565b80601f016020809104026020016040519081016040528092919081815260200182805461127090612392565b80156112bd5780601f10611292576101008083540402835291602001916112bd565b820191906000526020600020905b8154815290600101906020018083116112a057829003601f168201915b5050505050815250509050806040015115806112dd575060008160200151145b15611314576040517f6840319000000000000000000000000000000000000000000000000000000000815260040160405180910390fd5b600085858560405160200161132b9392919061299c565b6040516020818303038152906040528051906020012090506003600082815260200190815260200160002060009054906101000a900460ff16925050509392505050565b611377611aa7565b80600560006101000a81548173ffffffffffffffffffffffffffffffffffffffff021916908373ffffffffffffffffffffffffffffffffffffffff16021790555050565b8373ffffffffffffffffffffffffffffffffffffffff163373ffffffffffffffffffffffffffffffffffffffff1614611420576040517f82b4290000000000000000000000000000000000000000000000000000000000815260040160405180910390fd5b6000600160008673ffffffffffffffffffffffffffffffffffffffff1673ffffffffffffffffffffffffffffffffffffffff16815260200190815260200160002090508060020160009054906101000a900460ff161580611485575060008160010154145b156114bc576040517f6840319000000000000000000000000000000000000000000000000000000000815260040160405180910390fd5b6000835111611500576040517f08c379a00000000000000000000000000000000000000000000000000000000081526004016114f790612a30565b60405180910390fd5b60005b835181101561180a5760007f000000000000000000000000000000000000000000000000000000000000000073ffffffffffffffffffffffffffffffffffffffff16635221c1f0876040518263ffffffff1660e01b81526004016115679190612745565b602060405180830381865afa158015611584573d6000803e3d6000fd5b505050506040513d601f19601f820116820180604052508101906115a89190612775565b9050600073ffffffffffffffffffffffffffffffffffffffff168583815181106115d5576115d4612a50565b5b602002602001015173ffffffffffffffffffffffffffffffffffffffff1614806115fd575080155b15611634576040517fd21eab3700000000000000000000000000000000000000000000000000000000815260040160405180910390fd5b60007f000000000000000000000000000000000000000000000000000000000000000073ffffffffffffffffffffffffffffffffffffffff166375979f798888868151811061168657611685612a50565b5b60200260200101516040518363ffffffff1660e01b81526004016116ab929190612a7f565b602060405180830381865afa1580156116c8573d6000803e3d6000fd5b505050506040513d601f19601f820116820180604052508101906116ec9190612775565b9050600073ffffffffffffffffffffffffffffffffffffffff1686848151811061171957611718612a50565b5b602002602001015173ffffffffffffffffffffffffffffffffffffffff161480611741575080155b15611778576040517f6a17288200000000000000000000000000000000000000000000000000000000815260040160405180910390fd5b6000888888868151811061178f5761178e612a50565b5b60200260200101516040516020016117a99392919061299c565b604051602081830303815290604052805190602001209050856117cd5760006117d0565b60015b6003600083815260200190815260200160002060006101000a81548160ff0219169083151502179055505050508080600101915050611503565b506000858560405160200161182092919061271c565b6040516020818303038152906040528051906020012090506000868686866002600087815260200190815260200160002060009054906101000a900473ffffffffffffffffffffffffffffffffffffffff16604051602001611886959493929190612889565b604051602081830303815290604052905060007f000000000000000000000000000000000000000000000000000000000000000073ffffffffffffffffffffffffffffffffffffffff166382ef7cf5886040518263ffffffff1660e01b81526004016118f29190612745565b602060405180830381865afa15801561190f573d6000803e3d6000fd5b505050506040513d601f19601f8201168201806040525081019061193391906128f8565b9050600460009054906101000a900473ffffffffffffffffffffffffffffffffffffffff1673ffffffffffffffffffffffffffffffffffffffff16633d453da48883856040518463ffffffff1660e01b81526004016119949392919061295e565b600060405180830381600087803b1580156119ae57600080fd5b505af11580156119c2573d6000803e3d6000fd5b50505050868873ffffffffffffffffffffffffffffffffffffffff167fd5bf566134b25c6d34dd9ce13808f7fa809bbce13c96cb712ce0b0bfc7782eec8888604051611a0f929190612aa8565b60405180910390a35050505050505050565b611a29611aa7565b600073ffffffffffffffffffffffffffffffffffffffff168173ffffffffffffffffffffffffffffffffffffffff1603611a9b5760006040517f1e4fbdf7000000000000000000000000000000000000000000000000000000008152600401611a929190611de1565b60405180910390fd5b611aa481611b2e565b50565b611aaf611bf2565b73ffffffffffffffffffffffffffffffffffffffff16611acd611075565b73ffffffffffffffffffffffffffffffffffffffff1614611b2c57611af0611bf2565b6040517f118cdaa7000000000000000000000000000000000000000000000000000000008152600401611b239190611de1565b60405180910390fd5b565b60008060009054906101000a900473ffffffffffffffffffffffffffffffffffffffff169050816000806101000a81548173ffffffffffffffffffffffffffffffffffffffff021916908373ffffffffffffffffffffffffffffffffffffffff1602179055508173ffffffffffffffffffffffffffffffffffffffff168173ffffffffffffffffffffffffffffffffffffffff167f8be0079c531659141344cd1fd0a4f28419497f9722a3daafe3b4186f6b6457e060405160405180910390a35050565b600033905090565b60405180608001604052806000815260200160008152602001600015158152602001606081525090565b6000604051905090565b600080fd5b600080fd5b600073ffffffffffffffffffffffffffffffffffffffff82169050919050565b6000611c6382611c38565b9050919050565b611c7381611c58565b8114611c7e57600080fd5b50565b600081359050611c9081611c6a565b92915050565b600060208284031215611cac57611cab611c2e565b5b6000611cba84828501611c81565b91505092915050565b6000819050919050565b611cd681611cc3565b8114611ce157600080fd5b50565b600081359050611cf381611ccd565b92915050565b600080fd5b600080fd5b600080fd5b60008083601f840112611d1e57611d1d611cf9565b5b8235905067ffffffffffffffff811115611d3b57611d3a611cfe565b5b602083019150836001820283011115611d5757611d56611d03565b5b9250929050565b60008060008060608587031215611d7857611d77611c2e565b5b6000611d8687828801611ce4565b9450506020611d9787828801611ce4565b935050604085013567ffffffffffffffff811115611db857611db7611c33565b5b611dc487828801611d08565b925092505092959194509250565b611ddb81611c58565b82525050565b6000602082019050611df66000830184611dd2565b92915050565b60008060408385031215611e1357611e12611c2e565b5b6000611e2185828601611c81565b9250506020611e3285828601611ce4565b9150509250929050565b6000819050919050565b6000611e61611e5c611e5784611c38565b611e3c565b611c38565b9050919050565b6000611e7382611e46565b9050919050565b6000611e8582611e68565b9050919050565b611e9581611e7a565b82525050565b6000602082019050611eb06000830184611e8c565b92915050565b600080600060608486031215611ecf57611ece611c2e565b5b6000611edd86828701611c81565b9350506020611eee86828701611ce4565b9250506040611eff86828701611c81565b9150509250925092565b60008115159050919050565b611f1e81611f09565b8114611f2957600080fd5b50565b600081359050611f3b81611f15565b92915050565b60008060408385031215611f5857611f57611c2e565b5b6000611f6685828601611c81565b9250506020611f7785828601611f2c565b9150509250929050565b6000611f8c82611e68565b9050919050565b611f9c81611f81565b82525050565b6000602082019050611fb76000830184611f93565b92915050565b600080600080600060808688031215611fd957611fd8611c2e565b5b6000611fe788828901611c81565b9550506020611ff888828901611ce4565b945050604061200988828901611ce4565b935050606086013567ffffffffffffffff81111561202a57612029611c33565b5b61203688828901611d08565b92509250509295509295909350565b61204e81611cc3565b82525050565b61205d81611f09565b82525050565b600081519050919050565b600082825260208201905092915050565b60005b8381101561209d578082015181840152602081019050612082565b60008484015250505050565b6000601f19601f8301169050919050565b60006120c582612063565b6120cf818561206e565b93506120df81856020860161207f565b6120e8816120a9565b840191505092915050565b600060808301600083015161210b6000860182612045565b50602083015161211e6020860182612045565b5060408301516121316040860182612054565b506060830151848203606086015261214982826120ba565b9150508091505092915050565b6000602082019050818103600083015261217081846120f3565b905092915050565b61218181611f09565b82525050565b600060208201905061219c6000830184612178565b92915050565b7f4e487b7100000000000000000000000000000000000000000000000000000000600052604160045260246000fd5b6121da826120a9565b810181811067ffffffffffffffff821117156121f9576121f86121a2565b5b80604052505050565b600061220c611c24565b905061221882826121d1565b919050565b600067ffffffffffffffff821115612238576122376121a2565b5b602082029050602081019050919050565b600061225c6122578461221d565b612202565b9050808382526020820190506020840283018581111561227f5761227e611d03565b5b835b818110156122a857806122948882611c81565b845260208401935050602081019050612281565b5050509392505050565b600082601f8301126122c7576122c6611cf9565b5b81356122d7848260208601612249565b91505092915050565b600080600080608085870312156122fa576122f9611c2e565b5b600061230887828801611c81565b945050602061231987828801611ce4565b935050604085013567ffffffffffffffff81111561233a57612339611c33565b5b612346878288016122b2565b925050606061235787828801611f2c565b91505092959194509250565b7f4e487b7100000000000000000000000000000000000000000000000000000000600052602260045260246000fd5b600060028204905060018216806123aa57607f821691505b6020821081036123bd576123bc612363565b5b50919050565b60008190508160005260206000209050919050565b60006020601f8301049050919050565b600082821b905092915050565b6000600883026124257fffffffffffffffffffffffffffffffffffffffffffffffffffffffffffffffff826123e8565b61242f86836123e8565b95508019841693508086168417925050509392505050565b600061246261245d61245884611cc3565b611e3c565b611cc3565b9050919050565b6000819050919050565b61247c83612447565b61249061248882612469565b8484546123f5565b825550505050565b600090565b6124a5612498565b6124b0818484612473565b505050565b5b818110156124d4576124c960008261249d565b6001810190506124b6565b5050565b601f821115612519576124ea816123c3565b6124f3846123d8565b81016020851015612502578190505b61251661250e856123d8565b8301826124b5565b50505b505050565b600082821c905092915050565b600061253c6000198460080261251e565b1980831691505092915050565b6000612555838361252b565b9150826002028217905092915050565b61256e82612063565b67ffffffffffffffff811115612587576125866121a2565b5b6125918254612392565b61259c8282856124d8565b600060209050601f8311600181146125cf57600084156125bd578287015190505b6125c78582612549565b86555061262f565b601f1984166125dd866123c3565b60005b82811015612605578489015182556001820191506020850194506020810190506125e0565b86831015612622578489015161261e601f89168261252b565b8355505b6001600288020188555050505b505050505050565b600081905092915050565b82818337600083830152505050565b600061265d8385612637565b935061266a838584612642565b82840190509392505050565b6000612683828486612651565b91508190509392505050565b61269881611cc3565b82525050565b600082825260208201905092915050565b60006126bb838561269e565b93506126c8838584612642565b6126d1836120a9565b840190509392505050565b60006060820190506126f1600083018761268f565b6126fe602083018661268f565b81810360408301526127118184866126af565b905095945050505050565b60006040820190506127316000830185611dd2565b61273e602083018461268f565b9392505050565b600060208201905061275a600083018461268f565b92915050565b60008151905061276f81611f15565b92915050565b60006020828403121561278b5761278a611c2e565b5b600061279984828501612760565b91505092915050565b60006040820190506127b76000830185611dd2565b6127c46020830184611dd2565b9392505050565b600081519050919050565b600082825260208201905092915050565b6000819050602082019050919050565b61280081611c58565b82525050565b600061281283836127f7565b60208301905092915050565b6000602082019050919050565b6000612836826127cb565b61284081856127d6565b935061284b836127e7565b8060005b8381101561287c5781516128638882612806565b975061286e8361281e565b92505060018101905061284f565b5085935050505092915050565b600060a08201905061289e6000830188611dd2565b6128ab602083018761268f565b81810360408301526128bd818661282b565b90506128cc6060830185612178565b6128d96080830184611dd2565b9695505050505050565b6000815190506128f281611c6a565b92915050565b60006020828403121561290e5761290d611c2e565b5b600061291c848285016128e3565b91505092915050565b600061293082612063565b61293a818561269e565b935061294a81856020860161207f565b612953816120a9565b840191505092915050565b6000606082019050612973600083018661268f565b6129806020830185611dd2565b81810360408301526129928184612925565b9050949350505050565b60006060820190506129b16000830186611dd2565b6129be602083018561268f565b6129cb6040830184611dd2565b949350505050565b600082825260208201905092915050565b7f4e6f20746f6b656e73207375626d697474656421000000000000000000000000600082015250565b6000612a1a6014836129d3565b9150612a25826129e4565b602082019050919050565b60006020820190508181036000830152612a4981612a0d565b9050919050565b7f4e487b7100000000000000000000000000000000000000000000000000000000600052603260045260246000fd5b6000604082019050612a94600083018561268f565b612aa16020830184611dd2565b9392505050565b60006040820190508181036000830152612ac2818561282b565b9050612ad16020830184612178565b939250505056fea264697066735822122043693836060755c009d68c4201d8fa580cbf3ba449a1a45eeaad10e897f4956464736f6c634300081c0033",
  "linkReferences": {},
  "deployedLinkReferences": {}
}