{
  "_format": "hh-sol-artifact-1",
  "contractName": "MerchantRegistry",
  "sourceName": "contracts/MerchantRegistry.sol",
  "abi": [
    {
      "inputs": [
        {
          "internalType": "address",
          "name": "_chain",
          "type": "address"
        },
        {
          "internalType": "address",
          "name": "_mgr",
          "type": "address"
        },
        {
          "internalType": "address",
          "name": "_controller",
          "type": "address"
        }
      ],
      "stateMutability": "nonpayable",
      "type": "constructor"
    },
    {
      "inputs": [],
      "name": "MerchantNotUnique",
      "type": "error"
    },
    {
      "inputs": [],
      "name": "MissingMerchant",
      "type": "error"
    },
    {
      "inputs": [
        {
          "internalType": "address",
          "name": "owner",
          "type": "address"
        }
      ],
      "name": "OwnableInvalidOwner",
      "type": "error"
    },
    {
      "inputs": [
        {
          "internalType": "address",
          "name": "account",
          "type": "address"
        }
      ],
      "name": "OwnableUnauthorizedAccount",
      "type": "error"
    },
    {
      "inputs": [],
      "name": "Unauthorized",
      "type": "error"
    },
    {
      "inputs": [],
      "name": "UnregisteredChain",
      "type": "error"
    },
    {
      "inputs": [],
      "name": "UnsupportedChain",
      "type": "error"
    },
    {
      "inputs": [],
      "name": "UnsupportedToken",
      "type": "error"
    },
    {
      "anonymous": false,
      "inputs": [
        {
          "indexed": true,
          "internalType": "address",
          "name": "mId",
          "type": "address"
        },
        {
          "indexed": true,
          "internalType": "bytes",
          "name": "metadata",
          "type": "bytes"
        }
      ],
      "name": "MerchantCreated",
      "type": "event"
    },
    {
      "anonymous": false,
      "inputs": [
        {
          "indexed": true,
          "internalType": "address",
          "name": "mId",
          "type": "address"
        },
        {
          "indexed": false,
          "internalType": "bool",
          "name": "status",
          "type": "bool"
        }
      ],
      "name": "MerchantStatusUpdated",
      "type": "event"
    },
    {
      "anonymous": false,
      "inputs": [
        {
          "indexed": true,
          "internalType": "address",
          "name": "mid",
          "type": "address"
        },
        {
          "indexed": false,
          "internalType": "uint256",
          "name": "_grace",
          "type": "uint256"
        },
        {
          "indexed": false,
          "internalType": "uint256",
          "name": "window",
          "type": "uint256"
        },
        {
          "indexed": false,
          "internalType": "bytes",
          "name": "metadata",
          "type": "bytes"
        }
      ],
      "name": "MerchantUpdated",
      "type": "event"
    },
    {
      "anonymous": false,
      "inputs": [
        {
          "indexed": true,
          "internalType": "address",
          "name": "previousOwner",
          "type": "address"
        },
        {
          "indexed": true,
          "internalType": "address",
          "name": "newOwner",
          "type": "address"
        }
      ],
      "name": "OwnershipTransferred",
      "type": "event"
    },
    {
      "anonymous": false,
      "inputs": [
        {
          "indexed": true,
          "internalType": "address",
          "name": "mId",
          "type": "address"
        },
        {
          "indexed": true,
          "internalType": "uint256",
          "name": "chainId",
          "type": "uint256"
        },
        {
          "indexed": false,
          "internalType": "address",
          "name": "payoutAddr",
          "type": "address"
        },
        {
          "indexed": false,
          "internalType": "address",
          "name": "old",
          "type": "address"
        }
      ],
      "name": "PayoutAddressSet",
      "type": "event"
    },
    {
      "anonymous": false,
      "inputs": [
        {
          "indexed": true,
          "internalType": "address",
          "name": "mid",
          "type": "address"
        },
        {
          "indexed": true,
          "internalType": "uint256",
          "name": "cid",
          "type": "uint256"
        },
        {
          "indexed": false,
          "internalType": "address[]",
          "name": "tokens",
          "type": "address[]"
        },
        {
          "indexed": false,
          "internalType": "bool",
          "name": "isAdding",
          "type": "bool"
        }
      ],
      "name": "TokensAdded",
      "type": "event"
    },
    {
      "inputs": [
        {
          "internalType": "address",
          "name": "_owner",
          "type": "address"
        },
        {
          "internalType": "uint256",
          "name": "_grace",
          "type": "uint256"
        },
        {
          "internalType": "uint256",
          "name": "_window",
          "type": "uint256"
        },
        {
          "internalType": "bytes",
          "name": "_meta",
          "type": "bytes"
        }
      ],
      "name": "createMerchant",
      "outputs": [
        {
          "internalType": "address",
          "name": "mId",
          "type": "address"
        }
      ],
      "stateMutability": "nonpayable",
      "type": "function"
    },
    {
      "inputs": [
        {
          "internalType": "address",
          "name": "_mid",
          "type": "address"
        }
      ],
      "name": "getMerchant",
      "outputs": [
        {
          "components": [
            {
              "internalType": "uint256",
              "name": "grace",
              "type": "uint256"
            },
            {
              "internalType": "uint256",
              "name": "window",
              "type": "uint256"
            },
            {
              "internalType": "bool",
              "name": "active",
              "type": "bool"
            },
            {
              "internalType": "bytes",
              "name": "metadata",
              "type": "bytes"
            }
          ],
          "internalType": "struct Merchant",
          "name": "",
          "type": "tuple"
        }
      ],
      "stateMutability": "view",
      "type": "function"
    },
    {
      "inputs": [
        {
          "internalType": "address",
          "name": "_mid",
          "type": "address"
        },
        {
          "internalType": "uint256",
          "name": "_cid",
          "type": "uint256"
        }
      ],
      "name": "getPayoutAddress",
      "outputs": [
        {
          "internalType": "address",
          "name": "",
          "type": "address"
        }
      ],
      "stateMutability": "view",
      "type": "function"
    },
    {
      "inputs": [
        {
          "internalType": "address",
          "name": "_mid",
          "type": "address"
        },
        {
          "internalType": "uint256",
          "name": "_cid",
          "type": "uint256"
        },
        {
          "internalType": "address",
          "name": "_token",
          "type": "address"
        }
      ],
      "name": "isApprovedToken",
      "outputs": [
        {
          "internalType": "bool",
          "name": "",
          "type": "bool"
        }
      ],
      "stateMutability": "view",
      "type": "function"
    },
    {
      "inputs": [],
      "name": "owner",
      "outputs": [
        {
          "internalType": "address",
          "name": "",
          "type": "address"
        }
      ],
      "stateMutability": "view",
      "type": "function"
    },
    {
      "inputs": [],
      "name": "renounceOwnership",
      "outputs": [],
      "stateMutability": "nonpayable",
      "type": "function"
    },
    {
      "inputs": [
        {
          "internalType": "address",
          "name": "_mid",
          "type": "address"
        },
        {
          "internalType": "bool",
          "name": "active",
          "type": "bool"
        }
      ],
      "name": "setMerchantStatus",
      "outputs": [],
      "stateMutability": "nonpayable",
      "type": "function"
    },
    {
      "inputs": [
        {
          "internalType": "address",
          "name": "_mid",
          "type": "address"
        },
        {
          "internalType": "uint256",
          "name": "_cid",
          "type": "uint256"
        },
        {
          "internalType": "address",
          "name": "_payout",
          "type": "address"
        }
      ],
      "name": "setPayoutAddress",
      "outputs": [],
      "stateMutability": "nonpayable",
      "type": "function"
    },
    {
      "inputs": [
        {
          "internalType": "address",
          "name": "_mgr",
          "type": "address"
        }
      ],
      "name": "setSubscriptionManager",
      "outputs": [],
      "stateMutability": "nonpayable",
      "type": "function"
    },
    {
      "inputs": [],
      "name": "subManager",
      "outputs": [
        {
          "internalType": "contract ISubscriptionManager",
          "name": "",
          "type": "address"
        }
      ],
      "stateMutability": "view",
      "type": "function"
    },
    {
      "inputs": [],
      "name": "subsController",
      "outputs": [
        {
          "internalType": "contract ISubscriptionsController",
          "name": "",
          "type": "address"
        }
      ],
      "stateMutability": "view",
      "type": "function"
    },
    {
      "inputs": [
        {
          "internalType": "address",
          "name": "newOwner",
          "type": "address"
        }
      ],
      "name": "transferOwnership",
      "outputs": [],
      "stateMutability": "nonpayable",
      "type": "function"
    },
    {
      "inputs": [
        {
          "internalType": "address",
          "name": "_mid",
          "type": "address"
        },
        {
          "internalType": "uint256",
          "name": "_cid",
          "type": "uint256"
        },
        {
          "internalType": "address[]",
          "name": "_tokens",
          "type": "address[]"
        },
        {
          "internalType": "bool",
          "name": "_adding",
          "type": "bool"
        }
      ],
      "name": "updateAllowedToken",
      "outputs": [],
      "stateMutability": "nonpayable",
      "type": "function"
    },
    {
      "inputs": [
        {
          "internalType": "address",
          "name": "_controller",
          "type": "address"
        }
      ],
      "name": "updateController",
      "outputs": [],
      "stateMutability": "nonpayable",
      "type": "function"
    },
    {
      "inputs": [
        {
          "internalType": "address",
          "name": "_mid",
          "type": "address"
        },
        {
          "internalType": "uint256",
          "name": "_grace",
          "type": "uint256"
        },
        {
          "internalType": "uint256",
          "name": "_window",
          "type": "uint256"
        },
        {
          "internalType": "bytes",
          "name": "_metadata",
          "type": "bytes"
        }
      ],
      "name": "updateMerchantConfig",
      "outputs": [],
      "stateMutability": "nonpayable",
      "type": "function"
    }
  ],
  "bytecode": "0x60a060405234801561001057600080fd5b50604051612d97380380612d978339818101604052810190610032919061029a565b33600073ffffffffffffffffffffffffffffffffffffffff168173ffffffffffffffffffffffffffffffffffffffff16036100a55760006040517f1e4fbdf700000000000000000000000000000000000000000000000000000000815260040161009c91906102fc565b60405180910390fd5b6100b48161017360201b60201c565b508273ffffffffffffffffffffffffffffffffffffffff1660808173ffffffffffffffffffffffffffffffffffffffff168152505081600560006101000a81548173ffffffffffffffffffffffffffffffffffffffff021916908373ffffffffffffffffffffffffffffffffffffffff16021790555080600460006101000a81548173ffffffffffffffffffffffffffffffffffffffff021916908373ffffffffffffffffffffffffffffffffffffffff160217905550505050610317565b60008060009054906101000a900473ffffffffffffffffffffffffffffffffffffffff169050816000806101000a81548173ffffffffffffffffffffffffffffffffffffffff021916908373ffffffffffffffffffffffffffffffffffffffff1602179055508173ffffffffffffffffffffffffffffffffffffffff168173ffffffffffffffffffffffffffffffffffffffff167f8be0079c531659141344cd1fd0a4f28419497f9722a3daafe3b4186f6b6457e060405160405180910390a35050565b600080fd5b600073ffffffffffffffffffffffffffffffffffffffff82169050919050565b60006102678261023c565b9050919050565b6102778161025c565b811461028257600080fd5b50565b6000815190506102948161026e565b92915050565b6000806000606084860312156102b3576102b2610237565b5b60006102c186828701610285565b93505060206102d286828701610285565b92505060406102e386828701610285565b9150509250925092565b6102f68161025c565b82525050565b600060208201905061031160008301846102ed565b92915050565b608051612a4961034e60003960008181610583015281816107d6015281816114bf015281816115e7015261184a0152612a496000f3fe608060405234801561001057600080fd5b50600436106100f55760003560e01c8063876598d611610097578063c05b358511610066578063c05b35851461025e578063c524f9f61461027a578063ddcbbc52146102aa578063f2fde38b146102c6576100f5565b8063876598d6146101c45780638da5cb5b146101e0578063b2734eaf146101fe578063b33840741461022e576100f5565b806347d9abdf116100d357806347d9abdf1461016457806357ccb6a0146101805780636632ba931461019c578063715018a6146101ba576100f5565b806306cb5b66146100fa57806327b0d9dc146101165780633830ae8814610146575b600080fd5b610114600480360381019061010f9190611c45565b6102e2565b005b610130600480360381019061012b9190611ca8565b61032e565b60405161013d9190611cf7565b60405180910390f35b61014e610399565b60405161015b9190611d71565b60405180910390f35b61017e60048036038101906101799190611d8c565b6103bf565b005b61019a60048036038101906101959190611e17565b61090c565b005b6101a4610a61565b6040516101b19190611e78565b60405180910390f35b6101c2610a87565b005b6101de60048036038101906101d99190611ef8565b610a9b565b005b6101e8610df0565b6040516101f59190611cf7565b60405180910390f35b61021860048036038101906102139190611c45565b610e19565b6040516102259190612091565b60405180910390f35b61024860048036038101906102439190611d8c565b610f33565b60405161025591906120c2565b60405180910390f35b61027860048036038101906102739190611c45565b6110ea565b005b610294600480360381019061028f9190611ef8565b611136565b6040516102a19190611cf7565b60405180910390f35b6102c460048036038101906102bf919061221b565b61136a565b005b6102e060048036038101906102db9190611c45565b6119d0565b005b6102ea611a56565b80600460006101000a81548173ffffffffffffffffffffffffffffffffffffffff021916908373ffffffffffffffffffffffffffffffffffffffff16021790555050565b60008083836040516020016103449291906122ad565b6040516020818303038152906040528051906020012090506002600082815260200190815260200160002060009054906101000a900473ffffffffffffffffffffffffffffffffffffffff1691505092915050565b600460009054906101000a900473ffffffffffffffffffffffffffffffffffffffff1681565b8273ffffffffffffffffffffffffffffffffffffffff163373ffffffffffffffffffffffffffffffffffffffff1614610424576040517f82b4290000000000000000000000000000000000000000000000000000000000815260040160405180910390fd5b6000600160008573ffffffffffffffffffffffffffffffffffffffff1673ffffffffffffffffffffffffffffffffffffffff16815260200190815260200160002060405180608001604052908160008201548152602001600182015481526020016002820160009054906101000a900460ff161515151581526020016003820180546104af90612305565b80601f01602080910402602001604051908101604052809291908181526020018280546104db90612305565b80156105285780601f106104fd57610100808354040283529160200191610528565b820191906000526020600020905b81548152906001019060200180831161050b57829003601f168201915b505050505081525050905080604001511580610548575060008160200151145b1561057f576040517f6840319000000000000000000000000000000000000000000000000000000000815260040160405180910390fd5b60007f000000000000000000000000000000000000000000000000000000000000000073ffffffffffffffffffffffffffffffffffffffff16635221c1f0856040518263ffffffff1660e01b81526004016105da9190612336565b602060405180830381865afa1580156105f7573d6000803e3d6000fd5b505050506040513d601f19601f8201168201806040525081019061061b9190612366565b905080610654576040517fa3e4cb5700000000000000000000000000000000000000000000000000000000815260040160405180910390fd5b600085856040516020016106699291906122ad565b60405160208183030381529060405280519060200120905060006002600083815260200190815260200160002060009054906101000a900473ffffffffffffffffffffffffffffffffffffffff169050846002600084815260200190815260200160002060006101000a81548173ffffffffffffffffffffffffffffffffffffffff021916908373ffffffffffffffffffffffffffffffffffffffff160217905550858773ffffffffffffffffffffffffffffffffffffffff167f054d84519acf7f691e1596de791426eff0674b07596b12c82234891d2c2026988784604051610754929190612393565b60405180910390a360008787600067ffffffffffffffff81111561077b5761077a6120dd565b5b6040519080825280602002602001820160405280156107a95781602001602082028036833780820191505090505b506001896040516020016107c195949392919061247a565b604051602081830303815290604052905060007f000000000000000000000000000000000000000000000000000000000000000073ffffffffffffffffffffffffffffffffffffffff166382ef7cf5896040518263ffffffff1660e01b815260040161082d9190612336565b602060405180830381865afa15801561084a573d6000803e3d6000fd5b505050506040513d601f19601f8201168201806040525081019061086e91906124e9565b9050600460009054906101000a900473ffffffffffffffffffffffffffffffffffffffff1673ffffffffffffffffffffffffffffffffffffffff16633d453da48983856040518463ffffffff1660e01b81526004016108cf93929190612560565b600060405180830381600087803b1580156108e957600080fd5b505af11580156108fd573d6000803e3d6000fd5b50505050505050505050505050565b8173ffffffffffffffffffffffffffffffffffffffff163373ffffffffffffffffffffffffffffffffffffffff1614610971576040517f82b4290000000000000000000000000000000000000000000000000000000000815260040160405180910390fd5b6000600160008473ffffffffffffffffffffffffffffffffffffffff1673ffffffffffffffffffffffffffffffffffffffff168152602001908152602001600020905060008160010154036109f2576040517f6840319000000000000000000000000000000000000000000000000000000000815260040160405180910390fd5b818160020160006101000a81548160ff0219169083151502179055508273ffffffffffffffffffffffffffffffffffffffff167f30a45c7f8d59b99f6da52c65ba25fd31c955b18e3955a95a10a3293cda42b70183604051610a5491906120c2565b60405180910390a2505050565b600560009054906101000a900473ffffffffffffffffffffffffffffffffffffffff1681565b610a8f611a56565b610a996000611add565b565b8473ffffffffffffffffffffffffffffffffffffffff163373ffffffffffffffffffffffffffffffffffffffff1614610b00576040517f82b4290000000000000000000000000000000000000000000000000000000000815260040160405180910390fd5b6000600160008773ffffffffffffffffffffffffffffffffffffffff1673ffffffffffffffffffffffffffffffffffffffff16815260200190815260200160002060405180608001604052908160008201548152602001600182015481526020016002820160009054906101000a900460ff16151515158152602001600382018054610b8b90612305565b80601f0160208091040260200160405190810160405280929190818152602001828054610bb790612305565b8015610c045780601f10610bd957610100808354040283529160200191610c04565b820191906000526020600020905b815481529060010190602001808311610be757829003601f168201915b505050505081525050905080604001511580610c24575060008160200151145b15610c5b576040517f6840319000000000000000000000000000000000000000000000000000000000815260040160405180910390fd5b60405180608001604052808681526020016000861480610c7e5750826020015186145b610c885785610c8e565b82602001515b815260200182604001511515815260200184848080601f016020809104026020016040519081016040528093929190818152602001838380828437600081840152601f19601f82011690508083019250505050505050815250600160008873ffffffffffffffffffffffffffffffffffffffff1673ffffffffffffffffffffffffffffffffffffffff168152602001908152602001600020600082015181600001556020820151816001015560408201518160020160006101000a81548160ff0219169083151502179055506060820151816003019081610d6f9190612740565b509050508573ffffffffffffffffffffffffffffffffffffffff167f1e0721ce5ad511fbe5fe9cf8f47e973c0d9aceafd914099246cd7378efe18da1866000871480610dbe5750836020015187145b610dc85786610dce565b83602001515b8686604051610de0949392919061284e565b60405180910390a2505050505050565b60008060009054906101000a900473ffffffffffffffffffffffffffffffffffffffff16905090565b610e21611ba9565b600160008373ffffffffffffffffffffffffffffffffffffffff1673ffffffffffffffffffffffffffffffffffffffff16815260200190815260200160002060405180608001604052908160008201548152602001600182015481526020016002820160009054906101000a900460ff16151515158152602001600382018054610eaa90612305565b80601f0160208091040260200160405190810160405280929190818152602001828054610ed690612305565b8015610f235780601f10610ef857610100808354040283529160200191610f23565b820191906000526020600020905b815481529060010190602001808311610f0657829003601f168201915b5050505050815250509050919050565b600080600160008673ffffffffffffffffffffffffffffffffffffffff1673ffffffffffffffffffffffffffffffffffffffff16815260200190815260200160002060405180608001604052908160008201548152602001600182015481526020016002820160009054906101000a900460ff16151515158152602001600382018054610fbf90612305565b80601f0160208091040260200160405190810160405280929190818152602001828054610feb90612305565b80156110385780601f1061100d57610100808354040283529160200191611038565b820191906000526020600020905b81548152906001019060200180831161101b57829003601f168201915b505050505081525050905080604001511580611058575060008160200151145b1561108f576040517f6840319000000000000000000000000000000000000000000000000000000000815260040160405180910390fd5b60008585856040516020016110a69392919061288e565b6040516020818303038152906040528051906020012090506003600082815260200190815260200160002060009054906101000a900460ff16925050509392505050565b6110f2611a56565b80600560006101000a81548173ffffffffffffffffffffffffffffffffffffffff021916908373ffffffffffffffffffffffffffffffffffffffff16021790555050565b600085600160008273ffffffffffffffffffffffffffffffffffffffff1673ffffffffffffffffffffffffffffffffffffffff16815260200190815260200160002060020160009054906101000a900460ff1680156111d757506000600160008373ffffffffffffffffffffffffffffffffffffffff1673ffffffffffffffffffffffffffffffffffffffff16815260200190815260200160002060010154115b1561120e576040517f0b1d936e00000000000000000000000000000000000000000000000000000000815260040160405180910390fd5b604051806080016040528087815260200186815260200160011515815260200185858080601f016020809104026020016040519081016040528093929190818152602001838380828437600081840152601f19601f82011690508083019250505050505050815250600160008973ffffffffffffffffffffffffffffffffffffffff1673ffffffffffffffffffffffffffffffffffffffff168152602001908152602001600020600082015181600001556020820151816001015560408201518160020160006101000a81548160ff02191690831515021790555060608201518160030190816112fe9190612740565b5090505083836040516113129291906128f5565b60405180910390208773ffffffffffffffffffffffffffffffffffffffff167f27e4621d653f2188d51dcb21fc1d6c5b08a4127e53877d3c0a81b28ceb1ab15e60405160405180910390a38691505095945050505050565b8373ffffffffffffffffffffffffffffffffffffffff163373ffffffffffffffffffffffffffffffffffffffff16146113cf576040517f82b4290000000000000000000000000000000000000000000000000000000000815260040160405180910390fd5b6000600160008673ffffffffffffffffffffffffffffffffffffffff1673ffffffffffffffffffffffffffffffffffffffff16815260200190815260200160002090508060020160009054906101000a900460ff161580611434575060008160010154145b1561146b576040517f6840319000000000000000000000000000000000000000000000000000000000815260040160405180910390fd5b60008351116114af576040517f08c379a00000000000000000000000000000000000000000000000000000000081526004016114a69061296b565b60405180910390fd5b60005b83518110156117b95760007f000000000000000000000000000000000000000000000000000000000000000073ffffffffffffffffffffffffffffffffffffffff16635221c1f0876040518263ffffffff1660e01b81526004016115169190612336565b602060405180830381865afa158015611533573d6000803e3d6000fd5b505050506040513d601f19601f820116820180604052508101906115579190612366565b9050600073ffffffffffffffffffffffffffffffffffffffff168583815181106115845761158361298b565b5b602002602001015173ffffffffffffffffffffffffffffffffffffffff1614806115ac575080155b156115e3576040517fd21eab3700000000000000000000000000000000000000000000000000000000815260040160405180910390fd5b60007f000000000000000000000000000000000000000000000000000000000000000073ffffffffffffffffffffffffffffffffffffffff166375979f79888886815181106116355761163461298b565b5b60200260200101516040518363ffffffff1660e01b815260040161165a9291906129ba565b602060405180830381865afa158015611677573d6000803e3d6000fd5b505050506040513d601f19601f8201168201806040525081019061169b9190612366565b9050600073ffffffffffffffffffffffffffffffffffffffff168684815181106116c8576116c761298b565b5b602002602001015173ffffffffffffffffffffffffffffffffffffffff1614806116f0575080155b15611727576040517f6a17288200000000000000000000000000000000000000000000000000000000815260040160405180910390fd5b6000888888868151811061173e5761173d61298b565b5b60200260200101516040516020016117589392919061288e565b6040516020818303038152906040528051906020012090508561177c57600061177f565b60015b6003600083815260200190815260200160002060006101000a81548160ff02191690831515021790555050505080806001019150506114b2565b50600085856040516020016117cf9291906122ad565b6040516020818303038152906040528051906020012090506000868686866002600087815260200190815260200160002060009054906101000a900473ffffffffffffffffffffffffffffffffffffffff1660405160200161183595949392919061247a565b604051602081830303815290604052905060007f000000000000000000000000000000000000000000000000000000000000000073ffffffffffffffffffffffffffffffffffffffff166382ef7cf5886040518263ffffffff1660e01b81526004016118a19190612336565b602060405180830381865afa1580156118be573d6000803e3d6000fd5b505050506040513d601f19601f820116820180604052508101906118e291906124e9565b9050600460009054906101000a900473ffffffffffffffffffffffffffffffffffffffff1673ffffffffffffffffffffffffffffffffffffffff16633d453da48883856040518463ffffffff1660e01b815260040161194393929190612560565b600060405180830381600087803b15801561195d57600080fd5b505af1158015611971573d6000803e3d6000fd5b50505050868873ffffffffffffffffffffffffffffffffffffffff167fd5bf566134b25c6d34dd9ce13808f7fa809bbce13c96cb712ce0b0bfc7782eec88886040516119be9291906129e3565b60405180910390a35050505050505050565b6119d8611a56565b600073ffffffffffffffffffffffffffffffffffffffff168173ffffffffffffffffffffffffffffffffffffffff1603611a4a5760006040517f1e4fbdf7000000000000000000000000000000000000000000000000000000008152600401611a419190611cf7565b60405180910390fd5b611a5381611add565b50565b611a5e611ba1565b73ffffffffffffffffffffffffffffffffffffffff16611a7c610df0565b73ffffffffffffffffffffffffffffffffffffffff1614611adb57611a9f611ba1565b6040517f118cdaa7000000000000000000000000000000000000000000000000000000008152600401611ad29190611cf7565b60405180910390fd5b565b60008060009054906101000a900473ffffffffffffffffffffffffffffffffffffffff169050816000806101000a81548173ffffffffffffffffffffffffffffffffffffffff021916908373ffffffffffffffffffffffffffffffffffffffff1602179055508173ffffffffffffffffffffffffffffffffffffffff168173ffffffffffffffffffffffffffffffffffffffff167f8be0079c531659141344cd1fd0a4f28419497f9722a3daafe3b4186f6b6457e060405160405180910390a35050565b600033905090565b60405180608001604052806000815260200160008152602001600015158152602001606081525090565b6000604051905090565b600080fd5b600080fd5b600073ffffffffffffffffffffffffffffffffffffffff82169050919050565b6000611c1282611be7565b9050919050565b611c2281611c07565b8114611c2d57600080fd5b50565b600081359050611c3f81611c19565b92915050565b600060208284031215611c5b57611c5a611bdd565b5b6000611c6984828501611c30565b91505092915050565b6000819050919050565b611c8581611c72565b8114611c9057600080fd5b50565b600081359050611ca281611c7c565b92915050565b60008060408385031215611cbf57611cbe611bdd565b5b6000611ccd85828601611c30565b9250506020611cde85828601611c93565b9150509250929050565b611cf181611c07565b82525050565b6000602082019050611d0c6000830184611ce8565b92915050565b6000819050919050565b6000611d37611d32611d2d84611be7565b611d12565b611be7565b9050919050565b6000611d4982611d1c565b9050919050565b6000611d5b82611d3e565b9050919050565b611d6b81611d50565b82525050565b6000602082019050611d866000830184611d62565b92915050565b600080600060608486031215611da557611da4611bdd565b5b6000611db386828701611c30565b9350506020611dc486828701611c93565b9250506040611dd586828701611c30565b9150509250925092565b60008115159050919050565b611df481611ddf565b8114611dff57600080fd5b50565b600081359050611e1181611deb565b92915050565b60008060408385031215611e2e57611e2d611bdd565b5b6000611e3c85828601611c30565b9250506020611e4d85828601611e02565b9150509250929050565b6000611e6282611d3e565b9050919050565b611e7281611e57565b82525050565b6000602082019050611e8d6000830184611e69565b92915050565b600080fd5b600080fd5b600080fd5b60008083601f840112611eb857611eb7611e93565b5b8235905067ffffffffffffffff811115611ed557611ed4611e98565b5b602083019150836001820283011115611ef157611ef0611e9d565b5b9250929050565b600080600080600060808688031215611f1457611f13611bdd565b5b6000611f2288828901611c30565b9550506020611f3388828901611c93565b9450506040611f4488828901611c93565b935050606086013567ffffffffffffffff811115611f6557611f64611be2565b5b611f7188828901611ea2565b92509250509295509295909350565b611f8981611c72565b82525050565b611f9881611ddf565b82525050565b600081519050919050565b600082825260208201905092915050565b60005b83811015611fd8578082015181840152602081019050611fbd565b60008484015250505050565b6000601f19601f8301169050919050565b600061200082611f9e565b61200a8185611fa9565b935061201a818560208601611fba565b61202381611fe4565b840191505092915050565b60006080830160008301516120466000860182611f80565b5060208301516120596020860182611f80565b50604083015161206c6040860182611f8f565b50606083015184820360608601526120848282611ff5565b9150508091505092915050565b600060208201905081810360008301526120ab818461202e565b905092915050565b6120bc81611ddf565b82525050565b60006020820190506120d760008301846120b3565b92915050565b7f4e487b7100000000000000000000000000000000000000000000000000000000600052604160045260246000fd5b61211582611fe4565b810181811067ffffffffffffffff82111715612134576121336120dd565b5b80604052505050565b6000612147611bd3565b9050612153828261210c565b919050565b600067ffffffffffffffff821115612173576121726120dd565b5b602082029050602081019050919050565b600061219761219284612158565b61213d565b905080838252602082019050602084028301858111156121ba576121b9611e9d565b5b835b818110156121e357806121cf8882611c30565b8452602084019350506020810190506121bc565b5050509392505050565b600082601f83011261220257612201611e93565b5b8135612212848260208601612184565b91505092915050565b6000806000806080858703121561223557612234611bdd565b5b600061224387828801611c30565b945050602061225487828801611c93565b935050604085013567ffffffffffffffff81111561227557612274611be2565b5b612281878288016121ed565b925050606061229287828801611e02565b91505092959194509250565b6122a781611c72565b82525050565b60006040820190506122c26000830185611ce8565b6122cf602083018461229e565b9392505050565b7f4e487b7100000000000000000000000000000000000000000000000000000000600052602260045260246000fd5b6000600282049050600182168061231d57607f821691505b6020821081036123305761232f6122d6565b5b50919050565b600060208201905061234b600083018461229e565b92915050565b60008151905061236081611deb565b92915050565b60006020828403121561237c5761237b611bdd565b5b600061238a84828501612351565b91505092915050565b60006040820190506123a86000830185611ce8565b6123b56020830184611ce8565b9392505050565b600081519050919050565b600082825260208201905092915050565b6000819050602082019050919050565b6123f181611c07565b82525050565b600061240383836123e8565b60208301905092915050565b6000602082019050919050565b6000612427826123bc565b61243181856123c7565b935061243c836123d8565b8060005b8381101561246d57815161245488826123f7565b975061245f8361240f565b925050600181019050612440565b5085935050505092915050565b600060a08201905061248f6000830188611ce8565b61249c602083018761229e565b81810360408301526124ae818661241c565b90506124bd60608301856120b3565b6124ca6080830184611ce8565b9695505050505050565b6000815190506124e381611c19565b92915050565b6000602082840312156124ff576124fe611bdd565b5b600061250d848285016124d4565b91505092915050565b600082825260208201905092915050565b600061253282611f9e565b61253c8185612516565b935061254c818560208601611fba565b61255581611fe4565b840191505092915050565b6000606082019050612575600083018661229e565b6125826020830185611ce8565b81810360408301526125948184612527565b9050949350505050565b60008190508160005260206000209050919050565b60006020601f8301049050919050565b600082821b905092915050565b6000600883026126007fffffffffffffffffffffffffffffffffffffffffffffffffffffffffffffffff826125c3565b61260a86836125c3565b95508019841693508086168417925050509392505050565b600061263d61263861263384611c72565b611d12565b611c72565b9050919050565b6000819050919050565b61265783612622565b61266b61266382612644565b8484546125d0565b825550505050565b600090565b612680612673565b61268b81848461264e565b505050565b5b818110156126af576126a4600082612678565b600181019050612691565b5050565b601f8211156126f4576126c58161259e565b6126ce846125b3565b810160208510156126dd578190505b6126f16126e9856125b3565b830182612690565b50505b505050565b600082821c905092915050565b6000612717600019846008026126f9565b1980831691505092915050565b60006127308383612706565b9150826002028217905092915050565b61274982611f9e565b67ffffffffffffffff811115612762576127616120dd565b5b61276c8254612305565b6127778282856126b3565b600060209050601f8311600181146127aa5760008415612798578287015190505b6127a28582612724565b86555061280a565b601f1984166127b88661259e565b60005b828110156127e0578489015182556001820191506020850194506020810190506127bb565b868310156127fd57848901516127f9601f891682612706565b8355505b6001600288020188555050505b505050505050565b82818337600083830152505050565b600061282d8385612516565b935061283a838584612812565b61284383611fe4565b840190509392505050565b6000606082019050612863600083018761229e565b612870602083018661229e565b8181036040830152612883818486612821565b905095945050505050565b60006060820190506128a36000830186611ce8565b6128b0602083018561229e565b6128bd6040830184611ce8565b949350505050565b600081905092915050565b60006128dc83856128c5565b93506128e9838584612812565b82840190509392505050565b60006129028284866128d0565b91508190509392505050565b600082825260208201905092915050565b7f4e6f20746f6b656e73207375626d697474656421000000000000000000000000600082015250565b600061295560148361290e565b91506129608261291f565b602082019050919050565b6000602082019050818103600083015261298481612948565b9050919050565b7f4e487b7100000000000000000000000000000000000000000000000000000000600052603260045260246000fd5b60006040820190506129cf600083018561229e565b6129dc6020830184611ce8565b9392505050565b600060408201905081810360008301526129fd818561241c565b9050612a0c60208301846120b3565b939250505056fea2646970667358221220ace18aa1e146297fbf8ca84f203d01910a7d218fc85edc869f746c22b4d007d264736f6c634300081c0033",
  "linkReferences": {},
  "deployedLinkReferences": {}
}