{
  "_format": "hh-sol-artifact-1",
  "contractName": "PlanRegistry",
  "sourceName": "contracts/PlanRegistry.sol",
  "abi": [
    {
      "inputs": [
        {
          "internalType": "address",
          "name": "_merchant",
          "type": "address"
        }
      ],
      "stateMutability": "nonpayable",
      "type": "constructor"
    },
    {
      "inputs": [],
      "name": "InvalidPlanParameter",
      "type": "error"
    },
    {
      "inputs": [],
      "name": "MissingMerchant",
      "type": "error"
    },
    {
      "inputs": [],
      "name": "Unauthorized",
      "type": "error"
    },
    {
      "anonymous": false,
      "inputs": [
        {
          "indexed": true,
          "internalType": "uint256",
          "name": "planId",
          "type": "uint256"
        },
        {
          "indexed": true,
          "internalType": "address",
          "name": "merchantId",
          "type": "address"
        },
        {
          "indexed": false,
          "internalType": "uint256",
          "name": "price",
          "type": "uint256"
        },
        {
          "indexed": false,
          "internalType": "bytes",
          "name": "metadata",
          "type": "bytes"
        }
      ],
      "name": "PlanCreated",
      "type": "event"
    },
    {
      "anonymous": false,
      "inputs": [
        {
          "indexed": true,
          "internalType": "uint256",
          "name": "planId",
          "type": "uint256"
        },
        {
          "indexed": false,
          "internalType": "uint256",
          "name": "price",
          "type": "uint256"
        },
        {
          "indexed": false,
          "internalType": "uint256",
          "name": "grace",
          "type": "uint256"
        },
        {
          "indexed": false,
          "internalType": "bool",
          "name": "active",
          "type": "bool"
        }
      ],
      "name": "PlanUpdated",
      "type": "event"
    },
    {
      "inputs": [
        {
          "internalType": "uint256",
          "name": "_price",
          "type": "uint256"
        },
        {
          "internalType": "uint256",
          "name": "_interval",
          "type": "uint256"
        },
        {
          "internalType": "uint256",
          "name": "_grace",
          "type": "uint256"
        },
        {
          "internalType": "bytes",
          "name": "_metadata",
          "type": "bytes"
        }
      ],
      "name": "createPlan",
      "outputs": [
        {
          "internalType": "uint256",
          "name": "_pid",
          "type": "uint256"
        }
      ],
      "stateMutability": "nonpayable",
      "type": "function"
    },
    {
      "inputs": [
        {
          "internalType": "uint256",
          "name": "_pid",
          "type": "uint256"
        }
      ],
      "name": "getPlan",
      "outputs": [
        {
          "components": [
            {
              "internalType": "address",
              "name": "merchantId",
              "type": "address"
            },
            {
              "internalType": "uint256",
              "name": "price",
              "type": "uint256"
            },
            {
              "internalType": "uint256",
              "name": "interval",
              "type": "uint256"
            },
            {
              "internalType": "uint256",
              "name": "grace",
              "type": "uint256"
            },
            {
              "internalType": "bool",
              "name": "active",
              "type": "bool"
            },
            {
              "internalType": "bytes32",
              "name": "metadata",
              "type": "bytes32"
            }
          ],
          "internalType": "struct Plan",
          "name": "",
          "type": "tuple"
        }
      ],
      "stateMutability": "view",
      "type": "function"
    },
    {
      "inputs": [],
      "name": "merchantReg",
      "outputs": [
        {
          "internalType": "contract IMerchantRegistry",
          "name": "",
          "type": "address"
        }
      ],
      "stateMutability": "view",
      "type": "function"
    },
    {
      "inputs": [],
      "name": "nextPlanId",
      "outputs": [
        {
          "internalType": "uint256",
          "name": "",
          "type": "uint256"
        }
      ],
      "stateMutability": "view",
      "type": "function"
    },
    {
      "inputs": [
        {
          "internalType": "uint256",
          "name": "_pid",
          "type": "uint256"
        },
        {
          "internalType": "bool",
          "name": "_active",
          "type": "bool"
        }
      ],
      "name": "setPlanStatus",
      "outputs": [],
      "stateMutability": "nonpayable",
      "type": "function"
    },
    {
      "inputs": [
        {
          "internalType": "uint256",
          "name": "_pid",
          "type": "uint256"
        },
        {
          "internalType": "uint256",
          "name": "_price",
          "type": "uint256"
        },
        {
          "internalType": "uint256",
          "name": "_grace",
          "type": "uint256"
        }
      ],
      "name": "updatePlan",
      "outputs": [],
      "stateMutability": "nonpayable",
      "type": "function"
    }
  ],
  "bytecode": "0x608060405234801561001057600080fd5b5060405161112d38038061112d833981810160405281019061003291906100e4565b600160008190555080600260006101000a81548173ffffffffffffffffffffffffffffffffffffffff021916908373ffffffffffffffffffffffffffffffffffffffff16021790555050610111565b600080fd5b600073ffffffffffffffffffffffffffffffffffffffff82169050919050565b60006100b182610086565b9050919050565b6100c1816100a6565b81146100cc57600080fd5b50565b6000815190506100de816100b8565b92915050565b6000602082840312156100fa576100f9610081565b5b6000610108848285016100cf565b91505092915050565b61100d806101206000396000f3fe608060405234801561001057600080fd5b50600436106100625760003560e01c806326cd527414610067578063568970d2146100975780635f8d26b2146100b357806363d83e25146100d157806386a7014714610101578063fd649f9e1461011f575b600080fd5b610081600480360381019061007c9190610838565b61013b565b60405161008e9190610964565b60405180910390f35b6100b160048036038101906100ac919061097f565b610201565b005b6100bb6103b3565b6040516100c891906109e1565b60405180910390f35b6100eb60048036038101906100e69190610a61565b6103b9565b6040516100f891906109e1565b60405180910390f35b610109610672565b6040516101169190610b48565b60405180910390f35b61013960048036038101906101349190610b8f565b610698565b005b61014361079d565b600160008381526020019081526020016000206040518060c00160405290816000820160009054906101000a900473ffffffffffffffffffffffffffffffffffffffff1673ffffffffffffffffffffffffffffffffffffffff1673ffffffffffffffffffffffffffffffffffffffff1681526020016001820154815260200160028201548152602001600382015481526020016004820160009054906101000a900460ff161515151581526020016005820154815250509050919050565b60006001600085815260200190815260200160002090508060000160009054906101000a900473ffffffffffffffffffffffffffffffffffffffff1673ffffffffffffffffffffffffffffffffffffffff163373ffffffffffffffffffffffffffffffffffffffff16146102a1576040517f82b4290000000000000000000000000000000000000000000000000000000000815260040160405180910390fd5b600073ffffffffffffffffffffffffffffffffffffffff168160000160009054906101000a900473ffffffffffffffffffffffffffffffffffffffff1673ffffffffffffffffffffffffffffffffffffffff161480610304575060008160010154145b1561033b576040517f6389fc7900000000000000000000000000000000000000000000000000000000815260040160405180910390fd5b60008314610349578261034f565b80600101545b8160010181905550818160030181905550837f7b0ef22373aefc96be3b02eb3e299426f268fcba0993f2e87879f13c733ce8a484848460040160009054906101000a900460ff166040516103a593929190610bde565b60405180910390a250505050565b60005481565b600080600260009054906101000a900473ffffffffffffffffffffffffffffffffffffffff1673ffffffffffffffffffffffffffffffffffffffff1663b2734eaf336040518263ffffffff1660e01b81526004016104179190610c24565b600060405180830381865afa158015610434573d6000803e3d6000fd5b505050506040513d6000823e3d601f19601f8201168201806040525081019061045d9190610e63565b905060008160200151148061047457508060400151155b156104ab576040517f6840319000000000000000000000000000000000000000000000000000000000815260040160405180910390fd5b60008714806104be575080602001518611155b156104f5576040517f6389fc7900000000000000000000000000000000000000000000000000000000815260040160405180910390fd5b60005491506040518060c001604052803373ffffffffffffffffffffffffffffffffffffffff168152602001888152602001878152602001868152602001600115158152602001858560405161054c929190610eeb565b60405180910390208152506001600084815260200190815260200160002060008201518160000160006101000a81548173ffffffffffffffffffffffffffffffffffffffff021916908373ffffffffffffffffffffffffffffffffffffffff16021790555060208201518160010155604082015181600201556060820151816003015560808201518160040160006101000a81548160ff02191690831515021790555060a08201518160050155905050600160008082825461060e9190610f33565b925050819055503373ffffffffffffffffffffffffffffffffffffffff16827f3790d2272c31cdfa0b95d812fb5a44dc21f1d3eaf0cce707acb5c92fed34e4c089878760405161066093929190610fa5565b60405180910390a35095945050505050565b600260009054906101000a900473ffffffffffffffffffffffffffffffffffffffff1681565b60006001600084815260200190815260200160002090508060000160009054906101000a900473ffffffffffffffffffffffffffffffffffffffff1673ffffffffffffffffffffffffffffffffffffffff163373ffffffffffffffffffffffffffffffffffffffff1614610738576040517f82b4290000000000000000000000000000000000000000000000000000000000815260040160405180910390fd5b818160040160006101000a81548160ff021916908315150217905550827f7b0ef22373aefc96be3b02eb3e299426f268fcba0993f2e87879f13c733ce8a4826001015483600301548560405161079093929190610bde565b60405180910390a2505050565b6040518060c00160405280600073ffffffffffffffffffffffffffffffffffffffff168152602001600081526020016000815260200160008152602001600015158152602001600080191681525090565b6000604051905090565b600080fd5b600080fd5b6000819050919050565b61081581610802565b811461082057600080fd5b50565b6000813590506108328161080c565b92915050565b60006020828403121561084e5761084d6107f8565b5b600061085c84828501610823565b91505092915050565b600073ffffffffffffffffffffffffffffffffffffffff82169050919050565b600061089082610865565b9050919050565b6108a081610885565b82525050565b6108af81610802565b82525050565b60008115159050919050565b6108ca816108b5565b82525050565b6000819050919050565b6108e3816108d0565b82525050565b60c0820160008201516108ff6000850182610897565b50602082015161091260208501826108a6565b50604082015161092560408501826108a6565b50606082015161093860608501826108a6565b50608082015161094b60808501826108c1565b5060a082015161095e60a08501826108da565b50505050565b600060c08201905061097960008301846108e9565b92915050565b600080600060608486031215610998576109976107f8565b5b60006109a686828701610823565b93505060206109b786828701610823565b92505060406109c886828701610823565b9150509250925092565b6109db81610802565b82525050565b60006020820190506109f660008301846109d2565b92915050565b600080fd5b600080fd5b600080fd5b60008083601f840112610a2157610a206109fc565b5b8235905067ffffffffffffffff811115610a3e57610a3d610a01565b5b602083019150836001820283011115610a5a57610a59610a06565b5b9250929050565b600080600080600060808688031215610a7d57610a7c6107f8565b5b6000610a8b88828901610823565b9550506020610a9c88828901610823565b9450506040610aad88828901610823565b935050606086013567ffffffffffffffff811115610ace57610acd6107fd565b5b610ada88828901610a0b565b92509250509295509295909350565b6000819050919050565b6000610b0e610b09610b0484610865565b610ae9565b610865565b9050919050565b6000610b2082610af3565b9050919050565b6000610b3282610b15565b9050919050565b610b4281610b27565b82525050565b6000602082019050610b5d6000830184610b39565b92915050565b610b6c816108b5565b8114610b7757600080fd5b50565b600081359050610b8981610b63565b92915050565b60008060408385031215610ba657610ba56107f8565b5b6000610bb485828601610823565b9250506020610bc585828601610b7a565b9150509250929050565b610bd8816108b5565b82525050565b6000606082019050610bf360008301866109d2565b610c0060208301856109d2565b610c0d6040830184610bcf565b949350505050565b610c1e81610885565b82525050565b6000602082019050610c396000830184610c15565b92915050565b600080fd5b6000601f19601f8301169050919050565b7f4e487b7100000000000000000000000000000000000000000000000000000000600052604160045260246000fd5b610c8d82610c44565b810181811067ffffffffffffffff82111715610cac57610cab610c55565b5b80604052505050565b6000610cbf6107ee565b9050610ccb8282610c84565b919050565b600080fd5b600081519050610ce48161080c565b92915050565b600081519050610cf981610b63565b92915050565b600080fd5b600067ffffffffffffffff821115610d1f57610d1e610c55565b5b610d2882610c44565b9050602081019050919050565b60005b83811015610d53578082015181840152602081019050610d38565b60008484015250505050565b6000610d72610d6d84610d04565b610cb5565b905082815260208101848484011115610d8e57610d8d610cff565b5b610d99848285610d35565b509392505050565b600082601f830112610db657610db56109fc565b5b8151610dc6848260208601610d5f565b91505092915050565b600060808284031215610de557610de4610c3f565b5b610def6080610cb5565b90506000610dff84828501610cd5565b6000830152506020610e1384828501610cd5565b6020830152506040610e2784828501610cea565b604083015250606082015167ffffffffffffffff811115610e4b57610e4a610cd0565b5b610e5784828501610da1565b60608301525092915050565b600060208284031215610e7957610e786107f8565b5b600082015167ffffffffffffffff811115610e9757610e966107fd565b5b610ea384828501610dcf565b91505092915050565b600081905092915050565b82818337600083830152505050565b6000610ed28385610eac565b9350610edf838584610eb7565b82840190509392505050565b6000610ef8828486610ec6565b91508190509392505050565b7f4e487b7100000000000000000000000000000000000000000000000000000000600052601160045260246000fd5b6000610f3e82610802565b9150610f4983610802565b9250828201905080821115610f6157610f60610f04565b5b92915050565b600082825260208201905092915050565b6000610f848385610f67565b9350610f91838584610eb7565b610f9a83610c44565b840190509392505050565b6000604082019050610fba60008301866109d2565b8181036020830152610fcd818486610f78565b905094935050505056fea2646970667358221220eba6a57ee4d504413fde1bd8010292ad7d1b89aeaec8c91a6d6bf8675bc88a8964736f6c634300081c0033",
  "linkReferences": {},
  "deployedLinkReferences": {}
}