{
  "_format": "hh-sol-artifact-1",
  "contractName": "SubscriptionManager",
  "sourceName": "contracts/SubscriptionManager.sol",
  "abi": [
    {
      "inputs": [
        {
          "internalType": "address",
          "name": "_merchant",
          "type": "address"
        },
        {
          "internalType": "address",
          "name": "_planReg",
          "type": "address"
        },
        {
          "internalType": "address",
          "name": "_controller",
          "type": "address"
        },
        {
          "internalType": "address",
          "name": "_chain",
          "type": "address"
        }
      ],
      "stateMutability": "nonpayable",
      "type": "constructor"
    },
    {
      "inputs": [],
      "name": "MerchantNotActive",
      "type": "error"
    },
    {
      "inputs": [],
      "name": "NotSubscriber",
      "type": "error"
    },
    {
      "inputs": [
        {
          "internalType": "address",
          "name": "owner",
          "type": "address"
        }
      ],
      "name": "OwnableInvalidOwner",
      "type": "error"
    },
    {
      "inputs": [
        {
          "internalType": "address",
          "name": "account",
          "type": "address"
        }
      ],
      "name": "OwnableUnauthorizedAccount",
      "type": "error"
    },
    {
      "inputs": [],
      "name": "PlanNotActive",
      "type": "error"
    },
    {
      "inputs": [],
      "name": "SubscriptionCancelled",
      "type": "error"
    },
    {
      "inputs": [],
      "name": "SubscriptionMissing",
      "type": "error"
    },
    {
      "inputs": [],
      "name": "UnregisteredChain",
      "type": "error"
    },
    {
      "anonymous": false,
      "inputs": [
        {
          "indexed": true,
          "internalType": "address",
          "name": "previousOwner",
          "type": "address"
        },
        {
          "indexed": true,
          "internalType": "address",
          "name": "newOwner",
          "type": "address"
        }
      ],
      "name": "OwnershipTransferred",
      "type": "event"
    },
    {
      "anonymous": false,
      "inputs": [
        {
          "indexed": true,
          "internalType": "uint256",
          "name": "subId",
          "type": "uint256"
        },
        {
          "indexed": false,
          "internalType": "address",
          "name": "subscriber",
          "type": "address"
        },
        {
          "indexed": false,
          "internalType": "uint256",
          "name": "planId",
          "type": "uint256"
        }
      ],
      "name": "Subscribed",
      "type": "event"
    },
    {
      "anonymous": false,
      "inputs": [
        {
          "indexed": true,
          "internalType": "uint256",
          "name": "subscriptionId",
          "type": "uint256"
        },
        {
          "indexed": false,
          "internalType": "uint256",
          "name": "billingCycle",
          "type": "uint256"
        },
        {
          "indexed": false,
          "internalType": "uint256",
          "name": "_nextCharge",
          "type": "uint256"
        }
      ],
      "name": "SubscriptionPaid",
      "type": "event"
    },
    {
      "anonymous": false,
      "inputs": [
        {
          "indexed": true,
          "internalType": "uint256",
          "name": "subscriptionId",
          "type": "uint256"
        },
        {
          "indexed": false,
          "internalType": "enum Status",
          "name": "status",
          "type": "uint8"
        },
        {
          "indexed": false,
          "internalType": "address",
          "name": "by",
          "type": "address"
        }
      ],
      "name": "SubscriptionUpdated",
      "type": "event"
    },
    {
      "inputs": [
        {
          "internalType": "uint256",
          "name": "_subId",
          "type": "uint256"
        }
      ],
      "name": "cancel",
      "outputs": [],
      "stateMutability": "nonpayable",
      "type": "function"
    },
    {
      "inputs": [
        {
          "internalType": "uint256",
          "name": "_subId",
          "type": "uint256"
        },
        {
          "internalType": "uint256",
          "name": "_cycle",
          "type": "uint256"
        }
      ],
      "name": "confirmCharge",
      "outputs": [],
      "stateMutability": "nonpayable",
      "type": "function"
    },
    {
      "inputs": [
        {
          "internalType": "uint256",
          "name": "_subId",
          "type": "uint256"
        },
        {
          "internalType": "uint256",
          "name": "_cycle",
          "type": "uint256"
        }
      ],
      "name": "confirmPayment",
      "outputs": [
        {
          "internalType": "bool",
          "name": "_paid",
          "type": "bool"
        }
      ],
      "stateMutability": "view",
      "type": "function"
    },
    {
      "inputs": [
        {
          "internalType": "uint256",
          "name": "_subId",
          "type": "uint256"
        }
      ],
      "name": "getSubscription",
      "outputs": [
        {
          "components": [
            {
              "internalType": "uint256",
              "name": "planId",
              "type": "uint256"
            },
            {
              "internalType": "address",
              "name": "subscriber",
              "type": "address"
            },
            {
              "internalType": "uint256",
              "name": "startTime",
              "type": "uint256"
            },
            {
              "internalType": "uint256",
              "name": "nextChargeAt",
              "type": "uint256"
            },
            {
              "internalType": "uint256",
              "name": "billingCycle",
              "type": "uint256"
            },
            {
              "internalType": "enum Status",
              "name": "status",
              "type": "uint8"
            }
          ],
          "internalType": "struct Subscription",
          "name": "",
          "type": "tuple"
        }
      ],
      "stateMutability": "view",
      "type": "function"
    },
    {
      "inputs": [
        {
          "internalType": "uint256",
          "name": "_subId",
          "type": "uint256"
        }
      ],
      "name": "isChargeAllowed",
      "outputs": [
        {
          "internalType": "bool",
          "name": "",
          "type": "bool"
        }
      ],
      "stateMutability": "view",
      "type": "function"
    },
    {
      "inputs": [
        {
          "internalType": "uint256",
          "name": "_subId",
          "type": "uint256"
        }
      ],
      "name": "isChargeAllowedMut",
      "outputs": [
        {
          "internalType": "bool",
          "name": "",
          "type": "bool"
        }
      ],
      "stateMutability": "nonpayable",
      "type": "function"
    },
    {
      "inputs": [],
      "name": "owner",
      "outputs": [
        {
          "internalType": "address",
          "name": "",
          "type": "address"
        }
      ],
      "stateMutability": "view",
      "type": "function"
    },
    {
      "inputs": [],
      "name": "renounceOwnership",
      "outputs": [],
      "stateMutability": "nonpayable",
      "type": "function"
    },
    {
      "inputs": [
        {
          "internalType": "uint256",
          "name": "_subId",
          "type": "uint256"
        },
        {
          "internalType": "uint256",
          "name": "_cid",
          "type": "uint256"
        },
        {
          "internalType": "address",
          "name": "_token",
          "type": "address"
        }
      ],
      "name": "requestCharge",
      "outputs": [],
      "stateMutability": "nonpayable",
      "type": "function"
    },
    {
      "inputs": [
        {
          "internalType": "uint256",
          "name": "_pId",
          "type": "uint256"
        }
      ],
      "name": "subscribe",
      "outputs": [
        {
          "internalType": "uint256",
          "name": "_nextSubId",
          "type": "uint256"
        }
      ],
      "stateMutability": "nonpayable",
      "type": "function"
    },
    {
      "inputs": [
        {
          "internalType": "address",
          "name": "newOwner",
          "type": "address"
        }
      ],
      "name": "transferOwnership",
      "outputs": [],
      "stateMutability": "nonpayable",
      "type": "function"
    },
    {
      "inputs": [
        {
          "internalType": "address",
          "name": "_controller",
          "type": "address"
        }
      ],
      "name": "updateController",
      "outputs": [],
      "stateMutability": "nonpayable",
      "type": "function"
    },
    {
      "inputs": [
        {
          "internalType": "address",
          "name": "_merchant",
          "type": "address"
        }
      ],
      "name": "updateMerchantRegistry",
      "outputs": [],
      "stateMutability": "nonpayable",
      "type": "function"
    },
    {
      "inputs": [
        {
          "internalType": "address",
          "name": "_plan",
          "type": "address"
        }
      ],
      "name": "updatePlanRegistry",
      "outputs": [],
      "stateMutability": "nonpayable",
      "type": "function"
    }
  ],
  "bytecode": "0x608060405234801561001057600080fd5b50604051612ce1380380612ce1833981810160405281019061003291906102f1565b33600073ffffffffffffffffffffffffffffffffffffffff168173ffffffffffffffffffffffffffffffffffffffff16036100a55760006040517f1e4fbdf700000000000000000000000000000000000000000000000000000000815260040161009c9190610367565b60405180910390fd5b6100b4816101ca60201b60201c565b5083600160006101000a81548173ffffffffffffffffffffffffffffffffffffffff021916908373ffffffffffffffffffffffffffffffffffffffff16021790555082600260006101000a81548173ffffffffffffffffffffffffffffffffffffffff021916908373ffffffffffffffffffffffffffffffffffffffff16021790555081600360006101000a81548173ffffffffffffffffffffffffffffffffffffffff021916908373ffffffffffffffffffffffffffffffffffffffff16021790555080600460006101000a81548173ffffffffffffffffffffffffffffffffffffffff021916908373ffffffffffffffffffffffffffffffffffffffff160217905550600160058190555050505050610382565b60008060009054906101000a900473ffffffffffffffffffffffffffffffffffffffff169050816000806101000a81548173ffffffffffffffffffffffffffffffffffffffff021916908373ffffffffffffffffffffffffffffffffffffffff1602179055508173ffffffffffffffffffffffffffffffffffffffff168173ffffffffffffffffffffffffffffffffffffffff167f8be0079c531659141344cd1fd0a4f28419497f9722a3daafe3b4186f6b6457e060405160405180910390a35050565b600080fd5b600073ffffffffffffffffffffffffffffffffffffffff82169050919050565b60006102be82610293565b9050919050565b6102ce816102b3565b81146102d957600080fd5b50565b6000815190506102eb816102c5565b92915050565b6000806000806080858703121561030b5761030a61028e565b5b6000610319878288016102dc565b945050602061032a878288016102dc565b935050604061033b878288016102dc565b925050606061034c878288016102dc565b91505092959194509250565b610361816102b3565b82525050565b600060208201905061037c6000830184610358565b92915050565b612950806103916000396000f3fe608060405234801561001057600080fd5b50600436106100ea5760003560e01c80637710049c1161008c578063aec50b5211610066578063aec50b5214610247578063d7666ac114610263578063dc311dd31461027f578063f2fde38b146102af576100ea565b80637710049c146101dd57806385625ac31461020d5780638da5cb5b14610229576100ea565b806338358149116100c8578063383581491461016b57806340e58ee51461019b5780636ca88864146101b7578063715018a6146101d3576100ea565b806306cb5b66146100ef5780630f574ba71461010b57806320d6a2171461013b575b600080fd5b61010960048036038101906101049190611dce565b6102cb565b005b61012560048036038101906101209190611e31565b610317565b6040516101329190611e6d565b60405180910390f35b61015560048036038101906101509190611e31565b610652565b6040516101629190611ea3565b60405180910390f35b61018560048036038101906101809190611ebe565b610ad2565b6040516101929190611ea3565b60405180910390f35b6101b560048036038101906101b09190611e31565b610c3f565b005b6101d160048036038101906101cc9190611dce565b610d50565b005b6101db610d9c565b005b6101f760048036038101906101f29190611e31565b610db0565b6040516102049190611ea3565b60405180910390f35b61022760048036038101906102229190611dce565b61104a565b005b610231611096565b60405161023e9190611f0d565b60405180910390f35b610261600480360381019061025c9190611f28565b6110bf565b005b61027d60048036038101906102789190611ebe565b6116bb565b005b61029960048036038101906102949190611e31565b6119b8565b6040516102a6919061208b565b60405180910390f35b6102c960048036038101906102c49190611dce565b611b25565b005b6102d3611bab565b80600360006101000a81548173ffffffffffffffffffffffffffffffffffffffff021916908373ffffffffffffffffffffffffffffffffffffffff16021790555050565b600080600260009054906101000a900473ffffffffffffffffffffffffffffffffffffffff1673ffffffffffffffffffffffffffffffffffffffff166326cd5274846040518263ffffffff1660e01b81526004016103759190611e6d565b60c060405180830381865afa158015610392573d6000803e3d6000fd5b505050506040513d601f19601f820116820180604052508101906103b69190612268565b905080608001516103f3576040517ffeb7c32300000000000000000000000000000000000000000000000000000000815260040160405180910390fd5b6000600160009054906101000a900473ffffffffffffffffffffffffffffffffffffffff1673ffffffffffffffffffffffffffffffffffffffff1663b2734eaf83600001516040518263ffffffff1660e01b81526004016104549190611f0d565b600060405180830381865afa158015610471573d6000803e3d6000fd5b505050506040513d6000823e3d601f19601f8201168201806040525081019061049a91906123fe565b905080604001516104d7576040517f2f34e15600000000000000000000000000000000000000000000000000000000815260040160405180910390fd5b60055492506040518060c001604052808581526020013373ffffffffffffffffffffffffffffffffffffffff16815260200142815260200183604001514261051f9190612476565b8152602001600181526020016001600381111561053f5761053e611f99565b5b815250600660008581526020019081526020016000206000820151816000015560208201518160010160006101000a81548173ffffffffffffffffffffffffffffffffffffffff021916908373ffffffffffffffffffffffffffffffffffffffff16021790555060408201518160020155606082015181600301556080820151816004015560a08201518160050160006101000a81548160ff021916908360038111156105ef576105ee611f99565b5b021790555090505060016005600082825461060a9190612476565b92505081905550827fad24110dc4e3726555debcc81d3781cc9bc21a42b15c56fd9c90177a1a10071733866040516106439291906124aa565b60405180910390a25050919050565b6000806006600084815260200190815260200160002090506000816000015414806106b257506000600381111561068c5761068b611f99565b5b8160050160009054906101000a900460ff1660038111156106b0576106af611f99565b5b145b8061070d5750600073ffffffffffffffffffffffffffffffffffffffff168160010160009054906101000a900473ffffffffffffffffffffffffffffffffffffffff1673ffffffffffffffffffffffffffffffffffffffff16145b15610744576040517f2d9289e000000000000000000000000000000000000000000000000000000000815260040160405180910390fd5b60038081111561075757610756611f99565b5b8160050160009054906101000a900460ff16600381111561077b5761077a611f99565b5b036107b2576040517f80c1e50a00000000000000000000000000000000000000000000000000000000815260040160405180910390fd5b6000600260009054906101000a900473ffffffffffffffffffffffffffffffffffffffff1673ffffffffffffffffffffffffffffffffffffffff166326cd527483600001546040518263ffffffff1660e01b81526004016108139190611e6d565b60c060405180830381865afa158015610830573d6000803e3d6000fd5b505050506040513d601f19601f820116820180604052508101906108549190612268565b90508060800151610891576040517ffeb7c32300000000000000000000000000000000000000000000000000000000815260040160405180910390fd5b6000600160009054906101000a900473ffffffffffffffffffffffffffffffffffffffff1673ffffffffffffffffffffffffffffffffffffffff1663b2734eaf83600001516040518263ffffffff1660e01b81526004016108f29190611f0d565b600060405180830381865afa15801561090f573d6000803e3d6000fd5b505050506040513d6000823e3d601f19601f8201168201806040525081019061093891906123fe565b90508060400151610975576040517f2f34e15600000000000000000000000000000000000000000000000000000000815260040160405180910390fd5b60008083606001511161098c578160000151610992565b82606001515b90508084600301546109a49190612476565b4211156109dd5760038460050160006101000a81548160ff021916908360038111156109d3576109d2611f99565b5b0217905550610a17565b83600301544210610a165760028460050160006101000a81548160ff02191690836003811115610a1057610a0f611f99565b5b02179055505b5b857f972d8f8ae817151e972c612542839791c113920309941c3028b87da58d6bb9b58560050160009054906101000a900460ff1633604051610a5a9291906124e2565b60405180910390a260008260200151856003015411610a7a576000610a8f565b82602001518560030154610a8e919061250b565b5b9050804210158015610ab05750818560030154610aac9190612476565b4211155b15610ac357600195505050505050610acd565b6000955050505050505b919050565b600080600660008581526020019081526020016000206040518060c0016040529081600082015481526020016001820160009054906101000a900473ffffffffffffffffffffffffffffffffffffffff1673ffffffffffffffffffffffffffffffffffffffff1673ffffffffffffffffffffffffffffffffffffffff1681526020016002820154815260200160038201548152602001600482015481526020016005820160009054906101000a900460ff166003811115610b9657610b95611f99565b5b6003811115610ba857610ba7611f99565b5b815250509050600081600001511480610be9575060006003811115610bd057610bcf611f99565b5b8160a001516003811115610be757610be6611f99565b5b145b80610bf8575060008160800151145b15610c2f576040517f2d9289e000000000000000000000000000000000000000000000000000000000815260040160405180910390fd5b8281608001511191505092915050565b60006006600083815260200190815260200160002090508060010160009054906101000a900473ffffffffffffffffffffffffffffffffffffffff1673ffffffffffffffffffffffffffffffffffffffff163373ffffffffffffffffffffffffffffffffffffffff1603610d1a5760038160050160006101000a81548160ff02191690836003811115610cd557610cd4611f99565b5b0217905550817f972d8f8ae817151e972c612542839791c113920309941c3028b87da58d6bb9b5600333604051610d0d9291906124e2565b60405180910390a2610d4c565b6040517f4a396e0200000000000000000000000000000000000000000000000000000000815260040160405180910390fd5b5050565b610d58611bab565b80600260006101000a81548173ffffffffffffffffffffffffffffffffffffffff021916908373ffffffffffffffffffffffffffffffffffffffff16021790555050565b610da4611bab565b610dae6000611c32565b565b600080600660008481526020019081526020016000206040518060c0016040529081600082015481526020016001820160009054906101000a900473ffffffffffffffffffffffffffffffffffffffff1673ffffffffffffffffffffffffffffffffffffffff1673ffffffffffffffffffffffffffffffffffffffff1681526020016002820154815260200160038201548152602001600482015481526020016005820160009054906101000a900460ff166003811115610e7457610e73611f99565b5b6003811115610e8657610e85611f99565b5b8152505090506000600260009054906101000a900473ffffffffffffffffffffffffffffffffffffffff1673ffffffffffffffffffffffffffffffffffffffff166326cd527483600001516040518263ffffffff1660e01b8152600401610eed9190611e6d565b60c060405180830381865afa158015610f0a573d6000803e3d6000fd5b505050506040513d601f19601f82011682018060405250810190610f2e9190612268565b90506000600160009054906101000a900473ffffffffffffffffffffffffffffffffffffffff1673ffffffffffffffffffffffffffffffffffffffff1663b2734eaf83600001516040518263ffffffff1660e01b8152600401610f919190611f0d565b600060405180830381865afa158015610fae573d6000803e3d6000fd5b505050506040513d6000823e3d601f19601f82011682018060405250810190610fd791906123fe565b9050600080836060015111610ff0578160000151610ff6565b82606001515b90508160200151846060015161100c919061250b565b421015801561102a57508084606001516110269190612476565b4211155b1561103c576001945050505050611045565b60009450505050505b919050565b611052611bab565b80600160006101000a81548173ffffffffffffffffffffffffffffffffffffffff021916908373ffffffffffffffffffffffffffffffffffffffff16021790555050565b60008060009054906101000a900473ffffffffffffffffffffffffffffffffffffffff16905090565b600460009054906101000a900473ffffffffffffffffffffffffffffffffffffffff1673ffffffffffffffffffffffffffffffffffffffff16635221c1f0836040518263ffffffff1660e01b815260040161111a9190611e6d565b602060405180830381865afa158015611137573d6000803e3d6000fd5b505050506040513d601f19601f8201168201806040525081019061115b919061253f565b611191576040517fa3e4cb5700000000000000000000000000000000000000000000000000000000815260040160405180910390fd5b6000600460009054906101000a900473ffffffffffffffffffffffffffffffffffffffff1673ffffffffffffffffffffffffffffffffffffffff166382ef7cf5846040518263ffffffff1660e01b81526004016111ee9190611e6d565b602060405180830381865afa15801561120b573d6000803e3d6000fd5b505050506040513d601f19601f8201168201806040525081019061122f919061256c565b9050600073ffffffffffffffffffffffffffffffffffffffff168173ffffffffffffffffffffffffffffffffffffffff16036112a0576040517f08c379a0000000000000000000000000000000000000000000000000000000008152600401611297906125f6565b60405180910390fd5b600460009054906101000a900473ffffffffffffffffffffffffffffffffffffffff1673ffffffffffffffffffffffffffffffffffffffff166375979f7984846040518363ffffffff1660e01b81526004016112fd929190612616565b602060405180830381865afa15801561131a573d6000803e3d6000fd5b505050506040513d601f19601f8201168201806040525081019061133e919061253f565b611374576040517fa3e4cb5700000000000000000000000000000000000000000000000000000000815260040160405180910390fd5b600060066000868152602001908152602001600020905061139485610db0565b6113d3576040517f08c379a00000000000000000000000000000000000000000000000000000000081526004016113ca9061268b565b60405180910390fd5b6003808111156113e6576113e5611f99565b5b8160050160009054906101000a900460ff16600381111561140a57611409611f99565b5b0361144a576040517f08c379a0000000000000000000000000000000000000000000000000000000008152600401611441906126f7565b60405180910390fd5b60028160050160006101000a81548160ff0219169083600381111561147257611471611f99565b5b02179055506000600260009054906101000a900473ffffffffffffffffffffffffffffffffffffffff1673ffffffffffffffffffffffffffffffffffffffff166326cd527483600001546040518263ffffffff1660e01b81526004016114d89190611e6d565b60c060405180830381865afa1580156114f5573d6000803e3d6000fd5b505050506040513d601f19601f820116820180604052508101906115199190612268565b90506000600160009054906101000a900473ffffffffffffffffffffffffffffffffffffffff1673ffffffffffffffffffffffffffffffffffffffff166327b0d9dc8360000151886040518363ffffffff1660e01b815260040161157e9291906124aa565b6020604051808303816000875af115801561159d573d6000803e3d6000fd5b505050506040513d601f19601f820116820180604052508101906115c1919061256c565b905060008783602001518560010160009054906101000a900473ffffffffffffffffffffffffffffffffffffffff168887600401548660405160200161160c96959493929190612717565b6040516020818303038152906040529050600360009054906101000a900473ffffffffffffffffffffffffffffffffffffffff1673ffffffffffffffffffffffffffffffffffffffff166364e5278888878460006040518563ffffffff1660e01b815260040161167f94939291906127cd565b600060405180830381600087803b15801561169957600080fd5b505af11580156116ad573d6000803e3d6000fd5b505050505050505050505050565b600360009054906101000a900473ffffffffffffffffffffffffffffffffffffffff1673ffffffffffffffffffffffffffffffffffffffff163373ffffffffffffffffffffffffffffffffffffffff161461174b576040517f08c379a000000000000000000000000000000000000000000000000000000000815260040161174290612865565b60405180910390fd5b6000600660008481526020019081526020016000209050600081600401541480611779575060008160000154145b156117b0576040517f80c1e50a00000000000000000000000000000000000000000000000000000000815260040160405180910390fd5b6003808111156117c3576117c2611f99565b5b8160050160009054906101000a900460ff1660038111156117e7576117e6611f99565b5b0361181e576040517f80c1e50a00000000000000000000000000000000000000000000000000000000815260040160405180910390fd5b81816004015414611864576040517f08c379a000000000000000000000000000000000000000000000000000000000815260040161185b906128d1565b60405180910390fd5b6000600260009054906101000a900473ffffffffffffffffffffffffffffffffffffffff1673ffffffffffffffffffffffffffffffffffffffff166326cd527483600001546040518263ffffffff1660e01b81526004016118c59190611e6d565b60c060405180830381865afa1580156118e2573d6000803e3d6000fd5b505050506040513d601f19601f820116820180604052508101906119069190612268565b9050600182600401600082825461191d9190612476565b92505081905550806040015182600301600082825461193c9190612476565b9250508190555060018260050160006101000a81548160ff0219169083600381111561196b5761196a611f99565b5b0217905550837f2572c0255fd289aaf50c1075c785c9e1ca32a8f64089d6f4731ee19a10ce50b8836004015484600301546040516119aa9291906128f1565b60405180910390a250505050565b6119c0611cfe565b6000600660008481526020019081526020016000206040518060c0016040529081600082015481526020016001820160009054906101000a900473ffffffffffffffffffffffffffffffffffffffff1673ffffffffffffffffffffffffffffffffffffffff1673ffffffffffffffffffffffffffffffffffffffff1681526020016002820154815260200160038201548152602001600482015481526020016005820160009054906101000a900460ff166003811115611a8357611a82611f99565b5b6003811115611a9557611a94611f99565b5b815250509050600081600001511480611ad6575060006003811115611abd57611abc611f99565b5b8160a001516003811115611ad457611ad3611f99565b5b145b80611ae5575060008160800151145b15611b1c576040517f2d9289e000000000000000000000000000000000000000000000000000000000815260040160405180910390fd5b80915050919050565b611b2d611bab565b600073ffffffffffffffffffffffffffffffffffffffff168173ffffffffffffffffffffffffffffffffffffffff1603611b9f5760006040517f1e4fbdf7000000000000000000000000000000000000000000000000000000008152600401611b969190611f0d565b60405180910390fd5b611ba881611c32565b50565b611bb3611cf6565b73ffffffffffffffffffffffffffffffffffffffff16611bd1611096565b73ffffffffffffffffffffffffffffffffffffffff1614611c3057611bf4611cf6565b6040517f118cdaa7000000000000000000000000000000000000000000000000000000008152600401611c279190611f0d565b60405180910390fd5b565b60008060009054906101000a900473ffffffffffffffffffffffffffffffffffffffff169050816000806101000a81548173ffffffffffffffffffffffffffffffffffffffff021916908373ffffffffffffffffffffffffffffffffffffffff1602179055508173ffffffffffffffffffffffffffffffffffffffff168173ffffffffffffffffffffffffffffffffffffffff167f8be0079c531659141344cd1fd0a4f28419497f9722a3daafe3b4186f6b6457e060405160405180910390a35050565b600033905090565b6040518060c0016040528060008152602001600073ffffffffffffffffffffffffffffffffffffffff16815260200160008152602001600081526020016000815260200160006003811115611d5657611d55611f99565b5b81525090565b6000604051905090565b600080fd5b600080fd5b600073ffffffffffffffffffffffffffffffffffffffff82169050919050565b6000611d9b82611d70565b9050919050565b611dab81611d90565b8114611db657600080fd5b50565b600081359050611dc881611da2565b92915050565b600060208284031215611de457611de3611d66565b5b6000611df284828501611db9565b91505092915050565b6000819050919050565b611e0e81611dfb565b8114611e1957600080fd5b50565b600081359050611e2b81611e05565b92915050565b600060208284031215611e4757611e46611d66565b5b6000611e5584828501611e1c565b91505092915050565b611e6781611dfb565b82525050565b6000602082019050611e826000830184611e5e565b92915050565b60008115159050919050565b611e9d81611e88565b82525050565b6000602082019050611eb86000830184611e94565b92915050565b60008060408385031215611ed557611ed4611d66565b5b6000611ee385828601611e1c565b9250506020611ef485828601611e1c565b9150509250929050565b611f0781611d90565b82525050565b6000602082019050611f226000830184611efe565b92915050565b600080600060608486031215611f4157611f40611d66565b5b6000611f4f86828701611e1c565b9350506020611f6086828701611e1c565b9250506040611f7186828701611db9565b9150509250925092565b611f8481611dfb565b82525050565b611f9381611d90565b82525050565b7f4e487b7100000000000000000000000000000000000000000000000000000000600052602160045260246000fd5b60048110611fd957611fd8611f99565b5b50565b6000819050611fea82611fc8565b919050565b6000611ffa82611fdc565b9050919050565b61200a81611fef565b82525050565b60c0820160008201516120266000850182611f7b565b5060208201516120396020850182611f8a565b50604082015161204c6040850182611f7b565b50606082015161205f6060850182611f7b565b5060808201516120726080850182611f7b565b5060a082015161208560a0850182612001565b50505050565b600060c0820190506120a06000830184612010565b92915050565b600080fd5b6000601f19601f8301169050919050565b7f4e487b7100000000000000000000000000000000000000000000000000000000600052604160045260246000fd5b6120f4826120ab565b810181811067ffffffffffffffff82111715612113576121126120bc565b5b80604052505050565b6000612126611d5c565b905061213282826120eb565b919050565b600080fd5b60008151905061214b81611da2565b92915050565b60008151905061216081611e05565b92915050565b61216f81611e88565b811461217a57600080fd5b50565b60008151905061218c81612166565b92915050565b6000819050919050565b6121a581612192565b81146121b057600080fd5b50565b6000815190506121c28161219c565b92915050565b600060c082840312156121de576121dd6120a6565b5b6121e860c061211c565b905060006121f88482850161213c565b600083015250602061220c84828501612151565b602083015250604061222084828501612151565b604083015250606061223484828501612151565b60608301525060806122488482850161217d565b60808301525060a061225c848285016121b3565b60a08301525092915050565b600060c0828403121561227e5761227d611d66565b5b600061228c848285016121c8565b91505092915050565b600080fd5b600080fd5b600067ffffffffffffffff8211156122ba576122b96120bc565b5b6122c3826120ab565b9050602081019050919050565b60005b838110156122ee5780820151818401526020810190506122d3565b60008484015250505050565b600061230d6123088461229f565b61211c565b9050828152602081018484840111156123295761232861229a565b5b6123348482856122d0565b509392505050565b600082601f83011261235157612350612295565b5b81516123618482602086016122fa565b91505092915050565b6000608082840312156123805761237f6120a6565b5b61238a608061211c565b9050600061239a84828501612151565b60008301525060206123ae84828501612151565b60208301525060406123c28482850161217d565b604083015250606082015167ffffffffffffffff8111156123e6576123e5612137565b5b6123f28482850161233c565b60608301525092915050565b60006020828403121561241457612413611d66565b5b600082015167ffffffffffffffff81111561243257612431611d6b565b5b61243e8482850161236a565b91505092915050565b7f4e487b7100000000000000000000000000000000000000000000000000000000600052601160045260246000fd5b600061248182611dfb565b915061248c83611dfb565b92508282019050808211156124a4576124a3612447565b5b92915050565b60006040820190506124bf6000830185611efe565b6124cc6020830184611e5e565b9392505050565b6124dc81611fef565b82525050565b60006040820190506124f760008301856124d3565b6125046020830184611efe565b9392505050565b600061251682611dfb565b915061252183611dfb565b925082820390508181111561253957612538612447565b5b92915050565b60006020828403121561255557612554611d66565b5b60006125638482850161217d565b91505092915050565b60006020828403121561258257612581611d66565b5b60006125908482850161213c565b91505092915050565b600082825260208201905092915050565b7f4e4f5f414441505445525f464f525f434841494e000000000000000000000000600082015250565b60006125e0601483612599565b91506125eb826125aa565b602082019050919050565b6000602082019050818103600083015261260f816125d3565b9050919050565b600060408201905061262b6000830185611e5e565b6126386020830184611efe565b9392505050565b7f4348415247455f4e4f545f414c4c4f5745440000000000000000000000000000600082015250565b6000612675601283612599565b91506126808261263f565b602082019050919050565b600060208201905081810360008301526126a481612668565b9050919050565b7f43414e43454c4c45440000000000000000000000000000000000000000000000600082015250565b60006126e1600983612599565b91506126ec826126ab565b602082019050919050565b60006020820190508181036000830152612710816126d4565b9050919050565b600060c08201905061272c6000830189611e5e565b6127396020830188611e5e565b6127466040830187611efe565b6127536060830186611efe565b6127606080830185611e5e565b61276d60a0830184611efe565b979650505050505050565b600081519050919050565b600082825260208201905092915050565b600061279f82612778565b6127a98185612783565b93506127b98185602086016122d0565b6127c2816120ab565b840191505092915050565b60006080820190506127e26000830187611e5e565b6127ef6020830186611efe565b81810360408301526128018185612794565b90506128106060830184611e94565b95945050505050565b7f4e4f545f434f4e54524f4c4c4552000000000000000000000000000000000000600082015250565b600061284f600e83612599565b915061285a82612819565b602082019050919050565b6000602082019050818103600083015261287e81612842565b9050919050565b7f494e56414c49445f42494c4c494e475f4359434c450000000000000000000000600082015250565b60006128bb601583612599565b91506128c682612885565b602082019050919050565b600060208201905081810360008301526128ea816128ae565b9050919050565b60006040820190506129066000830185611e5e565b6129136020830184611e5e565b939250505056fea26469706673582212205763615b6d431299506a8b4bcd18588fae70106730d79b5e93bf44b8b69a6c9964736f6c634300081c0033",
  "linkReferences": {},
  "deployedLinkReferences": {}
}