{
  "_format": "hh-sol-artifact-1",
  "contractName": "MerchantRegistry",
  "sourceName": "contracts/MerchantRegistry.sol",
  "abi": [
    {
      "inputs": [
        {
          "internalType": "address",
          "name": "_chain",
          "type": "address"
        },
        {
          "internalType": "address",
          "name": "_mgr",
          "type": "address"
        },
        {
          "internalType": "address",
          "name": "_controller",
          "type": "address"
        }
      ],
      "stateMutability": "nonpayable",
      "type": "constructor"
    },
    {
      "inputs": [],
      "name": "MerchantNotUnique",
      "type": "error"
    },
    {
      "inputs": [],
      "name": "MissingMerchant",
      "type": "error"
    },
    {
      "inputs": [
        {
          "internalType": "address",
          "name": "owner",
          "type": "address"
        }
      ],
      "name": "OwnableInvalidOwner",
      "type": "error"
    },
    {
      "inputs": [
        {
          "internalType": "address",
          "name": "account",
          "type": "address"
        }
      ],
      "name": "OwnableUnauthorizedAccount",
      "type": "error"
    },
    {
      "inputs": [],
      "name": "Unauthorized",
      "type": "error"
    },
    {
      "inputs": [],
      "name": "UnregisteredChain",
      "type": "error"
    },
    {
      "inputs": [],
      "name": "UnsupportedChain",
      "type": "error"
    },
    {
      "inputs": [],
      "name": "UnsupportedToken",
      "type": "error"
    },
    {
      "anonymous": false,
      "inputs": [
        {
          "indexed": true,
          "internalType": "address",
          "name": "mId",
          "type": "address"
        },
        {
          "indexed": true,
          "internalType": "bytes",
          "name": "metadata",
          "type": "bytes"
        }
      ],
      "name": "MerchantCreated",
      "type": "event"
    },
    {
      "anonymous": false,
      "inputs": [
        {
          "indexed": true,
          "internalType": "address",
          "name": "mId",
          "type": "address"
        },
        {
          "indexed": false,
          "internalType": "bool",
          "name": "status",
          "type": "bool"
        }
      ],
      "name": "MerchantStatusUpdated",
      "type": "event"
    },
    {
      "anonymous": false,
      "inputs": [
        {
          "indexed": true,
          "internalType": "address",
          "name": "mid",
          "type": "address"
        },
        {
          "indexed": false,
          "internalType": "uint256",
          "name": "_grace",
          "type": "uint256"
        },
        {
          "indexed": false,
          "internalType": "uint256",
          "name": "window",
          "type": "uint256"
        },
        {
          "indexed": false,
          "internalType": "bytes",
          "name": "metadata",
          "type": "bytes"
        }
      ],
      "name": "MerchantUpdated",
      "type": "event"
    },
    {
      "anonymous": false,
      "inputs": [
        {
          "indexed": true,
          "internalType": "address",
          "name": "previousOwner",
          "type": "address"
        },
        {
          "indexed": true,
          "internalType": "address",
          "name": "newOwner",
          "type": "address"
        }
      ],
      "name": "OwnershipTransferred",
      "type": "event"
    },
    {
      "anonymous": false,
      "inputs": [
        {
          "indexed": true,
          "internalType": "address",
          "name": "mId",
          "type": "address"
        },
        {
          "indexed": true,
          "internalType": "uint256",
          "name": "chainId",
          "type": "uint256"
        },
        {
          "indexed": false,
          "internalType": "address",
          "name": "payoutAddr",
          "type": "address"
        },
        {
          "indexed": false,
          "internalType": "address",
          "name": "old",
          "type": "address"
        }
      ],
      "name": "PayoutAddressSet",
      "type": "event"
    },
    {
      "anonymous": false,
      "inputs": [
        {
          "indexed": true,
          "internalType": "address",
          "name": "mid",
          "type": "address"
        },
        {
          "indexed": true,
          "internalType": "uint256",
          "name": "cid",
          "type": "uint256"
        },
        {
          "indexed": false,
          "internalType": "address[]",
          "name": "tokens",
          "type": "address[]"
        },
        {
          "indexed": false,
          "internalType": "bool",
          "name": "isAdding",
          "type": "bool"
        }
      ],
      "name": "TokensAdded",
      "type": "event"
    },
    {
      "inputs": [
        {
          "internalType": "uint256",
          "name": "_grace",
          "type": "uint256"
        },
        {
          "internalType": "uint256",
          "name": "_window",
          "type": "uint256"
        },
        {
          "internalType": "bytes",
          "name": "_meta",
          "type": "bytes"
        }
      ],
      "name": "createMerchant",
      "outputs": [
        {
          "internalType": "address",
          "name": "mId",
          "type": "address"
        }
      ],
      "stateMutability": "nonpayable",
      "type": "function"
    },
    {
      "inputs": [
        {
          "internalType": "address",
          "name": "_mid",
          "type": "address"
        }
      ],
      "name": "getMerchant",
      "outputs": [
        {
          "components": [
            {
              "internalType": "uint256",
              "name": "grace",
              "type": "uint256"
            },
            {
              "internalType": "uint256",
              "name": "window",
              "type": "uint256"
            },
            {
              "internalType": "bool",
              "name": "active",
              "type": "bool"
            },
            {
              "internalType": "bytes",
              "name": "metadata",
              "type": "bytes"
            }
          ],
          "internalType": "struct Merchant",
          "name": "",
          "type": "tuple"
        }
      ],
      "stateMutability": "view",
      "type": "function"
    },
    {
      "inputs": [
        {
          "internalType": "address",
          "name": "_mid",
          "type": "address"
        },
        {
          "internalType": "uint256",
          "name": "_cid",
          "type": "uint256"
        }
      ],
      "name": "getPayoutAddress",
      "outputs": [
        {
          "internalType": "address",
          "name": "",
          "type": "address"
        }
      ],
      "stateMutability": "view",
      "type": "function"
    },
    {
      "inputs": [
        {
          "internalType": "address",
          "name": "_mid",
          "type": "address"
        },
        {
          "internalType": "uint256",
          "name": "_cid",
          "type": "uint256"
        },
        {
          "internalType": "address",
          "name": "_token",
          "type": "address"
        }
      ],
      "name": "isApprovedToken",
      "outputs": [
        {
          "internalType": "bool",
          "name": "",
          "type": "bool"
        }
      ],
      "stateMutability": "view",
      "type": "function"
    },
    {
      "inputs": [],
      "name": "owner",
      "outputs": [
        {
          "internalType": "address",
          "name": "",
          "type": "address"
        }
      ],
      "stateMutability": "view",
      "type": "function"
    },
    {
      "inputs": [],
      "name": "renounceOwnership",
      "outputs": [],
      "stateMutability": "nonpayable",
      "type": "function"
    },
    {
      "inputs": [
        {
          "internalType": "address",
          "name": "_mid",
          "type": "address"
        },
        {
          "internalType": "bool",
          "name": "active",
          "type": "bool"
        }
      ],
      "name": "setMerchantStatus",
      "outputs": [],
      "stateMutability": "nonpayable",
      "type": "function"
    },
    {
      "inputs": [
        {
          "internalType": "address",
          "name": "_mid",
          "type": "address"
        },
        {
          "internalType": "uint256",
          "name": "_cid",
          "type": "uint256"
        },
        {
          "internalType": "address",
          "name": "_payout",
          "type": "address"
        }
      ],
      "name": "setPayoutAddress",
      "outputs": [],
      "stateMutability": "nonpayable",
      "type": "function"
    },
    {
      "inputs": [
        {
          "internalType": "address",
          "name": "_mgr",
          "type": "address"
        }
      ],
      "name": "setSubscriptionManager",
      "outputs": [],
      "stateMutability": "nonpayable",
      "type": "function"
    },
    {
      "inputs": [],
      "name": "subManager",
      "outputs": [
        {
          "internalType": "contract ISubscriptionManager",
          "name": "",
          "type": "address"
        }
      ],
      "stateMutability": "view",
      "type": "function"
    },
    {
      "inputs": [],
      "name": "subsController",
      "outputs": [
        {
          "internalType": "contract ISubscriptionsController",
          "name": "",
          "type": "address"
        }
      ],
      "stateMutability": "view",
      "type": "function"
    },
    {
      "inputs": [
        {
          "internalType": "address",
          "name": "newOwner",
          "type": "address"
        }
      ],
      "name": "transferOwnership",
      "outputs": [],
      "stateMutability": "nonpayable",
      "type": "function"
    },
    {
      "inputs": [
        {
          "internalType": "address",
          "name": "_mid",
          "type": "address"
        },
        {
          "internalType": "uint256",
          "name": "_cid",
          "type": "uint256"
        },
        {
          "internalType": "address[]",
          "name": "_tokens",
          "type": "address[]"
        },
        {
          "internalType": "bool",
          "name": "_adding",
          "type": "bool"
        }
      ],
      "name": "updateAllowedToken",
      "outputs": [],
      "stateMutability": "nonpayable",
      "type": "function"
    },
    {
      "inputs": [
        {
          "internalType": "address",
          "name": "_controller",
          "type": "address"
        }
      ],
      "name": "updateController",
      "outputs": [],
      "stateMutability": "nonpayable",
      "type": "function"
    },
    {
      "inputs": [
        {
          "internalType": "address",
          "name": "_mid",
          "type": "address"
        },
        {
          "internalType": "uint256",
          "name": "_grace",
          "type": "uint256"
        },
        {
          "internalType": "uint256",
          "name": "_window",
          "type": "uint256"
        },
        {
          "internalType": "bytes",
          "name": "_metadata",
          "type": "bytes"
        }
      ],
      "name": "updateMerchantConfig",
      "outputs": [],
      "stateMutability": "nonpayable",
      "type": "function"
    }
  ],
  "bytecode": "0x60a060405234801561001057600080fd5b50604051612e08380380612e088339818101604052810190610032919061029a565b33600073ffffffffffffffffffffffffffffffffffffffff168173ffffffffffffffffffffffffffffffffffffffff16036100a55760006040517f1e4fbdf700000000000000000000000000000000000000000000000000000000815260040161009c91906102fc565b60405180910390fd5b6100b48161017360201b60201c565b508273ffffffffffffffffffffffffffffffffffffffff1660808173ffffffffffffffffffffffffffffffffffffffff168152505081600560006101000a81548173ffffffffffffffffffffffffffffffffffffffff021916908373ffffffffffffffffffffffffffffffffffffffff16021790555080600460006101000a81548173ffffffffffffffffffffffffffffffffffffffff021916908373ffffffffffffffffffffffffffffffffffffffff160217905550505050610317565b60008060009054906101000a900473ffffffffffffffffffffffffffffffffffffffff169050816000806101000a81548173ffffffffffffffffffffffffffffffffffffffff021916908373ffffffffffffffffffffffffffffffffffffffff1602179055508173ffffffffffffffffffffffffffffffffffffffff168173ffffffffffffffffffffffffffffffffffffffff167f8be0079c531659141344cd1fd0a4f28419497f9722a3daafe3b4186f6b6457e060405160405180910390a35050565b600080fd5b600073ffffffffffffffffffffffffffffffffffffffff82169050919050565b60006102678261023c565b9050919050565b6102778161025c565b811461028257600080fd5b50565b6000815190506102948161026e565b92915050565b6000806000606084860312156102b3576102b2610237565b5b60006102c186828701610285565b93505060206102d286828701610285565b92505060406102e386828701610285565b9150509250925092565b6102f68161025c565b82525050565b600060208201905061031160008301846102ed565b92915050565b608051612aba61034e600039600081816107b401528181610a07015281816114bc015281816115e401526118470152612aba6000f3fe608060405234801561001057600080fd5b50600436106100f55760003560e01c8063715018a611610097578063b338407411610066578063b33840741461025e578063c05b35851461028e578063ddcbbc52146102aa578063f2fde38b146102c6576100f5565b8063715018a6146101ea578063876598d6146101f45780638da5cb5b14610210578063b2734eaf1461022e576100f5565b80633830ae88116100d35780633830ae881461017657806347d9abdf1461019457806357ccb6a0146101b05780636632ba93146101cc576100f5565b806306cb5b66146100fa578063278d21e61461011657806327b0d9dc14610146575b600080fd5b610114600480360381019061010f9190611c42565b6102e2565b005b610130600480360381019061012b9190611d0a565b61032e565b60405161013d9190611d8d565b60405180910390f35b610160600480360381019061015b9190611da8565b61055f565b60405161016d9190611d8d565b60405180910390f35b61017e6105ca565b60405161018b9190611e47565b60405180910390f35b6101ae60048036038101906101a99190611e62565b6105f0565b005b6101ca60048036038101906101c59190611eed565b610b3d565b005b6101d4610c92565b6040516101e19190611f4e565b60405180910390f35b6101f2610cb8565b005b61020e60048036038101906102099190611f69565b610ccc565b005b610218611021565b6040516102259190611d8d565b60405180910390f35b61024860048036038101906102439190611c42565b61104a565b6040516102559190612102565b60405180910390f35b61027860048036038101906102739190611e62565b611164565b6040516102859190612133565b60405180910390f35b6102a860048036038101906102a39190611c42565b61131b565b005b6102c460048036038101906102bf919061228c565b611367565b005b6102e060048036038101906102db9190611c42565b6119cd565b005b6102ea611a53565b80600460006101000a81548173ffffffffffffffffffffffffffffffffffffffff021916908373ffffffffffffffffffffffffffffffffffffffff16021790555050565b6000600160003373ffffffffffffffffffffffffffffffffffffffff1673ffffffffffffffffffffffffffffffffffffffff16815260200190815260200160002060020160009054906101000a900460ff1680156103ce57506000600160003373ffffffffffffffffffffffffffffffffffffffff1673ffffffffffffffffffffffffffffffffffffffff16815260200190815260200160002060010154115b15610405576040517f0b1d936e00000000000000000000000000000000000000000000000000000000815260040160405180910390fd5b604051806080016040528086815260200185815260200160011515815260200184848080601f016020809104026020016040519081016040528093929190818152602001838380828437600081840152601f19601f82011690508083019250505050505050815250600160003373ffffffffffffffffffffffffffffffffffffffff1673ffffffffffffffffffffffffffffffffffffffff168152602001908152602001600020600082015181600001556020820151816001015560408201518160020160006101000a81548160ff02191690831515021790555060608201518160030190816104f59190612511565b509050508282604051610509929190612622565b60405180910390203373ffffffffffffffffffffffffffffffffffffffff167f27e4621d653f2188d51dcb21fc1d6c5b08a4127e53877d3c0a81b28ceb1ab15e60405160405180910390a3339050949350505050565b600080838360405160200161057592919061264a565b6040516020818303038152906040528051906020012090506002600082815260200190815260200160002060009054906101000a900473ffffffffffffffffffffffffffffffffffffffff1691505092915050565b600460009054906101000a900473ffffffffffffffffffffffffffffffffffffffff1681565b8273ffffffffffffffffffffffffffffffffffffffff163373ffffffffffffffffffffffffffffffffffffffff1614610655576040517f82b4290000000000000000000000000000000000000000000000000000000000815260040160405180910390fd5b6000600160008573ffffffffffffffffffffffffffffffffffffffff1673ffffffffffffffffffffffffffffffffffffffff16815260200190815260200160002060405180608001604052908160008201548152602001600182015481526020016002820160009054906101000a900460ff161515151581526020016003820180546106e09061233e565b80601f016020809104026020016040519081016040528092919081815260200182805461070c9061233e565b80156107595780601f1061072e57610100808354040283529160200191610759565b820191906000526020600020905b81548152906001019060200180831161073c57829003601f168201915b505050505081525050905080604001511580610779575060008160200151145b156107b0576040517f6840319000000000000000000000000000000000000000000000000000000000815260040160405180910390fd5b60007f000000000000000000000000000000000000000000000000000000000000000073ffffffffffffffffffffffffffffffffffffffff16635221c1f0856040518263ffffffff1660e01b815260040161080b9190612673565b602060405180830381865afa158015610828573d6000803e3d6000fd5b505050506040513d601f19601f8201168201806040525081019061084c91906126a3565b905080610885576040517fa3e4cb5700000000000000000000000000000000000000000000000000000000815260040160405180910390fd5b6000858560405160200161089a92919061264a565b60405160208183030381529060405280519060200120905060006002600083815260200190815260200160002060009054906101000a900473ffffffffffffffffffffffffffffffffffffffff169050846002600084815260200190815260200160002060006101000a81548173ffffffffffffffffffffffffffffffffffffffff021916908373ffffffffffffffffffffffffffffffffffffffff160217905550858773ffffffffffffffffffffffffffffffffffffffff167f054d84519acf7f691e1596de791426eff0674b07596b12c82234891d2c20269887846040516109859291906126d0565b60405180910390a360008787600067ffffffffffffffff8111156109ac576109ab61214e565b5b6040519080825280602002602001820160405280156109da5781602001602082028036833780820191505090505b506001896040516020016109f29594939291906127b7565b604051602081830303815290604052905060007f000000000000000000000000000000000000000000000000000000000000000073ffffffffffffffffffffffffffffffffffffffff166382ef7cf5896040518263ffffffff1660e01b8152600401610a5e9190612673565b602060405180830381865afa158015610a7b573d6000803e3d6000fd5b505050506040513d601f19601f82011682018060405250810190610a9f9190612826565b9050600460009054906101000a900473ffffffffffffffffffffffffffffffffffffffff1673ffffffffffffffffffffffffffffffffffffffff16633d453da48983856040518463ffffffff1660e01b8152600401610b009392919061289d565b600060405180830381600087803b158015610b1a57600080fd5b505af1158015610b2e573d6000803e3d6000fd5b50505050505050505050505050565b8173ffffffffffffffffffffffffffffffffffffffff163373ffffffffffffffffffffffffffffffffffffffff1614610ba2576040517f82b4290000000000000000000000000000000000000000000000000000000000815260040160405180910390fd5b6000600160008473ffffffffffffffffffffffffffffffffffffffff1673ffffffffffffffffffffffffffffffffffffffff16815260200190815260200160002090506000816001015403610c23576040517f6840319000000000000000000000000000000000000000000000000000000000815260040160405180910390fd5b818160020160006101000a81548160ff0219169083151502179055508273ffffffffffffffffffffffffffffffffffffffff167f30a45c7f8d59b99f6da52c65ba25fd31c955b18e3955a95a10a3293cda42b70183604051610c859190612133565b60405180910390a2505050565b600560009054906101000a900473ffffffffffffffffffffffffffffffffffffffff1681565b610cc0611a53565b610cca6000611ada565b565b8473ffffffffffffffffffffffffffffffffffffffff163373ffffffffffffffffffffffffffffffffffffffff1614610d31576040517f82b4290000000000000000000000000000000000000000000000000000000000815260040160405180910390fd5b6000600160008773ffffffffffffffffffffffffffffffffffffffff1673ffffffffffffffffffffffffffffffffffffffff16815260200190815260200160002060405180608001604052908160008201548152602001600182015481526020016002820160009054906101000a900460ff16151515158152602001600382018054610dbc9061233e565b80601f0160208091040260200160405190810160405280929190818152602001828054610de89061233e565b8015610e355780601f10610e0a57610100808354040283529160200191610e35565b820191906000526020600020905b815481529060010190602001808311610e1857829003601f168201915b505050505081525050905080604001511580610e55575060008160200151145b15610e8c576040517f6840319000000000000000000000000000000000000000000000000000000000815260040160405180910390fd5b60405180608001604052808681526020016000861480610eaf5750826020015186145b610eb95785610ebf565b82602001515b815260200182604001511515815260200184848080601f016020809104026020016040519081016040528093929190818152602001838380828437600081840152601f19601f82011690508083019250505050505050815250600160008873ffffffffffffffffffffffffffffffffffffffff1673ffffffffffffffffffffffffffffffffffffffff168152602001908152602001600020600082015181600001556020820151816001015560408201518160020160006101000a81548160ff0219169083151502179055506060820151816003019081610fa09190612511565b509050508573ffffffffffffffffffffffffffffffffffffffff167f1e0721ce5ad511fbe5fe9cf8f47e973c0d9aceafd914099246cd7378efe18da1866000871480610fef5750836020015187145b610ff95786610fff565b83602001515b86866040516110119493929190612908565b60405180910390a2505050505050565b60008060009054906101000a900473ffffffffffffffffffffffffffffffffffffffff16905090565b611052611ba6565b600160008373ffffffffffffffffffffffffffffffffffffffff1673ffffffffffffffffffffffffffffffffffffffff16815260200190815260200160002060405180608001604052908160008201548152602001600182015481526020016002820160009054906101000a900460ff161515151581526020016003820180546110db9061233e565b80601f01602080910402602001604051908101604052809291908181526020018280546111079061233e565b80156111545780601f1061112957610100808354040283529160200191611154565b820191906000526020600020905b81548152906001019060200180831161113757829003601f168201915b5050505050815250509050919050565b600080600160008673ffffffffffffffffffffffffffffffffffffffff1673ffffffffffffffffffffffffffffffffffffffff16815260200190815260200160002060405180608001604052908160008201548152602001600182015481526020016002820160009054906101000a900460ff161515151581526020016003820180546111f09061233e565b80601f016020809104026020016040519081016040528092919081815260200182805461121c9061233e565b80156112695780601f1061123e57610100808354040283529160200191611269565b820191906000526020600020905b81548152906001019060200180831161124c57829003601f168201915b505050505081525050905080604001511580611289575060008160200151145b156112c0576040517f6840319000000000000000000000000000000000000000000000000000000000815260040160405180910390fd5b60008585856040516020016112d793929190612948565b6040516020818303038152906040528051906020012090506003600082815260200190815260200160002060009054906101000a900460ff16925050509392505050565b611323611a53565b80600560006101000a81548173ffffffffffffffffffffffffffffffffffffffff021916908373ffffffffffffffffffffffffffffffffffffffff16021790555050565b8373ffffffffffffffffffffffffffffffffffffffff163373ffffffffffffffffffffffffffffffffffffffff16146113cc576040517f82b4290000000000000000000000000000000000000000000000000000000000815260040160405180910390fd5b6000600160008673ffffffffffffffffffffffffffffffffffffffff1673ffffffffffffffffffffffffffffffffffffffff16815260200190815260200160002090508060020160009054906101000a900460ff161580611431575060008160010154145b15611468576040517f6840319000000000000000000000000000000000000000000000000000000000815260040160405180910390fd5b60008351116114ac576040517f08c379a00000000000000000000000000000000000000000000000000000000081526004016114a3906129dc565b60405180910390fd5b60005b83518110156117b65760007f000000000000000000000000000000000000000000000000000000000000000073ffffffffffffffffffffffffffffffffffffffff16635221c1f0876040518263ffffffff1660e01b81526004016115139190612673565b602060405180830381865afa158015611530573d6000803e3d6000fd5b505050506040513d601f19601f8201168201806040525081019061155491906126a3565b9050600073ffffffffffffffffffffffffffffffffffffffff16858381518110611581576115806129fc565b5b602002602001015173ffffffffffffffffffffffffffffffffffffffff1614806115a9575080155b156115e0576040517fd21eab3700000000000000000000000000000000000000000000000000000000815260040160405180910390fd5b60007f000000000000000000000000000000000000000000000000000000000000000073ffffffffffffffffffffffffffffffffffffffff166375979f7988888681518110611632576116316129fc565b5b60200260200101516040518363ffffffff1660e01b8152600401611657929190612a2b565b602060405180830381865afa158015611674573d6000803e3d6000fd5b505050506040513d601f19601f8201168201806040525081019061169891906126a3565b9050600073ffffffffffffffffffffffffffffffffffffffff168684815181106116c5576116c46129fc565b5b602002602001015173ffffffffffffffffffffffffffffffffffffffff1614806116ed575080155b15611724576040517f6a17288200000000000000000000000000000000000000000000000000000000815260040160405180910390fd5b6000888888868151811061173b5761173a6129fc565b5b602002602001015160405160200161175593929190612948565b6040516020818303038152906040528051906020012090508561177957600061177c565b60015b6003600083815260200190815260200160002060006101000a81548160ff02191690831515021790555050505080806001019150506114af565b50600085856040516020016117cc92919061264a565b6040516020818303038152906040528051906020012090506000868686866002600087815260200190815260200160002060009054906101000a900473ffffffffffffffffffffffffffffffffffffffff166040516020016118329594939291906127b7565b604051602081830303815290604052905060007f000000000000000000000000000000000000000000000000000000000000000073ffffffffffffffffffffffffffffffffffffffff166382ef7cf5886040518263ffffffff1660e01b815260040161189e9190612673565b602060405180830381865afa1580156118bb573d6000803e3d6000fd5b505050506040513d601f19601f820116820180604052508101906118df9190612826565b9050600460009054906101000a900473ffffffffffffffffffffffffffffffffffffffff1673ffffffffffffffffffffffffffffffffffffffff16633d453da48883856040518463ffffffff1660e01b81526004016119409392919061289d565b600060405180830381600087803b15801561195a57600080fd5b505af115801561196e573d6000803e3d6000fd5b50505050868873ffffffffffffffffffffffffffffffffffffffff167fd5bf566134b25c6d34dd9ce13808f7fa809bbce13c96cb712ce0b0bfc7782eec88886040516119bb929190612a54565b60405180910390a35050505050505050565b6119d5611a53565b600073ffffffffffffffffffffffffffffffffffffffff168173ffffffffffffffffffffffffffffffffffffffff1603611a475760006040517f1e4fbdf7000000000000000000000000000000000000000000000000000000008152600401611a3e9190611d8d565b60405180910390fd5b611a5081611ada565b50565b611a5b611b9e565b73ffffffffffffffffffffffffffffffffffffffff16611a79611021565b73ffffffffffffffffffffffffffffffffffffffff1614611ad857611a9c611b9e565b6040517f118cdaa7000000000000000000000000000000000000000000000000000000008152600401611acf9190611d8d565b60405180910390fd5b565b60008060009054906101000a900473ffffffffffffffffffffffffffffffffffffffff169050816000806101000a81548173ffffffffffffffffffffffffffffffffffffffff021916908373ffffffffffffffffffffffffffffffffffffffff1602179055508173ffffffffffffffffffffffffffffffffffffffff168173ffffffffffffffffffffffffffffffffffffffff167f8be0079c531659141344cd1fd0a4f28419497f9722a3daafe3b4186f6b6457e060405160405180910390a35050565b600033905090565b60405180608001604052806000815260200160008152602001600015158152602001606081525090565b6000604051905090565b600080fd5b600080fd5b600073ffffffffffffffffffffffffffffffffffffffff82169050919050565b6000611c0f82611be4565b9050919050565b611c1f81611c04565b8114611c2a57600080fd5b50565b600081359050611c3c81611c16565b92915050565b600060208284031215611c5857611c57611bda565b5b6000611c6684828501611c2d565b91505092915050565b6000819050919050565b611c8281611c6f565b8114611c8d57600080fd5b50565b600081359050611c9f81611c79565b92915050565b600080fd5b600080fd5b600080fd5b60008083601f840112611cca57611cc9611ca5565b5b8235905067ffffffffffffffff811115611ce757611ce6611caa565b5b602083019150836001820283011115611d0357611d02611caf565b5b9250929050565b60008060008060608587031215611d2457611d23611bda565b5b6000611d3287828801611c90565b9450506020611d4387828801611c90565b935050604085013567ffffffffffffffff811115611d6457611d63611bdf565b5b611d7087828801611cb4565b925092505092959194509250565b611d8781611c04565b82525050565b6000602082019050611da26000830184611d7e565b92915050565b60008060408385031215611dbf57611dbe611bda565b5b6000611dcd85828601611c2d565b9250506020611dde85828601611c90565b9150509250929050565b6000819050919050565b6000611e0d611e08611e0384611be4565b611de8565b611be4565b9050919050565b6000611e1f82611df2565b9050919050565b6000611e3182611e14565b9050919050565b611e4181611e26565b82525050565b6000602082019050611e5c6000830184611e38565b92915050565b600080600060608486031215611e7b57611e7a611bda565b5b6000611e8986828701611c2d565b9350506020611e9a86828701611c90565b9250506040611eab86828701611c2d565b9150509250925092565b60008115159050919050565b611eca81611eb5565b8114611ed557600080fd5b50565b600081359050611ee781611ec1565b92915050565b60008060408385031215611f0457611f03611bda565b5b6000611f1285828601611c2d565b9250506020611f2385828601611ed8565b9150509250929050565b6000611f3882611e14565b9050919050565b611f4881611f2d565b82525050565b6000602082019050611f636000830184611f3f565b92915050565b600080600080600060808688031215611f8557611f84611bda565b5b6000611f9388828901611c2d565b9550506020611fa488828901611c90565b9450506040611fb588828901611c90565b935050606086013567ffffffffffffffff811115611fd657611fd5611bdf565b5b611fe288828901611cb4565b92509250509295509295909350565b611ffa81611c6f565b82525050565b61200981611eb5565b82525050565b600081519050919050565b600082825260208201905092915050565b60005b8381101561204957808201518184015260208101905061202e565b60008484015250505050565b6000601f19601f8301169050919050565b60006120718261200f565b61207b818561201a565b935061208b81856020860161202b565b61209481612055565b840191505092915050565b60006080830160008301516120b76000860182611ff1565b5060208301516120ca6020860182611ff1565b5060408301516120dd6040860182612000565b50606083015184820360608601526120f58282612066565b9150508091505092915050565b6000602082019050818103600083015261211c818461209f565b905092915050565b61212d81611eb5565b82525050565b60006020820190506121486000830184612124565b92915050565b7f4e487b7100000000000000000000000000000000000000000000000000000000600052604160045260246000fd5b61218682612055565b810181811067ffffffffffffffff821117156121a5576121a461214e565b5b80604052505050565b60006121b8611bd0565b90506121c4828261217d565b919050565b600067ffffffffffffffff8211156121e4576121e361214e565b5b602082029050602081019050919050565b6000612208612203846121c9565b6121ae565b9050808382526020820190506020840283018581111561222b5761222a611caf565b5b835b8181101561225457806122408882611c2d565b84526020840193505060208101905061222d565b5050509392505050565b600082601f83011261227357612272611ca5565b5b81356122838482602086016121f5565b91505092915050565b600080600080608085870312156122a6576122a5611bda565b5b60006122b487828801611c2d565b94505060206122c587828801611c90565b935050604085013567ffffffffffffffff8111156122e6576122e5611bdf565b5b6122f28782880161225e565b925050606061230387828801611ed8565b91505092959194509250565b7f4e487b7100000000000000000000000000000000000000000000000000000000600052602260045260246000fd5b6000600282049050600182168061235657607f821691505b6020821081036123695761236861230f565b5b50919050565b60008190508160005260206000209050919050565b60006020601f8301049050919050565b600082821b905092915050565b6000600883026123d17fffffffffffffffffffffffffffffffffffffffffffffffffffffffffffffffff82612394565b6123db8683612394565b95508019841693508086168417925050509392505050565b600061240e61240961240484611c6f565b611de8565b611c6f565b9050919050565b6000819050919050565b612428836123f3565b61243c61243482612415565b8484546123a1565b825550505050565b600090565b612451612444565b61245c81848461241f565b505050565b5b8181101561248057612475600082612449565b600181019050612462565b5050565b601f8211156124c5576124968161236f565b61249f84612384565b810160208510156124ae578190505b6124c26124ba85612384565b830182612461565b50505b505050565b600082821c905092915050565b60006124e8600019846008026124ca565b1980831691505092915050565b600061250183836124d7565b9150826002028217905092915050565b61251a8261200f565b67ffffffffffffffff8111156125335761253261214e565b5b61253d825461233e565b612548828285612484565b600060209050601f83116001811461257b5760008415612569578287015190505b61257385826124f5565b8655506125db565b601f1984166125898661236f565b60005b828110156125b15784890151825560018201915060208501945060208101905061258c565b868310156125ce57848901516125ca601f8916826124d7565b8355505b6001600288020188555050505b505050505050565b600081905092915050565b82818337600083830152505050565b600061260983856125e3565b93506126168385846125ee565b82840190509392505050565b600061262f8284866125fd565b91508190509392505050565b61264481611c6f565b82525050565b600060408201905061265f6000830185611d7e565b61266c602083018461263b565b9392505050565b6000602082019050612688600083018461263b565b92915050565b60008151905061269d81611ec1565b92915050565b6000602082840312156126b9576126b8611bda565b5b60006126c78482850161268e565b91505092915050565b60006040820190506126e56000830185611d7e565b6126f26020830184611d7e565b9392505050565b600081519050919050565b600082825260208201905092915050565b6000819050602082019050919050565b61272e81611c04565b82525050565b60006127408383612725565b60208301905092915050565b6000602082019050919050565b6000612764826126f9565b61276e8185612704565b935061277983612715565b8060005b838110156127aa5781516127918882612734565b975061279c8361274c565b92505060018101905061277d565b5085935050505092915050565b600060a0820190506127cc6000830188611d7e565b6127d9602083018761263b565b81810360408301526127eb8186612759565b90506127fa6060830185612124565b6128076080830184611d7e565b9695505050505050565b60008151905061282081611c16565b92915050565b60006020828403121561283c5761283b611bda565b5b600061284a84828501612811565b91505092915050565b600082825260208201905092915050565b600061286f8261200f565b6128798185612853565b935061288981856020860161202b565b61289281612055565b840191505092915050565b60006060820190506128b2600083018661263b565b6128bf6020830185611d7e565b81810360408301526128d18184612864565b9050949350505050565b60006128e78385612853565b93506128f48385846125ee565b6128fd83612055565b840190509392505050565b600060608201905061291d600083018761263b565b61292a602083018661263b565b818103604083015261293d8184866128db565b905095945050505050565b600060608201905061295d6000830186611d7e565b61296a602083018561263b565b6129776040830184611d7e565b949350505050565b600082825260208201905092915050565b7f4e6f20746f6b656e73207375626d697474656421000000000000000000000000600082015250565b60006129c660148361297f565b91506129d182612990565b602082019050919050565b600060208201905081810360008301526129f5816129b9565b9050919050565b7f4e487b7100000000000000000000000000000000000000000000000000000000600052603260045260246000fd5b6000604082019050612a40600083018561263b565b612a4d6020830184611d7e565b9392505050565b60006040820190508181036000830152612a6e8185612759565b9050612a7d6020830184612124565b939250505056fea26469706673582212202da233bdc523aee6cb482e4a2a1c5c3e7c2a597d33f5d67245b4b66982653d9964736f6c634300081c0033",
  "linkReferences": {},
  "deployedLinkReferences": {}
}