{
  "_format": "hh-sol-artifact-1",
  "contractName": "ChainRegistry",
  "sourceName": "contracts/ChainRegistry.sol",
  "abi": [
    {
      "inputs": [
        {
          "internalType": "bytes32",
          "name": "_hash",
          "type": "bytes32"
        },
        {
          "internalType": "address",
          "name": "_controller",
          "type": "address"
        }
      ],
      "stateMutability": "nonpayable",
      "type": "constructor"
    },
    {
      "inputs": [],
      "name": "ChainExists",
      "type": "error"
    },
    {
      "inputs": [],
      "name": "InvalidAdapterCode",
      "type": "error"
    },
    {
      "inputs": [
        {
          "internalType": "address",
          "name": "owner",
          "type": "address"
        }
      ],
      "name": "OwnableInvalidOwner",
      "type": "error"
    },
    {
      "inputs": [
        {
          "internalType": "address",
          "name": "account",
          "type": "address"
        }
      ],
      "name": "OwnableUnauthorizedAccount",
      "type": "error"
    },
    {
      "inputs": [],
      "name": "UnregisteredChain",
      "type": "error"
    },
    {
      "anonymous": false,
      "inputs": [
        {
          "indexed": true,
          "internalType": "uint256",
          "name": "chainId",
          "type": "uint256"
        },
        {
          "indexed": true,
          "internalType": "address",
          "name": "billingAdapter",
          "type": "address"
        }
      ],
      "name": "ChainRegistered",
      "type": "event"
    },
    {
      "anonymous": false,
      "inputs": [
        {
          "indexed": true,
          "internalType": "uint256",
          "name": "chainId",
          "type": "uint256"
        },
        {
          "indexed": false,
          "internalType": "bool",
          "name": "active",
          "type": "bool"
        }
      ],
      "name": "ChainStatusUpdated",
      "type": "event"
    },
    {
      "anonymous": false,
      "inputs": [
        {
          "indexed": true,
          "internalType": "address",
          "name": "previousOwner",
          "type": "address"
        },
        {
          "indexed": true,
          "internalType": "address",
          "name": "newOwner",
          "type": "address"
        }
      ],
      "name": "OwnershipTransferred",
      "type": "event"
    },
    {
      "anonymous": false,
      "inputs": [
        {
          "indexed": true,
          "internalType": "uint256",
          "name": "chainId",
          "type": "uint256"
        },
        {
          "indexed": true,
          "internalType": "address",
          "name": "token",
          "type": "address"
        },
        {
          "indexed": false,
          "internalType": "bool",
          "name": "supported",
          "type": "bool"
        }
      ],
      "name": "TokenSupportUpdated",
      "type": "event"
    },
    {
      "inputs": [],
      "name": "approvedAdapterCodeHash",
      "outputs": [
        {
          "internalType": "bytes32",
          "name": "",
          "type": "bytes32"
        }
      ],
      "stateMutability": "view",
      "type": "function"
    },
    {
      "inputs": [
        {
          "internalType": "uint256",
          "name": "_cid",
          "type": "uint256"
        }
      ],
      "name": "getBillingAdapter",
      "outputs": [
        {
          "internalType": "address",
          "name": "",
          "type": "address"
        }
      ],
      "stateMutability": "view",
      "type": "function"
    },
    {
      "inputs": [
        {
          "internalType": "uint256",
          "name": "_cid",
          "type": "uint256"
        }
      ],
      "name": "isChainSupported",
      "outputs": [
        {
          "internalType": "bool",
          "name": "",
          "type": "bool"
        }
      ],
      "stateMutability": "view",
      "type": "function"
    },
    {
      "inputs": [
        {
          "internalType": "uint256",
          "name": "_cid",
          "type": "uint256"
        },
        {
          "internalType": "address",
          "name": "_token",
          "type": "address"
        }
      ],
      "name": "isTokenSupported",
      "outputs": [
        {
          "internalType": "bool",
          "name": "",
          "type": "bool"
        }
      ],
      "stateMutability": "view",
      "type": "function"
    },
    {
      "inputs": [
        {
          "internalType": "uint256",
          "name": "_cid",
          "type": "uint256"
        },
        {
          "internalType": "address",
          "name": "_adapter",
          "type": "address"
        }
      ],
      "name": "isValidAdapter",
      "outputs": [
        {
          "internalType": "bool",
          "name": "",
          "type": "bool"
        }
      ],
      "stateMutability": "view",
      "type": "function"
    },
    {
      "inputs": [],
      "name": "owner",
      "outputs": [
        {
          "internalType": "address",
          "name": "",
          "type": "address"
        }
      ],
      "stateMutability": "view",
      "type": "function"
    },
    {
      "inputs": [
        {
          "internalType": "uint256",
          "name": "_cid",
          "type": "uint256"
        },
        {
          "internalType": "address",
          "name": "_adapter",
          "type": "address"
        }
      ],
      "name": "registerChain",
      "outputs": [],
      "stateMutability": "nonpayable",
      "type": "function"
    },
    {
      "inputs": [],
      "name": "renounceOwnership",
      "outputs": [],
      "stateMutability": "nonpayable",
      "type": "function"
    },
    {
      "inputs": [
        {
          "internalType": "uint256",
          "name": "_cid",
          "type": "uint256"
        },
        {
          "internalType": "bool",
          "name": "_active",
          "type": "bool"
        }
      ],
      "name": "setChainStatus",
      "outputs": [],
      "stateMutability": "nonpayable",
      "type": "function"
    },
    {
      "inputs": [
        {
          "internalType": "uint256",
          "name": "_cid",
          "type": "uint256"
        },
        {
          "internalType": "address",
          "name": "_token",
          "type": "address"
        },
        {
          "internalType": "bool",
          "name": "_support",
          "type": "bool"
        }
      ],
      "name": "setTokenSupport",
      "outputs": [],
      "stateMutability": "nonpayable",
      "type": "function"
    },
    {
      "inputs": [
        {
          "internalType": "address",
          "name": "newOwner",
          "type": "address"
        }
      ],
      "name": "transferOwnership",
      "outputs": [],
      "stateMutability": "nonpayable",
      "type": "function"
    },
    {
      "inputs": [
        {
          "internalType": "address",
          "name": "_newController",
          "type": "address"
        }
      ],
      "name": "updateController",
      "outputs": [],
      "stateMutability": "nonpayable",
      "type": "function"
    }
  ],
  "bytecode": "0x60a060405234801561001057600080fd5b5060405161139338038061139383398181016040528101906100329190610262565b33600073ffffffffffffffffffffffffffffffffffffffff168173ffffffffffffffffffffffffffffffffffffffff16036100a55760006040517f1e4fbdf700000000000000000000000000000000000000000000000000000000815260040161009c91906102b1565b60405180910390fd5b6100b48161010560201b60201c565b50816080818152505080600360006101000a81548173ffffffffffffffffffffffffffffffffffffffff021916908373ffffffffffffffffffffffffffffffffffffffff16021790555050506102cc565b60008060009054906101000a900473ffffffffffffffffffffffffffffffffffffffff169050816000806101000a81548173ffffffffffffffffffffffffffffffffffffffff021916908373ffffffffffffffffffffffffffffffffffffffff1602179055508173ffffffffffffffffffffffffffffffffffffffff168173ffffffffffffffffffffffffffffffffffffffff167f8be0079c531659141344cd1fd0a4f28419497f9722a3daafe3b4186f6b6457e060405160405180910390a35050565b600080fd5b6000819050919050565b6101e1816101ce565b81146101ec57600080fd5b50565b6000815190506101fe816101d8565b92915050565b600073ffffffffffffffffffffffffffffffffffffffff82169050919050565b600061022f82610204565b9050919050565b61023f81610224565b811461024a57600080fd5b50565b60008151905061025c81610236565b92915050565b60008060408385031215610279576102786101c9565b5b6000610287858286016101ef565b92505060206102988582860161024d565b9150509250929050565b6102ab81610224565b82525050565b60006020820190506102c660008301846102a2565b92915050565b6080516110a56102ee60003960008181610336015261078c01526110a56000f3fe608060405234801561001057600080fd5b50600436106100b45760003560e01c80637a9a0025116100715780637a9a00251461018d5780637e25b5f8146101a957806382ef7cf5146101c55780638da5cb5b146101f5578063f2fde38b14610213578063fc46b8b01461022f576100b4565b806306cb5b66146100b957806320ef882c146100d55780632ba3da2f146101055780635221c1f014610123578063715018a61461015357806375979f791461015d575b600080fd5b6100d360048036038101906100ce9190610d2a565b61024b565b005b6100ef60048036038101906100ea9190610d8d565b610297565b6040516100fc9190610de8565b60405180910390f35b61010d610332565b60405161011a9190610e1c565b60405180910390f35b61013d60048036038101906101389190610e37565b61035a565b60405161014a9190610de8565b60405180910390f35b61015b610438565b005b61017760048036038101906101729190610d8d565b61044c565b6040516101849190610de8565b60405180910390f35b6101a760048036038101906101a29190610e90565b610465565b005b6101c360048036038101906101be9190610d8d565b6106e6565b005b6101df60048036038101906101da9190610e37565b61090f565b6040516101ec9190610ef2565b60405180910390f35b6101fd61094f565b60405161020a9190610ef2565b60405180910390f35b61022d60048036038101906102289190610d2a565b610978565b005b61024960048036038101906102449190610f0d565b6109fe565b005b610253610b0c565b80600360006101000a81548173ffffffffffffffffffffffffffffffffffffffff021916908373ffffffffffffffffffffffffffffffffffffffff16021790555050565b60008173ffffffffffffffffffffffffffffffffffffffff166001600085815260200190815260200160002060000160009054906101000a900473ffffffffffffffffffffffffffffffffffffffff1673ffffffffffffffffffffffffffffffffffffffff1614801561032a57506001600084815260200190815260200160002060000160149054906101000a900460ff165b905092915050565b60007f0000000000000000000000000000000000000000000000000000000000000000905090565b600080600160008481526020019081526020016000206040518060400160405290816000820160009054906101000a900473ffffffffffffffffffffffffffffffffffffffff1673ffffffffffffffffffffffffffffffffffffffff1673ffffffffffffffffffffffffffffffffffffffff1681526020016000820160149054906101000a900460ff1615151515815250509050600073ffffffffffffffffffffffffffffffffffffffff16816000015173ffffffffffffffffffffffffffffffffffffffff1614158015610430575080602001515b915050919050565b610440610b0c565b61044a6000610b93565b565b6000806104598484610c57565b90508091505092915050565b61046d610b0c565b600073ffffffffffffffffffffffffffffffffffffffff166001600085815260200190815260200160002060000160009054906101000a900473ffffffffffffffffffffffffffffffffffffffff1673ffffffffffffffffffffffffffffffffffffffff1614806104ff57506001600084815260200190815260200160002060000160149054906101000a900460ff16155b15610536576040517fa3e4cb5700000000000000000000000000000000000000000000000000000000815260040160405180910390fd5b60006002600085815260200190815260200160002060008473ffffffffffffffffffffffffffffffffffffffff1673ffffffffffffffffffffffffffffffffffffffff16815260200190815260200160002060006101000a81548160ff0219169083151502179055508173ffffffffffffffffffffffffffffffffffffffff16837f2cd0e2d9f28ea02c722dd6cf4d460b6c53daa27d12f26415f19c752e0b177905836040516105e69190610de8565b60405180910390a3600083838360405160200161060593929190610f5c565b6040516020818303038152906040529050600360009054906101000a900473ffffffffffffffffffffffffffffffffffffffff1673ffffffffffffffffffffffffffffffffffffffff16633a358484856001600088815260200190815260200160002060000160009054906101000a900473ffffffffffffffffffffffffffffffffffffffff166000856040518563ffffffff1660e01b81526004016106ae9493929190611023565b600060405180830381600087803b1580156106c857600080fd5b505af11580156106dc573d6000803e3d6000fd5b5050505050505050565b6106ee610b0c565b600073ffffffffffffffffffffffffffffffffffffffff166001600084815260200190815260200160002060000160009054906101000a900473ffffffffffffffffffffffffffffffffffffffff1673ffffffffffffffffffffffffffffffffffffffff161461078a576040517f65e8a01900000000000000000000000000000000000000000000000000000000815260040160405180910390fd5b7f00000000000000000000000000000000000000000000000000000000000000008173ffffffffffffffffffffffffffffffffffffffff16803b806020016040519081016040528181526000908060200190933c805190602001201461081c576040517fe05300d100000000000000000000000000000000000000000000000000000000815260040160405180910390fd5b60405180604001604052808273ffffffffffffffffffffffffffffffffffffffff168152602001600015158152506001600084815260200190815260200160002060008201518160000160006101000a81548173ffffffffffffffffffffffffffffffffffffffff021916908373ffffffffffffffffffffffffffffffffffffffff16021790555060208201518160000160146101000a81548160ff0219169083151502179055509050508073ffffffffffffffffffffffffffffffffffffffff16827f7f74812a5c28f04eea9007878d0e63eb304afe494a442babbe1b2875fbc1cfd660405160405180910390a35050565b60006001600083815260200190815260200160002060000160009054906101000a900473ffffffffffffffffffffffffffffffffffffffff169050919050565b60008060009054906101000a900473ffffffffffffffffffffffffffffffffffffffff16905090565b610980610b0c565b600073ffffffffffffffffffffffffffffffffffffffff168173ffffffffffffffffffffffffffffffffffffffff16036109f25760006040517f1e4fbdf70000000000000000000000000000000000000000000000000000000081526004016109e99190610ef2565b60405180910390fd5b6109fb81610b93565b50565b610a06610b0c565b600073ffffffffffffffffffffffffffffffffffffffff166001600084815260200190815260200160002060000160009054906101000a900473ffffffffffffffffffffffffffffffffffffffff1673ffffffffffffffffffffffffffffffffffffffff1603610aa2576040517fa3e4cb5700000000000000000000000000000000000000000000000000000000815260040160405180910390fd5b806001600084815260200190815260200160002060000160146101000a81548160ff021916908315150217905550817f27ac1f8582df24c5a440380c6f532a5e3c80caf348beb3f6484f310f2c6bbd0b82604051610b009190610de8565b60405180910390a25050565b610b14610cbf565b73ffffffffffffffffffffffffffffffffffffffff16610b3261094f565b73ffffffffffffffffffffffffffffffffffffffff1614610b9157610b55610cbf565b6040517f118cdaa7000000000000000000000000000000000000000000000000000000008152600401610b889190610ef2565b60405180910390fd5b565b60008060009054906101000a900473ffffffffffffffffffffffffffffffffffffffff169050816000806101000a81548173ffffffffffffffffffffffffffffffffffffffff021916908373ffffffffffffffffffffffffffffffffffffffff1602179055508173ffffffffffffffffffffffffffffffffffffffff168173ffffffffffffffffffffffffffffffffffffffff167f8be0079c531659141344cd1fd0a4f28419497f9722a3daafe3b4186f6b6457e060405160405180910390a35050565b60006002600084815260200190815260200160002060008373ffffffffffffffffffffffffffffffffffffffff1673ffffffffffffffffffffffffffffffffffffffff16815260200190815260200160002060009054906101000a900460ff16905092915050565b600033905090565b600080fd5b600073ffffffffffffffffffffffffffffffffffffffff82169050919050565b6000610cf782610ccc565b9050919050565b610d0781610cec565b8114610d1257600080fd5b50565b600081359050610d2481610cfe565b92915050565b600060208284031215610d4057610d3f610cc7565b5b6000610d4e84828501610d15565b91505092915050565b6000819050919050565b610d6a81610d57565b8114610d7557600080fd5b50565b600081359050610d8781610d61565b92915050565b60008060408385031215610da457610da3610cc7565b5b6000610db285828601610d78565b9250506020610dc385828601610d15565b9150509250929050565b60008115159050919050565b610de281610dcd565b82525050565b6000602082019050610dfd6000830184610dd9565b92915050565b6000819050919050565b610e1681610e03565b82525050565b6000602082019050610e316000830184610e0d565b92915050565b600060208284031215610e4d57610e4c610cc7565b5b6000610e5b84828501610d78565b91505092915050565b610e6d81610dcd565b8114610e7857600080fd5b50565b600081359050610e8a81610e64565b92915050565b600080600060608486031215610ea957610ea8610cc7565b5b6000610eb786828701610d78565b9350506020610ec886828701610d15565b9250506040610ed986828701610e7b565b9150509250925092565b610eec81610cec565b82525050565b6000602082019050610f076000830184610ee3565b92915050565b60008060408385031215610f2457610f23610cc7565b5b6000610f3285828601610d78565b9250506020610f4385828601610e7b565b9150509250929050565b610f5681610d57565b82525050565b6000606082019050610f716000830186610f4d565b610f7e6020830185610ee3565b610f8b6040830184610dd9565b949350505050565b600081519050919050565b600082825260208201905092915050565b60005b83811015610fcd578082015181840152602081019050610fb2565b60008484015250505050565b6000601f19601f8301169050919050565b6000610ff582610f93565b610fff8185610f9e565b935061100f818560208601610faf565b61101881610fd9565b840191505092915050565b60006080820190506110386000830187610f4d565b6110456020830186610ee3565b6110526040830185610dd9565b81810360608301526110648184610fea565b90509594505050505056fea26469706673582212205507996e690b407691b098b10ff8c18086eec13fdcbf9e1e88b0e333bd3ad18264736f6c634300081c0033",
  "linkReferences": {},
  "deployedLinkReferences": {}
}