{
  "_format": "hh-sol-artifact-1",
  "contractName": "SubscriptionManager",
  "sourceName": "contracts/SubscriptionManager.sol",
  "abi": [
    {
      "inputs": [
        {
          "internalType": "address",
          "name": "_merchant",
          "type": "address"
        },
        {
          "internalType": "address",
          "name": "_planReg",
          "type": "address"
        },
        {
          "internalType": "address",
          "name": "_controller",
          "type": "address"
        }
      ],
      "stateMutability": "nonpayable",
      "type": "constructor"
    },
    {
      "inputs": [],
      "name": "MerchantNotActive",
      "type": "error"
    },
    {
      "inputs": [],
      "name": "NotSubscriber",
      "type": "error"
    },
    {
      "inputs": [
        {
          "internalType": "address",
          "name": "owner",
          "type": "address"
        }
      ],
      "name": "OwnableInvalidOwner",
      "type": "error"
    },
    {
      "inputs": [
        {
          "internalType": "address",
          "name": "account",
          "type": "address"
        }
      ],
      "name": "OwnableUnauthorizedAccount",
      "type": "error"
    },
    {
      "inputs": [],
      "name": "PlanNotActive",
      "type": "error"
    },
    {
      "inputs": [],
      "name": "SubscriptionCancelled",
      "type": "error"
    },
    {
      "inputs": [],
      "name": "SubscriptionMissing",
      "type": "error"
    },
    {
      "anonymous": false,
      "inputs": [
        {
          "indexed": true,
          "internalType": "address",
          "name": "previousOwner",
          "type": "address"
        },
        {
          "indexed": true,
          "internalType": "address",
          "name": "newOwner",
          "type": "address"
        }
      ],
      "name": "OwnershipTransferred",
      "type": "event"
    },
    {
      "anonymous": false,
      "inputs": [
        {
          "indexed": true,
          "internalType": "uint256",
          "name": "subId",
          "type": "uint256"
        },
        {
          "indexed": false,
          "internalType": "address",
          "name": "subscriber",
          "type": "address"
        },
        {
          "indexed": false,
          "internalType": "uint256",
          "name": "planId",
          "type": "uint256"
        }
      ],
      "name": "Subscribed",
      "type": "event"
    },
    {
      "anonymous": false,
      "inputs": [
        {
          "indexed": true,
          "internalType": "uint256",
          "name": "subscriptionId",
          "type": "uint256"
        },
        {
          "indexed": false,
          "internalType": "uint256",
          "name": "billingCycle",
          "type": "uint256"
        },
        {
          "indexed": false,
          "internalType": "uint256",
          "name": "_nextCharge",
          "type": "uint256"
        }
      ],
      "name": "SubscriptionPaid",
      "type": "event"
    },
    {
      "anonymous": false,
      "inputs": [
        {
          "indexed": true,
          "internalType": "uint256",
          "name": "subscriptionId",
          "type": "uint256"
        },
        {
          "indexed": false,
          "internalType": "enum Status",
          "name": "status",
          "type": "uint8"
        },
        {
          "indexed": false,
          "internalType": "address",
          "name": "by",
          "type": "address"
        }
      ],
      "name": "SubscriptionUpdated",
      "type": "event"
    },
    {
      "inputs": [
        {
          "internalType": "uint256",
          "name": "_subId",
          "type": "uint256"
        }
      ],
      "name": "cancel",
      "outputs": [],
      "stateMutability": "nonpayable",
      "type": "function"
    },
    {
      "inputs": [
        {
          "internalType": "uint256",
          "name": "_subId",
          "type": "uint256"
        },
        {
          "internalType": "uint256",
          "name": "_cycle",
          "type": "uint256"
        }
      ],
      "name": "confirmCharge",
      "outputs": [],
      "stateMutability": "nonpayable",
      "type": "function"
    },
    {
      "inputs": [
        {
          "internalType": "uint256",
          "name": "_subId",
          "type": "uint256"
        },
        {
          "internalType": "uint256",
          "name": "_cycle",
          "type": "uint256"
        }
      ],
      "name": "confirmPayment",
      "outputs": [
        {
          "internalType": "bool",
          "name": "_paid",
          "type": "bool"
        }
      ],
      "stateMutability": "view",
      "type": "function"
    },
    {
      "inputs": [
        {
          "internalType": "uint256",
          "name": "_subId",
          "type": "uint256"
        }
      ],
      "name": "getSubscription",
      "outputs": [
        {
          "components": [
            {
              "internalType": "uint256",
              "name": "planId",
              "type": "uint256"
            },
            {
              "internalType": "address",
              "name": "subscriber",
              "type": "address"
            },
            {
              "internalType": "uint256",
              "name": "startTime",
              "type": "uint256"
            },
            {
              "internalType": "uint256",
              "name": "nextChargeAt",
              "type": "uint256"
            },
            {
              "internalType": "uint256",
              "name": "billingCycle",
              "type": "uint256"
            },
            {
              "internalType": "enum Status",
              "name": "status",
              "type": "uint8"
            }
          ],
          "internalType": "struct Subscription",
          "name": "",
          "type": "tuple"
        }
      ],
      "stateMutability": "view",
      "type": "function"
    },
    {
      "inputs": [
        {
          "internalType": "uint256",
          "name": "_subId",
          "type": "uint256"
        }
      ],
      "name": "isChargeAllowed",
      "outputs": [
        {
          "internalType": "bool",
          "name": "",
          "type": "bool"
        }
      ],
      "stateMutability": "view",
      "type": "function"
    },
    {
      "inputs": [
        {
          "internalType": "uint256",
          "name": "_subId",
          "type": "uint256"
        }
      ],
      "name": "isChargeAllowedMut",
      "outputs": [
        {
          "internalType": "bool",
          "name": "",
          "type": "bool"
        }
      ],
      "stateMutability": "nonpayable",
      "type": "function"
    },
    {
      "inputs": [],
      "name": "owner",
      "outputs": [
        {
          "internalType": "address",
          "name": "",
          "type": "address"
        }
      ],
      "stateMutability": "view",
      "type": "function"
    },
    {
      "inputs": [],
      "name": "renounceOwnership",
      "outputs": [],
      "stateMutability": "nonpayable",
      "type": "function"
    },
    {
      "inputs": [
        {
          "internalType": "uint256",
          "name": "_pId",
          "type": "uint256"
        }
      ],
      "name": "subscribe",
      "outputs": [
        {
          "internalType": "uint256",
          "name": "_nextSubId",
          "type": "uint256"
        }
      ],
      "stateMutability": "nonpayable",
      "type": "function"
    },
    {
      "inputs": [
        {
          "internalType": "address",
          "name": "newOwner",
          "type": "address"
        }
      ],
      "name": "transferOwnership",
      "outputs": [],
      "stateMutability": "nonpayable",
      "type": "function"
    },
    {
      "inputs": [
        {
          "internalType": "address",
          "name": "_controller",
          "type": "address"
        }
      ],
      "name": "updateController",
      "outputs": [],
      "stateMutability": "nonpayable",
      "type": "function"
    },
    {
      "inputs": [
        {
          "internalType": "address",
          "name": "_merchant",
          "type": "address"
        }
      ],
      "name": "updateMerchantRegistry",
      "outputs": [],
      "stateMutability": "nonpayable",
      "type": "function"
    },
    {
      "inputs": [
        {
          "internalType": "address",
          "name": "_plan",
          "type": "address"
        }
      ],
      "name": "updatePlanRegistry",
      "outputs": [],
      "stateMutability": "nonpayable",
      "type": "function"
    }
  ],
  "bytecode": "0x608060405234801561001057600080fd5b5060405161233c38038061233c833981810160405281019061003291906102af565b33600073ffffffffffffffffffffffffffffffffffffffff168173ffffffffffffffffffffffffffffffffffffffff16036100a55760006040517f1e4fbdf700000000000000000000000000000000000000000000000000000000815260040161009c9190610311565b60405180910390fd5b6100b48161018860201b60201c565b5082600160006101000a81548173ffffffffffffffffffffffffffffffffffffffff021916908373ffffffffffffffffffffffffffffffffffffffff16021790555081600260006101000a81548173ffffffffffffffffffffffffffffffffffffffff021916908373ffffffffffffffffffffffffffffffffffffffff16021790555080600360006101000a81548173ffffffffffffffffffffffffffffffffffffffff021916908373ffffffffffffffffffffffffffffffffffffffff160217905550600160048190555050505061032c565b60008060009054906101000a900473ffffffffffffffffffffffffffffffffffffffff169050816000806101000a81548173ffffffffffffffffffffffffffffffffffffffff021916908373ffffffffffffffffffffffffffffffffffffffff1602179055508173ffffffffffffffffffffffffffffffffffffffff168173ffffffffffffffffffffffffffffffffffffffff167f8be0079c531659141344cd1fd0a4f28419497f9722a3daafe3b4186f6b6457e060405160405180910390a35050565b600080fd5b600073ffffffffffffffffffffffffffffffffffffffff82169050919050565b600061027c82610251565b9050919050565b61028c81610271565b811461029757600080fd5b50565b6000815190506102a981610283565b92915050565b6000806000606084860312156102c8576102c761024c565b5b60006102d68682870161029a565b93505060206102e78682870161029a565b92505060406102f88682870161029a565b9150509250925092565b61030b81610271565b82525050565b60006020820190506103266000830184610302565b92915050565b6120018061033b6000396000f3fe608060405234801561001057600080fd5b50600436106100cf5760003560e01c8063715018a61161008c5780638da5cb5b116100665780638da5cb5b1461020e578063d7666ac11461022c578063dc311dd314610248578063f2fde38b14610278576100cf565b8063715018a6146101b85780637710049c146101c257806385625ac3146101f2576100cf565b806306cb5b66146100d45780630f574ba7146100f057806320d6a21714610120578063383581491461015057806340e58ee5146101805780636ca888641461019c575b600080fd5b6100ee60048036038101906100e9919061179b565b610294565b005b61010a600480360381019061010591906117fe565b6102e0565b604051610117919061183a565b60405180910390f35b61013a600480360381019061013591906117fe565b61061b565b6040516101479190611870565b60405180910390f35b61016a6004803603810190610165919061188b565b610a9b565b6040516101779190611870565b60405180910390f35b61019a600480360381019061019591906117fe565b610c08565b005b6101b660048036038101906101b1919061179b565b610d19565b005b6101c0610d65565b005b6101dc60048036038101906101d791906117fe565b610d79565b6040516101e99190611870565b60405180910390f35b61020c6004803603810190610207919061179b565b611013565b005b61021661105f565b60405161022391906118da565b60405180910390f35b6102466004803603810190610241919061188b565b611088565b005b610262600480360381019061025d91906117fe565b611385565b60405161026f9190611a05565b60405180910390f35b610292600480360381019061028d919061179b565b6114f2565b005b61029c611578565b80600360006101000a81548173ffffffffffffffffffffffffffffffffffffffff021916908373ffffffffffffffffffffffffffffffffffffffff16021790555050565b600080600260009054906101000a900473ffffffffffffffffffffffffffffffffffffffff1673ffffffffffffffffffffffffffffffffffffffff166326cd5274846040518263ffffffff1660e01b815260040161033e919061183a565b60c060405180830381865afa15801561035b573d6000803e3d6000fd5b505050506040513d601f19601f8201168201806040525081019061037f9190611be2565b905080608001516103bc576040517ffeb7c32300000000000000000000000000000000000000000000000000000000815260040160405180910390fd5b6000600160009054906101000a900473ffffffffffffffffffffffffffffffffffffffff1673ffffffffffffffffffffffffffffffffffffffff1663b2734eaf83600001516040518263ffffffff1660e01b815260040161041d91906118da565b600060405180830381865afa15801561043a573d6000803e3d6000fd5b505050506040513d6000823e3d601f19601f820116820180604052508101906104639190611d78565b905080604001516104a0576040517f2f34e15600000000000000000000000000000000000000000000000000000000815260040160405180910390fd5b60045492506040518060c001604052808581526020013373ffffffffffffffffffffffffffffffffffffffff1681526020014281526020018360400151426104e89190611df0565b8152602001600181526020016001600381111561050857610507611913565b5b815250600560008581526020019081526020016000206000820151816000015560208201518160010160006101000a81548173ffffffffffffffffffffffffffffffffffffffff021916908373ffffffffffffffffffffffffffffffffffffffff16021790555060408201518160020155606082015181600301556080820151816004015560a08201518160050160006101000a81548160ff021916908360038111156105b8576105b7611913565b5b02179055509050506001600460008282546105d39190611df0565b92505081905550827fad24110dc4e3726555debcc81d3781cc9bc21a42b15c56fd9c90177a1a100717338660405161060c929190611e24565b60405180910390a25050919050565b60008060056000848152602001908152602001600020905060008160000154148061067b57506000600381111561065557610654611913565b5b8160050160009054906101000a900460ff16600381111561067957610678611913565b5b145b806106d65750600073ffffffffffffffffffffffffffffffffffffffff168160010160009054906101000a900473ffffffffffffffffffffffffffffffffffffffff1673ffffffffffffffffffffffffffffffffffffffff16145b1561070d576040517f2d9289e000000000000000000000000000000000000000000000000000000000815260040160405180910390fd5b6003808111156107205761071f611913565b5b8160050160009054906101000a900460ff16600381111561074457610743611913565b5b0361077b576040517f80c1e50a00000000000000000000000000000000000000000000000000000000815260040160405180910390fd5b6000600260009054906101000a900473ffffffffffffffffffffffffffffffffffffffff1673ffffffffffffffffffffffffffffffffffffffff166326cd527483600001546040518263ffffffff1660e01b81526004016107dc919061183a565b60c060405180830381865afa1580156107f9573d6000803e3d6000fd5b505050506040513d601f19601f8201168201806040525081019061081d9190611be2565b9050806080015161085a576040517ffeb7c32300000000000000000000000000000000000000000000000000000000815260040160405180910390fd5b6000600160009054906101000a900473ffffffffffffffffffffffffffffffffffffffff1673ffffffffffffffffffffffffffffffffffffffff1663b2734eaf83600001516040518263ffffffff1660e01b81526004016108bb91906118da565b600060405180830381865afa1580156108d8573d6000803e3d6000fd5b505050506040513d6000823e3d601f19601f820116820180604052508101906109019190611d78565b9050806040015161093e576040517f2f34e15600000000000000000000000000000000000000000000000000000000815260040160405180910390fd5b60008083606001511161095557816000015161095b565b82606001515b905080846003015461096d9190611df0565b4211156109a65760038460050160006101000a81548160ff0219169083600381111561099c5761099b611913565b5b02179055506109e0565b836003015442106109df5760028460050160006101000a81548160ff021916908360038111156109d9576109d8611913565b5b02179055505b5b857f972d8f8ae817151e972c612542839791c113920309941c3028b87da58d6bb9b58560050160009054906101000a900460ff1633604051610a23929190611e5c565b60405180910390a260008260200151856003015411610a43576000610a58565b82602001518560030154610a579190611e85565b5b9050804210158015610a795750818560030154610a759190611df0565b4211155b15610a8c57600195505050505050610a96565b6000955050505050505b919050565b600080600560008581526020019081526020016000206040518060c0016040529081600082015481526020016001820160009054906101000a900473ffffffffffffffffffffffffffffffffffffffff1673ffffffffffffffffffffffffffffffffffffffff1673ffffffffffffffffffffffffffffffffffffffff1681526020016002820154815260200160038201548152602001600482015481526020016005820160009054906101000a900460ff166003811115610b5f57610b5e611913565b5b6003811115610b7157610b70611913565b5b815250509050600081600001511480610bb2575060006003811115610b9957610b98611913565b5b8160a001516003811115610bb057610baf611913565b5b145b80610bc1575060008160800151145b15610bf8576040517f2d9289e000000000000000000000000000000000000000000000000000000000815260040160405180910390fd5b8281608001511191505092915050565b60006005600083815260200190815260200160002090508060010160009054906101000a900473ffffffffffffffffffffffffffffffffffffffff1673ffffffffffffffffffffffffffffffffffffffff163373ffffffffffffffffffffffffffffffffffffffff1603610ce35760038160050160006101000a81548160ff02191690836003811115610c9e57610c9d611913565b5b0217905550817f972d8f8ae817151e972c612542839791c113920309941c3028b87da58d6bb9b5600333604051610cd6929190611e5c565b60405180910390a2610d15565b6040517f4a396e0200000000000000000000000000000000000000000000000000000000815260040160405180910390fd5b5050565b610d21611578565b80600260006101000a81548173ffffffffffffffffffffffffffffffffffffffff021916908373ffffffffffffffffffffffffffffffffffffffff16021790555050565b610d6d611578565b610d7760006115ff565b565b600080600560008481526020019081526020016000206040518060c0016040529081600082015481526020016001820160009054906101000a900473ffffffffffffffffffffffffffffffffffffffff1673ffffffffffffffffffffffffffffffffffffffff1673ffffffffffffffffffffffffffffffffffffffff1681526020016002820154815260200160038201548152602001600482015481526020016005820160009054906101000a900460ff166003811115610e3d57610e3c611913565b5b6003811115610e4f57610e4e611913565b5b8152505090506000600260009054906101000a900473ffffffffffffffffffffffffffffffffffffffff1673ffffffffffffffffffffffffffffffffffffffff166326cd527483600001516040518263ffffffff1660e01b8152600401610eb6919061183a565b60c060405180830381865afa158015610ed3573d6000803e3d6000fd5b505050506040513d601f19601f82011682018060405250810190610ef79190611be2565b90506000600160009054906101000a900473ffffffffffffffffffffffffffffffffffffffff1673ffffffffffffffffffffffffffffffffffffffff1663b2734eaf83600001516040518263ffffffff1660e01b8152600401610f5a91906118da565b600060405180830381865afa158015610f77573d6000803e3d6000fd5b505050506040513d6000823e3d601f19601f82011682018060405250810190610fa09190611d78565b9050600080836060015111610fb9578160000151610fbf565b82606001515b905081602001518460600151610fd59190611e85565b4210158015610ff35750808460600151610fef9190611df0565b4211155b1561100557600194505050505061100e565b60009450505050505b919050565b61101b611578565b80600160006101000a81548173ffffffffffffffffffffffffffffffffffffffff021916908373ffffffffffffffffffffffffffffffffffffffff16021790555050565b60008060009054906101000a900473ffffffffffffffffffffffffffffffffffffffff16905090565b600360009054906101000a900473ffffffffffffffffffffffffffffffffffffffff1673ffffffffffffffffffffffffffffffffffffffff163373ffffffffffffffffffffffffffffffffffffffff1614611118576040517f08c379a000000000000000000000000000000000000000000000000000000000815260040161110f90611f16565b60405180910390fd5b6000600560008481526020019081526020016000209050600081600401541480611146575060008160000154145b1561117d576040517f80c1e50a00000000000000000000000000000000000000000000000000000000815260040160405180910390fd5b6003808111156111905761118f611913565b5b8160050160009054906101000a900460ff1660038111156111b4576111b3611913565b5b036111eb576040517f80c1e50a00000000000000000000000000000000000000000000000000000000815260040160405180910390fd5b81816004015414611231576040517f08c379a000000000000000000000000000000000000000000000000000000000815260040161122890611f82565b60405180910390fd5b6000600260009054906101000a900473ffffffffffffffffffffffffffffffffffffffff1673ffffffffffffffffffffffffffffffffffffffff166326cd527483600001546040518263ffffffff1660e01b8152600401611292919061183a565b60c060405180830381865afa1580156112af573d6000803e3d6000fd5b505050506040513d601f19601f820116820180604052508101906112d39190611be2565b905060018260040160008282546112ea9190611df0565b9250508190555080604001518260030160008282546113099190611df0565b9250508190555060018260050160006101000a81548160ff0219169083600381111561133857611337611913565b5b0217905550837f2572c0255fd289aaf50c1075c785c9e1ca32a8f64089d6f4731ee19a10ce50b883600401548460030154604051611377929190611fa2565b60405180910390a250505050565b61138d6116cb565b6000600560008481526020019081526020016000206040518060c0016040529081600082015481526020016001820160009054906101000a900473ffffffffffffffffffffffffffffffffffffffff1673ffffffffffffffffffffffffffffffffffffffff1673ffffffffffffffffffffffffffffffffffffffff1681526020016002820154815260200160038201548152602001600482015481526020016005820160009054906101000a900460ff1660038111156114505761144f611913565b5b600381111561146257611461611913565b5b8152505090506000816000015114806114a357506000600381111561148a57611489611913565b5b8160a0015160038111156114a1576114a0611913565b5b145b806114b2575060008160800151145b156114e9576040517f2d9289e000000000000000000000000000000000000000000000000000000000815260040160405180910390fd5b80915050919050565b6114fa611578565b600073ffffffffffffffffffffffffffffffffffffffff168173ffffffffffffffffffffffffffffffffffffffff160361156c5760006040517f1e4fbdf700000000000000000000000000000000000000000000000000000000815260040161156391906118da565b60405180910390fd5b611575816115ff565b50565b6115806116c3565b73ffffffffffffffffffffffffffffffffffffffff1661159e61105f565b73ffffffffffffffffffffffffffffffffffffffff16146115fd576115c16116c3565b6040517f118cdaa70000000000000000000000000000000000000000000000000000000081526004016115f491906118da565b60405180910390fd5b565b60008060009054906101000a900473ffffffffffffffffffffffffffffffffffffffff169050816000806101000a81548173ffffffffffffffffffffffffffffffffffffffff021916908373ffffffffffffffffffffffffffffffffffffffff1602179055508173ffffffffffffffffffffffffffffffffffffffff168173ffffffffffffffffffffffffffffffffffffffff167f8be0079c531659141344cd1fd0a4f28419497f9722a3daafe3b4186f6b6457e060405160405180910390a35050565b600033905090565b6040518060c0016040528060008152602001600073ffffffffffffffffffffffffffffffffffffffff1681526020016000815260200160008152602001600081526020016000600381111561172357611722611913565b5b81525090565b6000604051905090565b600080fd5b600080fd5b600073ffffffffffffffffffffffffffffffffffffffff82169050919050565b60006117688261173d565b9050919050565b6117788161175d565b811461178357600080fd5b50565b6000813590506117958161176f565b92915050565b6000602082840312156117b1576117b0611733565b5b60006117bf84828501611786565b91505092915050565b6000819050919050565b6117db816117c8565b81146117e657600080fd5b50565b6000813590506117f8816117d2565b92915050565b60006020828403121561181457611813611733565b5b6000611822848285016117e9565b91505092915050565b611834816117c8565b82525050565b600060208201905061184f600083018461182b565b92915050565b60008115159050919050565b61186a81611855565b82525050565b60006020820190506118856000830184611861565b92915050565b600080604083850312156118a2576118a1611733565b5b60006118b0858286016117e9565b92505060206118c1858286016117e9565b9150509250929050565b6118d48161175d565b82525050565b60006020820190506118ef60008301846118cb565b92915050565b6118fe816117c8565b82525050565b61190d8161175d565b82525050565b7f4e487b7100000000000000000000000000000000000000000000000000000000600052602160045260246000fd5b6004811061195357611952611913565b5b50565b600081905061196482611942565b919050565b600061197482611956565b9050919050565b61198481611969565b82525050565b60c0820160008201516119a060008501826118f5565b5060208201516119b36020850182611904565b5060408201516119c660408501826118f5565b5060608201516119d960608501826118f5565b5060808201516119ec60808501826118f5565b5060a08201516119ff60a085018261197b565b50505050565b600060c082019050611a1a600083018461198a565b92915050565b600080fd5b6000601f19601f8301169050919050565b7f4e487b7100000000000000000000000000000000000000000000000000000000600052604160045260246000fd5b611a6e82611a25565b810181811067ffffffffffffffff82111715611a8d57611a8c611a36565b5b80604052505050565b6000611aa0611729565b9050611aac8282611a65565b919050565b600080fd5b600081519050611ac58161176f565b92915050565b600081519050611ada816117d2565b92915050565b611ae981611855565b8114611af457600080fd5b50565b600081519050611b0681611ae0565b92915050565b6000819050919050565b611b1f81611b0c565b8114611b2a57600080fd5b50565b600081519050611b3c81611b16565b92915050565b600060c08284031215611b5857611b57611a20565b5b611b6260c0611a96565b90506000611b7284828501611ab6565b6000830152506020611b8684828501611acb565b6020830152506040611b9a84828501611acb565b6040830152506060611bae84828501611acb565b6060830152506080611bc284828501611af7565b60808301525060a0611bd684828501611b2d565b60a08301525092915050565b600060c08284031215611bf857611bf7611733565b5b6000611c0684828501611b42565b91505092915050565b600080fd5b600080fd5b600067ffffffffffffffff821115611c3457611c33611a36565b5b611c3d82611a25565b9050602081019050919050565b60005b83811015611c68578082015181840152602081019050611c4d565b60008484015250505050565b6000611c87611c8284611c19565b611a96565b905082815260208101848484011115611ca357611ca2611c14565b5b611cae848285611c4a565b509392505050565b600082601f830112611ccb57611cca611c0f565b5b8151611cdb848260208601611c74565b91505092915050565b600060808284031215611cfa57611cf9611a20565b5b611d046080611a96565b90506000611d1484828501611acb565b6000830152506020611d2884828501611acb565b6020830152506040611d3c84828501611af7565b604083015250606082015167ffffffffffffffff811115611d6057611d5f611ab1565b5b611d6c84828501611cb6565b60608301525092915050565b600060208284031215611d8e57611d8d611733565b5b600082015167ffffffffffffffff811115611dac57611dab611738565b5b611db884828501611ce4565b91505092915050565b7f4e487b7100000000000000000000000000000000000000000000000000000000600052601160045260246000fd5b6000611dfb826117c8565b9150611e06836117c8565b9250828201905080821115611e1e57611e1d611dc1565b5b92915050565b6000604082019050611e3960008301856118cb565b611e46602083018461182b565b9392505050565b611e5681611969565b82525050565b6000604082019050611e716000830185611e4d565b611e7e60208301846118cb565b9392505050565b6000611e90826117c8565b9150611e9b836117c8565b9250828203905081811115611eb357611eb2611dc1565b5b92915050565b600082825260208201905092915050565b7f4e4f545f434f4e54524f4c4c4552000000000000000000000000000000000000600082015250565b6000611f00600e83611eb9565b9150611f0b82611eca565b602082019050919050565b60006020820190508181036000830152611f2f81611ef3565b9050919050565b7f494e56414c49445f42494c4c494e475f4359434c450000000000000000000000600082015250565b6000611f6c601583611eb9565b9150611f7782611f36565b602082019050919050565b60006020820190508181036000830152611f9b81611f5f565b9050919050565b6000604082019050611fb7600083018561182b565b611fc4602083018461182b565b939250505056fea26469706673582212201e602fefec226c592a9b241f6c5a24d3b9e42c12a06fce798ae93060d6fa4b7864736f6c634300081c0033",
  "linkReferences": {},
  "deployedLinkReferences": {}
}