{
  "_format": "hh-sol-artifact-1",
  "contractName": "SubscriptionsController",
  "sourceName": "contracts/SubscriptionsController.sol",
  "abi": [
    {
      "inputs": [
        {
          "internalType": "address",
          "name": "_h",
          "type": "address"
        },
        {
          "internalType": "address",
          "name": "_fee",
          "type": "address"
        },
        {
          "internalType": "address",
          "name": "_chain",
          "type": "address"
        },
        {
          "internalType": "address",
          "name": "_sub",
          "type": "address"
        },
        {
          "internalType": "address",
          "name": "_merchant",
          "type": "address"
        }
      ],
      "stateMutability": "nonpayable",
      "type": "constructor"
    },
    {
      "inputs": [
        {
          "internalType": "address",
          "name": "owner",
          "type": "address"
        }
      ],
      "name": "OwnableInvalidOwner",
      "type": "error"
    },
    {
      "inputs": [
        {
          "internalType": "address",
          "name": "account",
          "type": "address"
        }
      ],
      "name": "OwnableUnauthorizedAccount",
      "type": "error"
    },
    {
      "inputs": [],
      "name": "ReentrancyGuardReentrantCall",
      "type": "error"
    },
    {
      "inputs": [],
      "name": "UnauthorizedCall",
      "type": "error"
    },
    {
      "inputs": [],
      "name": "UnexpectedCall",
      "type": "error"
    },
    {
      "anonymous": false,
      "inputs": [
        {
          "indexed": true,
          "internalType": "uint256",
          "name": "chainId",
          "type": "uint256"
        },
        {
          "indexed": true,
          "internalType": "uint256",
          "name": "subscriptionId",
          "type": "uint256"
        },
        {
          "indexed": false,
          "internalType": "uint256",
          "name": "billingCycle",
          "type": "uint256"
        }
      ],
      "name": "ChargeConfirmed",
      "type": "event"
    },
    {
      "anonymous": false,
      "inputs": [
        {
          "indexed": true,
          "internalType": "uint256",
          "name": "chainId",
          "type": "uint256"
        },
        {
          "indexed": true,
          "internalType": "address",
          "name": "adapter",
          "type": "address"
        },
        {
          "indexed": false,
          "internalType": "bytes",
          "name": "body",
          "type": "bytes"
        }
      ],
      "name": "ChargeRequestRelayed",
      "type": "event"
    },
    {
      "anonymous": false,
      "inputs": [
        {
          "indexed": true,
          "internalType": "uint256",
          "name": "chainId",
          "type": "uint256"
        },
        {
          "indexed": true,
          "internalType": "address",
          "name": "adapter",
          "type": "address"
        },
        {
          "indexed": false,
          "internalType": "bytes",
          "name": "body",
          "type": "bytes"
        }
      ],
      "name": "MerchantProfileUpdated",
      "type": "event"
    },
    {
      "anonymous": false,
      "inputs": [
        {
          "indexed": true,
          "internalType": "address",
          "name": "previousOwner",
          "type": "address"
        },
        {
          "indexed": true,
          "internalType": "address",
          "name": "newOwner",
          "type": "address"
        }
      ],
      "name": "OwnershipTransferred",
      "type": "event"
    },
    {
      "anonymous": false,
      "inputs": [
        {
          "indexed": true,
          "internalType": "uint256",
          "name": "chainId",
          "type": "uint256"
        },
        {
          "indexed": true,
          "internalType": "address",
          "name": "adapter",
          "type": "address"
        },
        {
          "indexed": false,
          "internalType": "bool",
          "name": "native",
          "type": "bool"
        }
      ],
      "name": "TokenUpdateRelayed",
      "type": "event"
    },
    {
      "inputs": [],
      "name": "chainRegistry",
      "outputs": [
        {
          "internalType": "contract IChainRegistry",
          "name": "",
          "type": "address"
        }
      ],
      "stateMutability": "view",
      "type": "function"
    },
    {
      "inputs": [],
      "name": "feeToken",
      "outputs": [
        {
          "internalType": "contract IERC20",
          "name": "",
          "type": "address"
        }
      ],
      "stateMutability": "view",
      "type": "function"
    },
    {
      "inputs": [],
      "name": "host",
      "outputs": [
        {
          "internalType": "address",
          "name": "",
          "type": "address"
        }
      ],
      "stateMutability": "view",
      "type": "function"
    },
    {
      "inputs": [],
      "name": "merchantRegistry",
      "outputs": [
        {
          "internalType": "contract IMerchantRegistry",
          "name": "",
          "type": "address"
        }
      ],
      "stateMutability": "view",
      "type": "function"
    },
    {
      "inputs": [
        {
          "internalType": "bytes32",
          "name": "",
          "type": "bytes32"
        }
      ],
      "name": "merchantSyncs",
      "outputs": [
        {
          "internalType": "bool",
          "name": "",
          "type": "bool"
        }
      ],
      "stateMutability": "view",
      "type": "function"
    },
    {
      "inputs": [
        {
          "components": [
            {
              "components": [
                {
                  "internalType": "bytes",
                  "name": "source",
                  "type": "bytes"
                },
                {
                  "internalType": "bytes",
                  "name": "dest",
                  "type": "bytes"
                },
                {
                  "internalType": "uint64",
                  "name": "nonce",
                  "type": "uint64"
                },
                {
                  "internalType": "bytes",
                  "name": "from",
                  "type": "bytes"
                },
                {
                  "internalType": "bytes",
                  "name": "to",
                  "type": "bytes"
                },
                {
                  "internalType": "uint64",
                  "name": "timeoutTimestamp",
                  "type": "uint64"
                },
                {
                  "internalType": "bytes",
                  "name": "body",
                  "type": "bytes"
                }
              ],
              "internalType": "struct PostRequest",
              "name": "request",
              "type": "tuple"
            },
            {
              "internalType": "address",
              "name": "relayer",
              "type": "address"
            }
          ],
          "internalType": "struct IncomingPostRequest",
          "name": "_incoming",
          "type": "tuple"
        }
      ],
      "name": "onAccept",
      "outputs": [],
      "stateMutability": "nonpayable",
      "type": "function"
    },
    {
      "inputs": [
        {
          "components": [
            {
              "components": [
                {
                  "components": [
                    {
                      "internalType": "bytes",
                      "name": "source",
                      "type": "bytes"
                    },
                    {
                      "internalType": "bytes",
                      "name": "dest",
                      "type": "bytes"
                    },
                    {
                      "internalType": "uint64",
                      "name": "nonce",
                      "type": "uint64"
                    },
                    {
                      "internalType": "address",
                      "name": "from",
                      "type": "address"
                    },
                    {
                      "internalType": "uint64",
                      "name": "timeoutTimestamp",
                      "type": "uint64"
                    },
                    {
                      "internalType": "bytes[]",
                      "name": "keys",
                      "type": "bytes[]"
                    },
                    {
                      "internalType": "uint64",
                      "name": "height",
                      "type": "uint64"
                    },
                    {
                      "internalType": "bytes",
                      "name": "context",
                      "type": "bytes"
                    }
                  ],
                  "internalType": "struct GetRequest",
                  "name": "request",
                  "type": "tuple"
                },
                {
                  "components": [
                    {
                      "internalType": "bytes",
                      "name": "key",
                      "type": "bytes"
                    },
                    {
                      "internalType": "bytes",
                      "name": "value",
                      "type": "bytes"
                    }
                  ],
                  "internalType": "struct StorageValue[]",
                  "name": "values",
                  "type": "tuple[]"
                }
              ],
              "internalType": "struct GetResponse",
              "name": "response",
              "type": "tuple"
            },
            {
              "internalType": "address",
              "name": "relayer",
              "type": "address"
            }
          ],
          "internalType": "struct IncomingGetResponse",
          "name": "",
          "type": "tuple"
        }
      ],
      "name": "onGetResponse",
      "outputs": [],
      "stateMutability": "nonpayable",
      "type": "function"
    },
    {
      "inputs": [
        {
          "components": [
            {
              "internalType": "bytes",
              "name": "source",
              "type": "bytes"
            },
            {
              "internalType": "bytes",
              "name": "dest",
              "type": "bytes"
            },
            {
              "internalType": "uint64",
              "name": "nonce",
              "type": "uint64"
            },
            {
              "internalType": "address",
              "name": "from",
              "type": "address"
            },
            {
              "internalType": "uint64",
              "name": "timeoutTimestamp",
              "type": "uint64"
            },
            {
              "internalType": "bytes[]",
              "name": "keys",
              "type": "bytes[]"
            },
            {
              "internalType": "uint64",
              "name": "height",
              "type": "uint64"
            },
            {
              "internalType": "bytes",
              "name": "context",
              "type": "bytes"
            }
          ],
          "internalType": "struct GetRequest",
          "name": "",
          "type": "tuple"
        }
      ],
      "name": "onGetTimeout",
      "outputs": [],
      "stateMutability": "nonpayable",
      "type": "function"
    },
    {
      "inputs": [
        {
          "components": [
            {
              "internalType": "bytes",
              "name": "source",
              "type": "bytes"
            },
            {
              "internalType": "bytes",
              "name": "dest",
              "type": "bytes"
            },
            {
              "internalType": "uint64",
              "name": "nonce",
              "type": "uint64"
            },
            {
              "internalType": "bytes",
              "name": "from",
              "type": "bytes"
            },
            {
              "internalType": "bytes",
              "name": "to",
              "type": "bytes"
            },
            {
              "internalType": "uint64",
              "name": "timeoutTimestamp",
              "type": "uint64"
            },
            {
              "internalType": "bytes",
              "name": "body",
              "type": "bytes"
            }
          ],
          "internalType": "struct PostRequest",
          "name": "request",
          "type": "tuple"
        }
      ],
      "name": "onPostRequestTimeout",
      "outputs": [],
      "stateMutability": "nonpayable",
      "type": "function"
    },
    {
      "inputs": [
        {
          "components": [
            {
              "components": [
                {
                  "components": [
                    {
                      "internalType": "bytes",
                      "name": "source",
                      "type": "bytes"
                    },
                    {
                      "internalType": "bytes",
                      "name": "dest",
                      "type": "bytes"
                    },
                    {
                      "internalType": "uint64",
                      "name": "nonce",
                      "type": "uint64"
                    },
                    {
                      "internalType": "bytes",
                      "name": "from",
                      "type": "bytes"
                    },
                    {
                      "internalType": "bytes",
                      "name": "to",
                      "type": "bytes"
                    },
                    {
                      "internalType": "uint64",
                      "name": "timeoutTimestamp",
                      "type": "uint64"
                    },
                    {
                      "internalType": "bytes",
                      "name": "body",
                      "type": "bytes"
                    }
                  ],
                  "internalType": "struct PostRequest",
                  "name": "request",
                  "type": "tuple"
                },
                {
                  "internalType": "bytes",
                  "name": "response",
                  "type": "bytes"
                },
                {
                  "internalType": "uint64",
                  "name": "timeoutTimestamp",
                  "type": "uint64"
                }
              ],
              "internalType": "struct PostResponse",
              "name": "response",
              "type": "tuple"
            },
            {
              "internalType": "address",
              "name": "relayer",
              "type": "address"
            }
          ],
          "internalType": "struct IncomingPostResponse",
          "name": "",
          "type": "tuple"
        }
      ],
      "name": "onPostResponse",
      "outputs": [],
      "stateMutability": "nonpayable",
      "type": "function"
    },
    {
      "inputs": [
        {
          "components": [
            {
              "components": [
                {
                  "internalType": "bytes",
                  "name": "source",
                  "type": "bytes"
                },
                {
                  "internalType": "bytes",
                  "name": "dest",
                  "type": "bytes"
                },
                {
                  "internalType": "uint64",
                  "name": "nonce",
                  "type": "uint64"
                },
                {
                  "internalType": "bytes",
                  "name": "from",
                  "type": "bytes"
                },
                {
                  "internalType": "bytes",
                  "name": "to",
                  "type": "bytes"
                },
                {
                  "internalType": "uint64",
                  "name": "timeoutTimestamp",
                  "type": "uint64"
                },
                {
                  "internalType": "bytes",
                  "name": "body",
                  "type": "bytes"
                }
              ],
              "internalType": "struct PostRequest",
              "name": "request",
              "type": "tuple"
            },
            {
              "internalType": "bytes",
              "name": "response",
              "type": "bytes"
            },
            {
              "internalType": "uint64",
              "name": "timeoutTimestamp",
              "type": "uint64"
            }
          ],
          "internalType": "struct PostResponse",
          "name": "",
          "type": "tuple"
        }
      ],
      "name": "onPostResponseTimeout",
      "outputs": [],
      "stateMutability": "nonpayable",
      "type": "function"
    },
    {
      "inputs": [],
      "name": "owner",
      "outputs": [
        {
          "internalType": "address",
          "name": "",
          "type": "address"
        }
      ],
      "stateMutability": "view",
      "type": "function"
    },
    {
      "inputs": [
        {
          "internalType": "bytes32",
          "name": "",
          "type": "bytes32"
        }
      ],
      "name": "processedCharge",
      "outputs": [
        {
          "internalType": "bool",
          "name": "",
          "type": "bool"
        }
      ],
      "stateMutability": "view",
      "type": "function"
    },
    {
      "inputs": [
        {
          "components": [
            {
              "internalType": "bytes",
              "name": "dest",
              "type": "bytes"
            },
            {
              "internalType": "bytes",
              "name": "to",
              "type": "bytes"
            },
            {
              "internalType": "bytes",
              "name": "body",
              "type": "bytes"
            },
            {
              "internalType": "uint64",
              "name": "timeout",
              "type": "uint64"
            },
            {
              "internalType": "uint256",
              "name": "fee",
              "type": "uint256"
            },
            {
              "internalType": "address",
              "name": "payer",
              "type": "address"
            }
          ],
          "internalType": "struct DispatchPost",
          "name": "request",
          "type": "tuple"
        }
      ],
      "name": "quote",
      "outputs": [
        {
          "internalType": "uint256",
          "name": "",
          "type": "uint256"
        }
      ],
      "stateMutability": "view",
      "type": "function"
    },
    {
      "inputs": [
        {
          "components": [
            {
              "internalType": "bytes",
              "name": "dest",
              "type": "bytes"
            },
            {
              "internalType": "uint64",
              "name": "height",
              "type": "uint64"
            },
            {
              "internalType": "bytes[]",
              "name": "keys",
              "type": "bytes[]"
            },
            {
              "internalType": "uint64",
              "name": "timeout",
              "type": "uint64"
            },
            {
              "internalType": "uint256",
              "name": "fee",
              "type": "uint256"
            },
            {
              "internalType": "bytes",
              "name": "context",
              "type": "bytes"
            }
          ],
          "internalType": "struct DispatchGet",
          "name": "request",
          "type": "tuple"
        }
      ],
      "name": "quote",
      "outputs": [
        {
          "internalType": "uint256",
          "name": "",
          "type": "uint256"
        }
      ],
      "stateMutability": "view",
      "type": "function"
    },
    {
      "inputs": [
        {
          "components": [
            {
              "components": [
                {
                  "internalType": "bytes",
                  "name": "source",
                  "type": "bytes"
                },
                {
                  "internalType": "bytes",
                  "name": "dest",
                  "type": "bytes"
                },
                {
                  "internalType": "uint64",
                  "name": "nonce",
                  "type": "uint64"
                },
                {
                  "internalType": "bytes",
                  "name": "from",
                  "type": "bytes"
                },
                {
                  "internalType": "bytes",
                  "name": "to",
                  "type": "bytes"
                },
                {
                  "internalType": "uint64",
                  "name": "timeoutTimestamp",
                  "type": "uint64"
                },
                {
                  "internalType": "bytes",
                  "name": "body",
                  "type": "bytes"
                }
              ],
              "internalType": "struct PostRequest",
              "name": "request",
              "type": "tuple"
            },
            {
              "internalType": "bytes",
              "name": "response",
              "type": "bytes"
            },
            {
              "internalType": "uint64",
              "name": "timeout",
              "type": "uint64"
            },
            {
              "internalType": "uint256",
              "name": "fee",
              "type": "uint256"
            },
            {
              "internalType": "address",
              "name": "payer",
              "type": "address"
            }
          ],
          "internalType": "struct DispatchPostResponse",
          "name": "response",
          "type": "tuple"
        }
      ],
      "name": "quote",
      "outputs": [
        {
          "internalType": "uint256",
          "name": "",
          "type": "uint256"
        }
      ],
      "stateMutability": "view",
      "type": "function"
    },
    {
      "inputs": [
        {
          "components": [
            {
              "internalType": "bytes",
              "name": "dest",
              "type": "bytes"
            },
            {
              "internalType": "bytes",
              "name": "to",
              "type": "bytes"
            },
            {
              "internalType": "bytes",
              "name": "body",
              "type": "bytes"
            },
            {
              "internalType": "uint64",
              "name": "timeout",
              "type": "uint64"
            },
            {
              "internalType": "uint256",
              "name": "fee",
              "type": "uint256"
            },
            {
              "internalType": "address",
              "name": "payer",
              "type": "address"
            }
          ],
          "internalType": "struct DispatchPost",
          "name": "request",
          "type": "tuple"
        }
      ],
      "name": "quoteNative",
      "outputs": [
        {
          "internalType": "uint256",
          "name": "",
          "type": "uint256"
        }
      ],
      "stateMutability": "view",
      "type": "function"
    },
    {
      "inputs": [
        {
          "components": [
            {
              "components": [
                {
                  "internalType": "bytes",
                  "name": "source",
                  "type": "bytes"
                },
                {
                  "internalType": "bytes",
                  "name": "dest",
                  "type": "bytes"
                },
                {
                  "internalType": "uint64",
                  "name": "nonce",
                  "type": "uint64"
                },
                {
                  "internalType": "bytes",
                  "name": "from",
                  "type": "bytes"
                },
                {
                  "internalType": "bytes",
                  "name": "to",
                  "type": "bytes"
                },
                {
                  "internalType": "uint64",
                  "name": "timeoutTimestamp",
                  "type": "uint64"
                },
                {
                  "internalType": "bytes",
                  "name": "body",
                  "type": "bytes"
                }
              ],
              "internalType": "struct PostRequest",
              "name": "request",
              "type": "tuple"
            },
            {
              "internalType": "bytes",
              "name": "response",
              "type": "bytes"
            },
            {
              "internalType": "uint64",
              "name": "timeout",
              "type": "uint64"
            },
            {
              "internalType": "uint256",
              "name": "fee",
              "type": "uint256"
            },
            {
              "internalType": "address",
              "name": "payer",
              "type": "address"
            }
          ],
          "internalType": "struct DispatchPostResponse",
          "name": "request",
          "type": "tuple"
        }
      ],
      "name": "quoteNative",
      "outputs": [
        {
          "internalType": "uint256",
          "name": "",
          "type": "uint256"
        }
      ],
      "stateMutability": "view",
      "type": "function"
    },
    {
      "inputs": [
        {
          "components": [
            {
              "internalType": "bytes",
              "name": "dest",
              "type": "bytes"
            },
            {
              "internalType": "uint64",
              "name": "height",
              "type": "uint64"
            },
            {
              "internalType": "bytes[]",
              "name": "keys",
              "type": "bytes[]"
            },
            {
              "internalType": "uint64",
              "name": "timeout",
              "type": "uint64"
            },
            {
              "internalType": "uint256",
              "name": "fee",
              "type": "uint256"
            },
            {
              "internalType": "bytes",
              "name": "context",
              "type": "bytes"
            }
          ],
          "internalType": "struct DispatchGet",
          "name": "request",
          "type": "tuple"
        }
      ],
      "name": "quoteNative",
      "outputs": [
        {
          "internalType": "uint256",
          "name": "",
          "type": "uint256"
        }
      ],
      "stateMutability": "view",
      "type": "function"
    },
    {
      "inputs": [
        {
          "internalType": "uint256",
          "name": "_chain",
          "type": "uint256"
        },
        {
          "internalType": "address",
          "name": "_adapter",
          "type": "address"
        },
        {
          "internalType": "bytes",
          "name": "_body",
          "type": "bytes"
        },
        {
          "internalType": "bool",
          "name": "_native",
          "type": "bool"
        }
      ],
      "name": "relayChargeRequest",
      "outputs": [],
      "stateMutability": "nonpayable",
      "type": "function"
    },
    {
      "inputs": [
        {
          "internalType": "uint256",
          "name": "_chain",
          "type": "uint256"
        },
        {
          "internalType": "address",
          "name": "_adapter",
          "type": "address"
        },
        {
          "internalType": "bytes",
          "name": "_body",
          "type": "bytes"
        }
      ],
      "name": "relayMerchantProfileUpdate",
      "outputs": [],
      "stateMutability": "nonpayable",
      "type": "function"
    },
    {
      "inputs": [
        {
          "internalType": "uint256",
          "name": "_chain",
          "type": "uint256"
        },
        {
          "internalType": "address",
          "name": "_adapter",
          "type": "address"
        },
        {
          "internalType": "bool",
          "name": "_native",
          "type": "bool"
        },
        {
          "internalType": "bytes",
          "name": "_body",
          "type": "bytes"
        }
      ],
      "name": "relayTokenUpdate",
      "outputs": [],
      "stateMutability": "nonpayable",
      "type": "function"
    },
    {
      "inputs": [],
      "name": "renounceOwnership",
      "outputs": [],
      "stateMutability": "nonpayable",
      "type": "function"
    },
    {
      "inputs": [],
      "name": "subManager",
      "outputs": [
        {
          "internalType": "contract ISubscriptionManager",
          "name": "",
          "type": "address"
        }
      ],
      "stateMutability": "view",
      "type": "function"
    },
    {
      "inputs": [
        {
          "internalType": "bytes32",
          "name": "",
          "type": "bytes32"
        }
      ],
      "name": "tokenSyncs",
      "outputs": [
        {
          "internalType": "bool",
          "name": "",
          "type": "bool"
        }
      ],
      "stateMutability": "view",
      "type": "function"
    },
    {
      "inputs": [
        {
          "internalType": "address",
          "name": "newOwner",
          "type": "address"
        }
      ],
      "name": "transferOwnership",
      "outputs": [],
      "stateMutability": "nonpayable",
      "type": "function"
    }
  ],
  "bytecode": "0x61012060405234801561001157600080fd5b50604051614cc8380380614cc883398181016040528101906100339190610396565b33600073ffffffffffffffffffffffffffffffffffffffff168173ffffffffffffffffffffffffffffffffffffffff16036100a65760006040517f1e4fbdf700000000000000000000000000000000000000000000000000000000815260040161009d9190610420565b60405180910390fd5b6100b58161026f60201b60201c565b50600180819055508473ffffffffffffffffffffffffffffffffffffffff1660808173ffffffffffffffffffffffffffffffffffffffff16815250508273ffffffffffffffffffffffffffffffffffffffff1660c08173ffffffffffffffffffffffffffffffffffffffff16815250508373ffffffffffffffffffffffffffffffffffffffff1660a08173ffffffffffffffffffffffffffffffffffffffff16815250508173ffffffffffffffffffffffffffffffffffffffff166101008173ffffffffffffffffffffffffffffffffffffffff16815250508073ffffffffffffffffffffffffffffffffffffffff1660e08173ffffffffffffffffffffffffffffffffffffffff168152505060a05173ffffffffffffffffffffffffffffffffffffffff1663095ea7b36080517fffffffffffffffffffffffffffffffffffffffffffffffffffffffffffffffff6040518363ffffffff1660e01b8152600401610221929190610454565b6020604051808303816000875af1158015610240573d6000803e3d6000fd5b505050506040513d601f19601f8201168201806040525081019061026491906104b5565b5050505050506104e2565b60008060009054906101000a900473ffffffffffffffffffffffffffffffffffffffff169050816000806101000a81548173ffffffffffffffffffffffffffffffffffffffff021916908373ffffffffffffffffffffffffffffffffffffffff1602179055508173ffffffffffffffffffffffffffffffffffffffff168173ffffffffffffffffffffffffffffffffffffffff167f8be0079c531659141344cd1fd0a4f28419497f9722a3daafe3b4186f6b6457e060405160405180910390a35050565b600080fd5b600073ffffffffffffffffffffffffffffffffffffffff82169050919050565b600061036382610338565b9050919050565b61037381610358565b811461037e57600080fd5b50565b6000815190506103908161036a565b92915050565b600080600080600060a086880312156103b2576103b1610333565b5b60006103c088828901610381565b95505060206103d188828901610381565b94505060406103e288828901610381565b93505060606103f388828901610381565b925050608061040488828901610381565b9150509295509295909350565b61041a81610358565b82525050565b60006020820190506104356000830184610411565b92915050565b6000819050919050565b61044e8161043b565b82525050565b60006040820190506104696000830185610411565b6104766020830184610445565b9392505050565b60008115159050919050565b6104928161047d565b811461049d57600080fd5b50565b6000815190506104af81610489565b92915050565b6000602082840312156104cb576104ca610333565b5b60006104d9848285016104a0565b91505092915050565b60805160a05160c05160e0516101005161476a61055e6000396000818161091001528181611654015261188b015260008181610d1f01526118cf01526000818161077b01528181610aaf015261217d01526000611630015260008181610bf201528181610e4e015281816117970152612157015261476a6000f3fe608060405234801561001057600080fd5b506004361061018e5760003560e01c80636eca5042116100de578063bca96c3911610097578063dd92a31611610071578063dd92a31614610491578063f2fde38b146104c1578063f437bc59146104dd578063fd5e394a146104fb5761018e565b8063bca96c3914610415578063d0fff36614610445578063d24740fb146104615761018e565b80636eca504214610367578063715018a6146103855780638da5cb5b1461038f578063a77c2989146103ad578063b2a01bf5146103dd578063bc0dd447146103f95761018e565b80634567907a1161014b578063647846a511610125578063647846a5146102df57806364e52788146102fd5780636632ba9314610319578063665fe179146103375761018e565b80634567907a1461024f5780634f3f7c051461027f578063632e235a146102af5761018e565b80630bc37bab146101935780630fee32ce146101af578063108bc1dd146101cb5780633a358484146101fb5780633d453da41461021757806344ab20f814610233575b600080fd5b6101ad60048036038101906101a89190612944565b610519565b005b6101c960048036038101906101c491906129b1565b6105b7565b005b6101e560048036038101906101e09190612b82565b6109e6565b6040516101f29190612bda565b60405180910390f35b61021560048036038101906102109190612c2d565b610aad565b005b610231600480360381019061022c9190612cb0565b610d1d565b005b61024d6004803603810190610248919061319c565b610f78565b005b6102696004803603810190610264919061321b565b611016565b6040516102769190613257565b60405180910390f35b61029960048036038101906102949190612b82565b611036565b6040516102a69190612bda565b60405180910390f35b6102c960048036038101906102c49190613336565b611332565b6040516102d69190612bda565b60405180910390f35b6102e761162e565b6040516102f491906133de565b60405180910390f35b610317600480360381019061031291906133f9565b611652565b005b610321611889565b60405161032e919061349d565b60405180910390f35b610351600480360381019061034c919061321b565b6118ad565b60405161035e9190613257565b60405180910390f35b61036f6118cd565b60405161037c91906134d9565b60405180910390f35b61038d6118f1565b005b610397611905565b6040516103a49190613503565b60405180910390f35b6103c760048036038101906103c2919061321b565b61192e565b6040516103d49190613257565b60405180910390f35b6103f760048036038101906103f2919061358a565b61194e565b005b610413600480360381019061040e91906135d3565b6119ec565b005b61042f600480360381019061042a9190613710565b611b1b565b60405161043c9190612bda565b60405180910390f35b61045f600480360381019061045a9190613759565b611c68565b005b61047b60048036038101906104769190613710565b611d06565b6040516104889190612bda565b60405180910390f35b6104ab60048036038101906104a69190613336565b612002565b6040516104b89190612bda565b60405180910390f35b6104db60048036038101906104d691906137a2565b6120cd565b005b6104e5612153565b6040516104f29190613503565b60405180910390f35b61050361217b565b60405161051091906137f0565b60405180910390f35b610521612153565b73ffffffffffffffffffffffffffffffffffffffff163373ffffffffffffffffffffffffffffffffffffffff1614610585576040517f7bf6a16f00000000000000000000000000000000000000000000000000000000815260040160405180910390fd5b6040517f02cbc79f00000000000000000000000000000000000000000000000000000000815260040160405180910390fd5b6105bf612153565b73ffffffffffffffffffffffffffffffffffffffff163373ffffffffffffffffffffffffffffffffffffffff1614610623576040517f7bf6a16f00000000000000000000000000000000000000000000000000000000815260040160405180910390fd5b61062b61219f565b60008082806000019061063e919061381a565b8060c0019061064d9190613842565b81019061065a91906138de565b9150915060018260ff16146106a4576040517f08c379a000000000000000000000000000000000000000000000000000000000815260040161069b90613997565b60405180910390fd5b6000806000838060200190518101906106bd91906139cc565b9250925092506106cc816121e5565b805190602001208680600001906106e3919061381a565b80600001906106f29190613842565b604051610700929190613a4f565b604051809103902014610748576040517f08c379a000000000000000000000000000000000000000000000000000000000815260040161073f90613ab4565b60405180910390fd5b600086806000019061075a919061381a565b80606001906107699190613842565b906107749190613b18565b60601c90507f000000000000000000000000000000000000000000000000000000000000000073ffffffffffffffffffffffffffffffffffffffff166320ef882c83836040518363ffffffff1660e01b81526004016107d4929190613b77565b602060405180830381865afa1580156107f1573d6000803e3d6000fd5b505050506040513d601f19601f820116820180604052508101906108159190613bb5565b610854576040517f08c379a000000000000000000000000000000000000000000000000000000000815260040161084b90613c2e565b60405180910390fd5b60008484604051602001610869929190613c4e565b6040516020818303038152906040528051906020012090506002600082815260200190815260200160002060009054906101000a900460ff16156108e2576040517f08c379a00000000000000000000000000000000000000000000000000000000081526004016108d990613cc3565b60405180910390fd5b60016002600083815260200190815260200160002060006101000a81548160ff0219169083151502179055507f000000000000000000000000000000000000000000000000000000000000000073ffffffffffffffffffffffffffffffffffffffff1663d7666ac186866040518363ffffffff1660e01b8152600401610969929190613c4e565b600060405180830381600087803b15801561098357600080fd5b505af1158015610997573d6000803e3d6000fd5b5050505084837f2db06b3c04b68c96e2a63ff2345138426c37fb1b427aa36341c02a09fde075f6866040516109cc9190612bda565b60405180910390a3505050505050506109e3612216565b50565b600080826040015151602011610a0157826040015151610a04565b60205b9050610a0e612153565b73ffffffffffffffffffffffffffffffffffffffff16634011ec0a84600001516040518263ffffffff1660e01b8152600401610a4a9190613d62565b602060405180830381865afa158015610a67573d6000803e3d6000fd5b505050506040513d601f19601f82011682018060405250810190610a8b9190613d84565b81610a969190613de0565b8360800151610aa59190613e22565b915050919050565b7f000000000000000000000000000000000000000000000000000000000000000073ffffffffffffffffffffffffffffffffffffffff163373ffffffffffffffffffffffffffffffffffffffff1614610b3b576040517f08c379a0000000000000000000000000000000000000000000000000000000008152600401610b3290613ea2565b60405180910390fd5b600082610b5057610b4b856121e5565b610b5a565b610b598561221f565b5b905060006040518060c0016040528083815260200186604051602001610b809190613f0a565b6040516020818303038152906040528152602001600085604051602001610ba8929190613f60565b6040516020818303038152906040528152602001600067ffffffffffffffff168152602001600081526020013073ffffffffffffffffffffffffffffffffffffffff1681525090507f000000000000000000000000000000000000000000000000000000000000000073ffffffffffffffffffffffffffffffffffffffff1663b8f3e8f5826040518263ffffffff1660e01b8152600401610c49919061409e565b6020604051808303816000875af1158015610c68573d6000803e3d6000fd5b505050506040513d601f19601f82011682018060405250810190610c8c91906140d5565b5060008380519060200120905060016003600083815260200190815260200160002060006101000a81548160ff0219169083151502179055508573ffffffffffffffffffffffffffffffffffffffff16877feda821a22a19ed6b7d6ab50c6faec9145fd0bc8efbc39a1ed7e2d16eef2f2ae287604051610d0c9190613257565b60405180910390a350505050505050565b7f000000000000000000000000000000000000000000000000000000000000000073ffffffffffffffffffffffffffffffffffffffff163373ffffffffffffffffffffffffffffffffffffffff1614610dab576040517f08c379a0000000000000000000000000000000000000000000000000000000008152600401610da290613ea2565b60405180910390fd5b6000610db6846121e5565b905060006040518060c0016040528083815260200185604051602001610ddc9190613f0a565b6040516020818303038152906040528152602001600285604051602001610e0492919061413d565b6040516020818303038152906040528152602001600067ffffffffffffffff168152602001600081526020013073ffffffffffffffffffffffffffffffffffffffff1681525090507f000000000000000000000000000000000000000000000000000000000000000073ffffffffffffffffffffffffffffffffffffffff1663b8f3e8f5826040518263ffffffff1660e01b8152600401610ea5919061409e565b6020604051808303816000875af1158015610ec4573d6000803e3d6000fd5b505050506040513d601f19601f82011682018060405250810190610ee891906140d5565b5060008380519060200120905060016004600083815260200190815260200160002060006101000a81548160ff0219169083151502179055508473ffffffffffffffffffffffffffffffffffffffff16867f98de668d692f033c3537455830f3362062426b0708d930ecde0695ccdd6551dd86604051610f689190613d62565b60405180910390a3505050505050565b610f80612153565b73ffffffffffffffffffffffffffffffffffffffff163373ffffffffffffffffffffffffffffffffffffffff1614610fe4576040517f7bf6a16f00000000000000000000000000000000000000000000000000000000815260040160405180910390fd5b6040517f02cbc79f00000000000000000000000000000000000000000000000000000000815260040160405180910390fd5b60026020528060005260406000206000915054906101000a900460ff1681565b600080611042836109e6565b9050600061104e612153565b905060008173ffffffffffffffffffffffffffffffffffffffff16631694505e6040518163ffffffff1660e01b8152600401602060405180830381865afa15801561109d573d6000803e3d6000fd5b505050506040513d601f19601f820116820180604052508101906110c19190614182565b90506000600267ffffffffffffffff8111156110e0576110df6125ee565b5b60405190808252806020026020018201604052801561110e5781602001602082028036833780820191505090505b5090508173ffffffffffffffffffffffffffffffffffffffff1663ad5c46486040518163ffffffff1660e01b8152600401602060405180830381865afa15801561115c573d6000803e3d6000fd5b505050506040513d601f19601f820116820180604052508101906111809190614182565b81600081518110611194576111936141af565b5b602002602001019073ffffffffffffffffffffffffffffffffffffffff16908173ffffffffffffffffffffffffffffffffffffffff16815250508273ffffffffffffffffffffffffffffffffffffffff1663647846a56040518163ffffffff1660e01b8152600401602060405180830381865afa158015611219573d6000803e3d6000fd5b505050506040513d601f19601f8201168201806040525081019061123d9190614182565b81600181518110611251576112506141af565b5b602002602001019073ffffffffffffffffffffffffffffffffffffffff16908173ffffffffffffffffffffffffffffffffffffffff16815250508173ffffffffffffffffffffffffffffffffffffffff16631f00ca7485836040518363ffffffff1660e01b81526004016112c692919061428d565b600060405180830381865afa1580156112e3573d6000803e3d6000fd5b505050506040513d6000823e3d601f19601f8201168201806040525081019061130c9190614380565b60008151811061131f5761131e6141af565b5b6020026020010151945050505050919050565b60008061133e83612002565b9050600061134a612153565b905060008173ffffffffffffffffffffffffffffffffffffffff16631694505e6040518163ffffffff1660e01b8152600401602060405180830381865afa158015611399573d6000803e3d6000fd5b505050506040513d601f19601f820116820180604052508101906113bd9190614182565b90506000600267ffffffffffffffff8111156113dc576113db6125ee565b5b60405190808252806020026020018201604052801561140a5781602001602082028036833780820191505090505b5090508173ffffffffffffffffffffffffffffffffffffffff1663ad5c46486040518163ffffffff1660e01b8152600401602060405180830381865afa158015611458573d6000803e3d6000fd5b505050506040513d601f19601f8201168201806040525081019061147c9190614182565b816000815181106114905761148f6141af565b5b602002602001019073ffffffffffffffffffffffffffffffffffffffff16908173ffffffffffffffffffffffffffffffffffffffff16815250508273ffffffffffffffffffffffffffffffffffffffff1663647846a56040518163ffffffff1660e01b8152600401602060405180830381865afa158015611515573d6000803e3d6000fd5b505050506040513d601f19601f820116820180604052508101906115399190614182565b8160018151811061154d5761154c6141af565b5b602002602001019073ffffffffffffffffffffffffffffffffffffffff16908173ffffffffffffffffffffffffffffffffffffffff16815250508173ffffffffffffffffffffffffffffffffffffffff16631f00ca7485836040518363ffffffff1660e01b81526004016115c292919061428d565b600060405180830381865afa1580156115df573d6000803e3d6000fd5b505050506040513d6000823e3d601f19601f820116820180604052508101906116089190614380565b60008151811061161b5761161a6141af565b5b6020026020010151945050505050919050565b7f000000000000000000000000000000000000000000000000000000000000000081565b7f000000000000000000000000000000000000000000000000000000000000000073ffffffffffffffffffffffffffffffffffffffff163373ffffffffffffffffffffffffffffffffffffffff16146116e0576040517f08c379a00000000000000000000000000000000000000000000000000000000081526004016116d790613ea2565b60405180910390fd5b6000816116f5576116f0856121e5565b6116ff565b6116fe8561221f565b5b905060006040518060c00160405280838152602001866040516020016117259190613f0a565b604051602081830303815290604052815260200160018660405160200161174d929190614404565b6040516020818303038152906040528152602001600067ffffffffffffffff168152602001600081526020013073ffffffffffffffffffffffffffffffffffffffff1681525090507f000000000000000000000000000000000000000000000000000000000000000073ffffffffffffffffffffffffffffffffffffffff1663b8f3e8f5826040518263ffffffff1660e01b81526004016117ee919061409e565b6020604051808303816000875af115801561180d573d6000803e3d6000fd5b505050506040513d601f19601f8201168201806040525081019061183191906140d5565b508473ffffffffffffffffffffffffffffffffffffffff16867fc3fd80598b4c318a763ec64cc9128dc82492afe845edf1f07b606099f3e61b7b866040516118799190613d62565b60405180910390a3505050505050565b7f000000000000000000000000000000000000000000000000000000000000000081565b60036020528060005260406000206000915054906101000a900460ff1681565b7f000000000000000000000000000000000000000000000000000000000000000081565b6118f9612250565b61190360006122d7565b565b60008060009054906101000a900473ffffffffffffffffffffffffffffffffffffffff16905090565b60046020528060005260406000206000915054906101000a900460ff1681565b611956612153565b73ffffffffffffffffffffffffffffffffffffffff163373ffffffffffffffffffffffffffffffffffffffff16146119ba576040517f7bf6a16f00000000000000000000000000000000000000000000000000000000815260040160405180910390fd5b6040517f02cbc79f00000000000000000000000000000000000000000000000000000000815260040160405180910390fd5b6119f4612153565b73ffffffffffffffffffffffffffffffffffffffff163373ffffffffffffffffffffffffffffffffffffffff1614611a58576040517f7bf6a16f00000000000000000000000000000000000000000000000000000000815260040160405180910390fd5b611a6061219f565b6000808260c00151806020019051810190611a7b91906144b9565b9150915060008260ff1614611b0d57600080600083806020019051810190611aa39190614553565b9250925092506000838383604051602001611ac0939291906145a6565b6040516020818303038152906040528051906020012090506003600082815260200190815260200160002060009054906101000a900460ff16611b0857505050505050611b10565b505050505b50505b611b18612216565b50565b600080611b26612153565b905060008173ffffffffffffffffffffffffffffffffffffffff16634011ec0a8373ffffffffffffffffffffffffffffffffffffffff1663f437bc596040518163ffffffff1660e01b8152600401600060405180830381865afa158015611b91573d6000803e3d6000fd5b505050506040513d6000823e3d601f19601f82011682018060405250810190611bba91906145dd565b6040518263ffffffff1660e01b8152600401611bd69190613d62565b602060405180830381865afa158015611bf3573d6000803e3d6000fd5b505050506040513d601f19601f82011682018060405250810190611c179190613d84565b90506000816020611c289190613de0565b905060008560a001515183611c3d9190613de0565b8660800151611c4c9190613e22565b9050808211611c5b5780611c5d565b815b945050505050919050565b611c70612153565b73ffffffffffffffffffffffffffffffffffffffff163373ffffffffffffffffffffffffffffffffffffffff1614611cd4576040517f7bf6a16f00000000000000000000000000000000000000000000000000000000815260040160405180910390fd5b6040517f02cbc79f00000000000000000000000000000000000000000000000000000000815260040160405180910390fd5b600080611d1283611b1b565b90506000611d1e612153565b905060008173ffffffffffffffffffffffffffffffffffffffff16631694505e6040518163ffffffff1660e01b8152600401602060405180830381865afa158015611d6d573d6000803e3d6000fd5b505050506040513d601f19601f82011682018060405250810190611d919190614182565b90506000600267ffffffffffffffff811115611db057611daf6125ee565b5b604051908082528060200260200182016040528015611dde5781602001602082028036833780820191505090505b5090508173ffffffffffffffffffffffffffffffffffffffff1663ad5c46486040518163ffffffff1660e01b8152600401602060405180830381865afa158015611e2c573d6000803e3d6000fd5b505050506040513d601f19601f82011682018060405250810190611e509190614182565b81600081518110611e6457611e636141af565b5b602002602001019073ffffffffffffffffffffffffffffffffffffffff16908173ffffffffffffffffffffffffffffffffffffffff16815250508273ffffffffffffffffffffffffffffffffffffffff1663647846a56040518163ffffffff1660e01b8152600401602060405180830381865afa158015611ee9573d6000803e3d6000fd5b505050506040513d601f19601f82011682018060405250810190611f0d9190614182565b81600181518110611f2157611f206141af565b5b602002602001019073ffffffffffffffffffffffffffffffffffffffff16908173ffffffffffffffffffffffffffffffffffffffff16815250508173ffffffffffffffffffffffffffffffffffffffff16631f00ca7485836040518363ffffffff1660e01b8152600401611f9692919061428d565b600060405180830381865afa158015611fb3573d6000803e3d6000fd5b505050506040513d6000823e3d601f19601f82011682018060405250810190611fdc9190614380565b600081518110611fef57611fee6141af565b5b6020026020010151945050505050919050565b60008082602001515160201161201d57826020015151612020565b60205b905061202a612153565b73ffffffffffffffffffffffffffffffffffffffff16634011ec0a8460000151600001516040518263ffffffff1660e01b815260040161206a9190613d62565b602060405180830381865afa158015612087573d6000803e3d6000fd5b505050506040513d601f19601f820116820180604052508101906120ab9190613d84565b816120b69190613de0565b83606001516120c59190613e22565b915050919050565b6120d5612250565b600073ffffffffffffffffffffffffffffffffffffffff168173ffffffffffffffffffffffffffffffffffffffff16036121475760006040517f1e4fbdf700000000000000000000000000000000000000000000000000000000815260040161213e9190613503565b60405180910390fd5b612150816122d7565b50565b60007f0000000000000000000000000000000000000000000000000000000000000000905090565b7f000000000000000000000000000000000000000000000000000000000000000081565b6002600154036121db576040517f3ee5aeb500000000000000000000000000000000000000000000000000000000815260040160405180910390fd5b6002600181905550565b60606121f08261239b565b6040516020016122009190614693565b6040516020818303038152906040529050919050565b60018081905550565b606061222a8261239b565b60405160200161223a91906146df565b6040516020818303038152906040529050919050565b612258612469565b73ffffffffffffffffffffffffffffffffffffffff16612276611905565b73ffffffffffffffffffffffffffffffffffffffff16146122d557612299612469565b6040517f118cdaa70000000000000000000000000000000000000000000000000000000081526004016122cc9190613503565b60405180910390fd5b565b60008060009054906101000a900473ffffffffffffffffffffffffffffffffffffffff169050816000806101000a81548173ffffffffffffffffffffffffffffffffffffffff021916908373ffffffffffffffffffffffffffffffffffffffff1602179055508173ffffffffffffffffffffffffffffffffffffffff168173ffffffffffffffffffffffffffffffffffffffff167f8be0079c531659141344cd1fd0a4f28419497f9722a3daafe3b4186f6b6457e060405160405180910390a35050565b6060600060016123aa84612471565b01905060008167ffffffffffffffff8111156123c9576123c86125ee565b5b6040519080825280601f01601f1916602001820160405280156123fb5781602001600182028036833780820191505090505b509050600082602083010190505b60011561245e578080600190039150507f3031323334353637383961626364656600000000000000000000000000000000600a86061a8153600a858161245257612451614705565b5b04945060008503612409575b819350505050919050565b600033905090565b600080600090507a184f03e93ff9f4daa797ed6e38ed64bf6a1f01000000000000000083106124cf577a184f03e93ff9f4daa797ed6e38ed64bf6a1f01000000000000000083816124c5576124c4614705565b5b0492506040810190505b6d04ee2d6d415b85acef8100000000831061250c576d04ee2d6d415b85acef8100000000838161250257612501614705565b5b0492506020810190505b662386f26fc10000831061253b57662386f26fc10000838161253157612530614705565b5b0492506010810190505b6305f5e1008310612564576305f5e100838161255a57612559614705565b5b0492506008810190505b612710831061258957612710838161257f5761257e614705565b5b0492506004810190505b606483106125ac57606483816125a2576125a1614705565b5b0492506002810190505b600a83106125bb576001810190505b80915050919050565b6000604051905090565b600080fd5b600080fd5b600080fd5b6000601f19601f8301169050919050565b7f4e487b7100000000000000000000000000000000000000000000000000000000600052604160045260246000fd5b612626826125dd565b810181811067ffffffffffffffff82111715612645576126446125ee565b5b80604052505050565b60006126586125c4565b9050612664828261261d565b919050565b600080fd5b600080fd5b600080fd5b600067ffffffffffffffff821115612693576126926125ee565b5b61269c826125dd565b9050602081019050919050565b82818337600083830152505050565b60006126cb6126c684612678565b61264e565b9050828152602081018484840111156126e7576126e6612673565b5b6126f28482856126a9565b509392505050565b600082601f83011261270f5761270e61266e565b5b813561271f8482602086016126b8565b91505092915050565b600067ffffffffffffffff82169050919050565b61274581612728565b811461275057600080fd5b50565b6000813590506127628161273c565b92915050565b600060e0828403121561277e5761277d6125d8565b5b61278860e061264e565b9050600082013567ffffffffffffffff8111156127a8576127a7612669565b5b6127b4848285016126fa565b600083015250602082013567ffffffffffffffff8111156127d8576127d7612669565b5b6127e4848285016126fa565b60208301525060406127f884828501612753565b604083015250606082013567ffffffffffffffff81111561281c5761281b612669565b5b612828848285016126fa565b606083015250608082013567ffffffffffffffff81111561284c5761284b612669565b5b612858848285016126fa565b60808301525060a061286c84828501612753565b60a08301525060c082013567ffffffffffffffff8111156128905761288f612669565b5b61289c848285016126fa565b60c08301525092915050565b6000606082840312156128be576128bd6125d8565b5b6128c8606061264e565b9050600082013567ffffffffffffffff8111156128e8576128e7612669565b5b6128f484828501612768565b600083015250602082013567ffffffffffffffff81111561291857612917612669565b5b612924848285016126fa565b602083015250604061293884828501612753565b60408301525092915050565b60006020828403121561295a576129596125ce565b5b600082013567ffffffffffffffff811115612978576129776125d3565b5b612984848285016128a8565b91505092915050565b600080fd5b6000604082840312156129a8576129a761298d565b5b81905092915050565b6000602082840312156129c7576129c66125ce565b5b600082013567ffffffffffffffff8111156129e5576129e46125d3565b5b6129f184828501612992565b91505092915050565b6000819050919050565b612a0d816129fa565b8114612a1857600080fd5b50565b600081359050612a2a81612a04565b92915050565b600073ffffffffffffffffffffffffffffffffffffffff82169050919050565b6000612a5b82612a30565b9050919050565b612a6b81612a50565b8114612a7657600080fd5b50565b600081359050612a8881612a62565b92915050565b600060c08284031215612aa457612aa36125d8565b5b612aae60c061264e565b9050600082013567ffffffffffffffff811115612ace57612acd612669565b5b612ada848285016126fa565b600083015250602082013567ffffffffffffffff811115612afe57612afd612669565b5b612b0a848285016126fa565b602083015250604082013567ffffffffffffffff811115612b2e57612b2d612669565b5b612b3a848285016126fa565b6040830152506060612b4e84828501612753565b6060830152506080612b6284828501612a1b565b60808301525060a0612b7684828501612a79565b60a08301525092915050565b600060208284031215612b9857612b976125ce565b5b600082013567ffffffffffffffff811115612bb657612bb56125d3565b5b612bc284828501612a8e565b91505092915050565b612bd4816129fa565b82525050565b6000602082019050612bef6000830184612bcb565b92915050565b60008115159050919050565b612c0a81612bf5565b8114612c1557600080fd5b50565b600081359050612c2781612c01565b92915050565b60008060008060808587031215612c4757612c466125ce565b5b6000612c5587828801612a1b565b9450506020612c6687828801612a79565b9350506040612c7787828801612c18565b925050606085013567ffffffffffffffff811115612c9857612c976125d3565b5b612ca4878288016126fa565b91505092959194509250565b600080600060608486031215612cc957612cc86125ce565b5b6000612cd786828701612a1b565b9350506020612ce886828701612a79565b925050604084013567ffffffffffffffff811115612d0957612d086125d3565b5b612d15868287016126fa565b9150509250925092565b600067ffffffffffffffff821115612d3a57612d396125ee565b5b602082029050602081019050919050565b600080fd5b6000612d63612d5e84612d1f565b61264e565b90508083825260208201905060208402830185811115612d8657612d85612d4b565b5b835b81811015612dcd57803567ffffffffffffffff811115612dab57612daa61266e565b5b808601612db889826126fa565b85526020850194505050602081019050612d88565b5050509392505050565b600082601f830112612dec57612deb61266e565b5b8135612dfc848260208601612d50565b91505092915050565b60006101008284031215612e1c57612e1b6125d8565b5b612e2761010061264e565b9050600082013567ffffffffffffffff811115612e4757612e46612669565b5b612e53848285016126fa565b600083015250602082013567ffffffffffffffff811115612e7757612e76612669565b5b612e83848285016126fa565b6020830152506040612e9784828501612753565b6040830152506060612eab84828501612a79565b6060830152506080612ebf84828501612753565b60808301525060a082013567ffffffffffffffff811115612ee357612ee2612669565b5b612eef84828501612dd7565b60a08301525060c0612f0384828501612753565b60c08301525060e082013567ffffffffffffffff811115612f2757612f26612669565b5b612f33848285016126fa565b60e08301525092915050565b600067ffffffffffffffff821115612f5a57612f596125ee565b5b602082029050602081019050919050565b600060408284031215612f8157612f806125d8565b5b612f8b604061264e565b9050600082013567ffffffffffffffff811115612fab57612faa612669565b5b612fb7848285016126fa565b600083015250602082013567ffffffffffffffff811115612fdb57612fda612669565b5b612fe7848285016126fa565b60208301525092915050565b600061300661300184612f3f565b61264e565b9050808382526020820190506020840283018581111561302957613028612d4b565b5b835b8181101561307057803567ffffffffffffffff81111561304e5761304d61266e565b5b80860161305b8982612f6b565b8552602085019450505060208101905061302b565b5050509392505050565b600082601f83011261308f5761308e61266e565b5b813561309f848260208601612ff3565b91505092915050565b6000604082840312156130be576130bd6125d8565b5b6130c8604061264e565b9050600082013567ffffffffffffffff8111156130e8576130e7612669565b5b6130f484828501612e05565b600083015250602082013567ffffffffffffffff81111561311857613117612669565b5b6131248482850161307a565b60208301525092915050565b600060408284031215613146576131456125d8565b5b613150604061264e565b9050600082013567ffffffffffffffff8111156131705761316f612669565b5b61317c848285016130a8565b600083015250602061319084828501612a79565b60208301525092915050565b6000602082840312156131b2576131b16125ce565b5b600082013567ffffffffffffffff8111156131d0576131cf6125d3565b5b6131dc84828501613130565b91505092915050565b6000819050919050565b6131f8816131e5565b811461320357600080fd5b50565b600081359050613215816131ef565b92915050565b600060208284031215613231576132306125ce565b5b600061323f84828501613206565b91505092915050565b61325181612bf5565b82525050565b600060208201905061326c6000830184613248565b92915050565b600060a08284031215613288576132876125d8565b5b61329260a061264e565b9050600082013567ffffffffffffffff8111156132b2576132b1612669565b5b6132be84828501612768565b600083015250602082013567ffffffffffffffff8111156132e2576132e1612669565b5b6132ee848285016126fa565b602083015250604061330284828501612753565b604083015250606061331684828501612a1b565b606083015250608061332a84828501612a79565b60808301525092915050565b60006020828403121561334c5761334b6125ce565b5b600082013567ffffffffffffffff81111561336a576133696125d3565b5b61337684828501613272565b91505092915050565b6000819050919050565b60006133a461339f61339a84612a30565b61337f565b612a30565b9050919050565b60006133b682613389565b9050919050565b60006133c8826133ab565b9050919050565b6133d8816133bd565b82525050565b60006020820190506133f360008301846133cf565b92915050565b60008060008060808587031215613413576134126125ce565b5b600061342187828801612a1b565b945050602061343287828801612a79565b935050604085013567ffffffffffffffff811115613453576134526125d3565b5b61345f878288016126fa565b925050606061347087828801612c18565b91505092959194509250565b6000613487826133ab565b9050919050565b6134978161347c565b82525050565b60006020820190506134b2600083018461348e565b92915050565b60006134c3826133ab565b9050919050565b6134d3816134b8565b82525050565b60006020820190506134ee60008301846134ca565b92915050565b6134fd81612a50565b82525050565b600060208201905061351860008301846134f4565b92915050565b600060408284031215613534576135336125d8565b5b61353e604061264e565b9050600082013567ffffffffffffffff81111561355e5761355d612669565b5b61356a848285016128a8565b600083015250602061357e84828501612a79565b60208301525092915050565b6000602082840312156135a05761359f6125ce565b5b600082013567ffffffffffffffff8111156135be576135bd6125d3565b5b6135ca8482850161351e565b91505092915050565b6000602082840312156135e9576135e86125ce565b5b600082013567ffffffffffffffff811115613607576136066125d3565b5b61361384828501612768565b91505092915050565b600060c08284031215613632576136316125d8565b5b61363c60c061264e565b9050600082013567ffffffffffffffff81111561365c5761365b612669565b5b613668848285016126fa565b600083015250602061367c84828501612753565b602083015250604082013567ffffffffffffffff8111156136a05761369f612669565b5b6136ac84828501612dd7565b60408301525060606136c084828501612753565b60608301525060806136d484828501612a1b565b60808301525060a082013567ffffffffffffffff8111156136f8576136f7612669565b5b613704848285016126fa565b60a08301525092915050565b600060208284031215613726576137256125ce565b5b600082013567ffffffffffffffff811115613744576137436125d3565b5b6137508482850161361c565b91505092915050565b60006020828403121561376f5761376e6125ce565b5b600082013567ffffffffffffffff81111561378d5761378c6125d3565b5b61379984828501612e05565b91505092915050565b6000602082840312156137b8576137b76125ce565b5b60006137c684828501612a79565b91505092915050565b60006137da826133ab565b9050919050565b6137ea816137cf565b82525050565b600060208201905061380560008301846137e1565b92915050565b600080fd5b600080fd5b600080fd5b60008235600160e0038336030381126138365761383561380b565b5b80830191505092915050565b6000808335600160200384360303811261385f5761385e61380b565b5b80840192508235915067ffffffffffffffff82111561388157613880613810565b5b60208301925060018202360383131561389d5761389c613815565b5b509250929050565b600060ff82169050919050565b6138bb816138a5565b81146138c657600080fd5b50565b6000813590506138d8816138b2565b92915050565b600080604083850312156138f5576138f46125ce565b5b6000613903858286016138c9565b925050602083013567ffffffffffffffff811115613924576139236125d3565b5b613930858286016126fa565b9150509250929050565b600082825260208201905092915050565b7f494e56414c49445f524551554553545f54595045000000000000000000000000600082015250565b600061398160148361393a565b915061398c8261394b565b602082019050919050565b600060208201905081810360008301526139b081613974565b9050919050565b6000815190506139c681612a04565b92915050565b6000806000606084860312156139e5576139e46125ce565b5b60006139f3868287016139b7565b9350506020613a04868287016139b7565b9250506040613a15868287016139b7565b9150509250925092565b600081905092915050565b6000613a368385613a1f565b9350613a438385846126a9565b82840190509392505050565b6000613a5c828486613a2a565b91508190509392505050565b7f494e56414c49445f434841494e5f494400000000000000000000000000000000600082015250565b6000613a9e60108361393a565b9150613aa982613a68565b602082019050919050565b60006020820190508181036000830152613acd81613a91565b9050919050565b600082905092915050565b60007fffffffffffffffffffffffffffffffffffffffff00000000000000000000000082169050919050565b600082821b905092915050565b6000613b248383613ad4565b82613b2f8135613adf565b92506014821015613b6f57613b6a7fffffffffffffffffffffffffffffffffffffffff00000000000000000000000083601403600802613b0b565b831692505b505092915050565b6000604082019050613b8c6000830185612bcb565b613b9960208301846134f4565b9392505050565b600081519050613baf81612c01565b92915050565b600060208284031215613bcb57613bca6125ce565b5b6000613bd984828501613ba0565b91505092915050565b7f554e524547495354455245445f41444150544552000000000000000000000000600082015250565b6000613c1860148361393a565b9150613c2382613be2565b602082019050919050565b60006020820190508181036000830152613c4781613c0b565b9050919050565b6000604082019050613c636000830185612bcb565b613c706020830184612bcb565b9392505050565b7f4348415247455f414c52454144595f50524f4345535345440000000000000000600082015250565b6000613cad60188361393a565b9150613cb882613c77565b602082019050919050565b60006020820190508181036000830152613cdc81613ca0565b9050919050565b600081519050919050565b600082825260208201905092915050565b60005b83811015613d1d578082015181840152602081019050613d02565b60008484015250505050565b6000613d3482613ce3565b613d3e8185613cee565b9350613d4e818560208601613cff565b613d57816125dd565b840191505092915050565b60006020820190508181036000830152613d7c8184613d29565b905092915050565b600060208284031215613d9a57613d996125ce565b5b6000613da8848285016139b7565b91505092915050565b7f4e487b7100000000000000000000000000000000000000000000000000000000600052601160045260246000fd5b6000613deb826129fa565b9150613df6836129fa565b9250828202613e04816129fa565b91508282048414831517613e1b57613e1a613db1565b5b5092915050565b6000613e2d826129fa565b9150613e38836129fa565b9250828201905080821115613e5057613e4f613db1565b5b92915050565b7f556e617574686f72697a65642063616c6c210000000000000000000000000000600082015250565b6000613e8c60128361393a565b9150613e9782613e56565b602082019050919050565b60006020820190508181036000830152613ebb81613e7f565b9050919050565b60008160601b9050919050565b6000613eda82613ec2565b9050919050565b6000613eec82613ecf565b9050919050565b613f04613eff82612a50565b613ee1565b82525050565b6000613f168284613ef3565b60148201915081905092915050565b6000819050919050565b6000613f4a613f45613f4084613f25565b61337f565b6138a5565b9050919050565b613f5a81613f2f565b82525050565b6000604082019050613f756000830185613f51565b8181036020830152613f878184613d29565b90509392505050565b600082825260208201905092915050565b6000613fac82613ce3565b613fb68185613f90565b9350613fc6818560208601613cff565b613fcf816125dd565b840191505092915050565b613fe381612728565b82525050565b613ff2816129fa565b82525050565b61400181612a50565b82525050565b600060c08301600083015184820360008601526140248282613fa1565b9150506020830151848203602086015261403e8282613fa1565b915050604083015184820360408601526140588282613fa1565b915050606083015161406d6060860182613fda565b5060808301516140806080860182613fe9565b5060a083015161409360a0860182613ff8565b508091505092915050565b600060208201905081810360008301526140b88184614007565b905092915050565b6000815190506140cf816131ef565b92915050565b6000602082840312156140eb576140ea6125ce565b5b60006140f9848285016140c0565b91505092915050565b6000819050919050565b600061412761412261411d84614102565b61337f565b6138a5565b9050919050565b6141378161410c565b82525050565b6000604082019050614152600083018561412e565b81810360208301526141648184613d29565b90509392505050565b60008151905061417c81612a62565b92915050565b600060208284031215614198576141976125ce565b5b60006141a68482850161416d565b91505092915050565b7f4e487b7100000000000000000000000000000000000000000000000000000000600052603260045260246000fd5b600081519050919050565b600082825260208201905092915050565b6000819050602082019050919050565b60006142168383613ff8565b60208301905092915050565b6000602082019050919050565b600061423a826141de565b61424481856141e9565b935061424f836141fa565b8060005b83811015614280578151614267888261420a565b975061427283614222565b925050600181019050614253565b5085935050505092915050565b60006040820190506142a26000830185612bcb565b81810360208301526142b4818461422f565b90509392505050565b600067ffffffffffffffff8211156142d8576142d76125ee565b5b602082029050602081019050919050565b60006142fc6142f7846142bd565b61264e565b9050808382526020820190506020840283018581111561431f5761431e612d4b565b5b835b81811015614348578061433488826139b7565b845260208401935050602081019050614321565b5050509392505050565b600082601f8301126143675761436661266e565b5b81516143778482602086016142e9565b91505092915050565b600060208284031215614396576143956125ce565b5b600082015167ffffffffffffffff8111156143b4576143b36125d3565b5b6143c084828501614352565b91505092915050565b6000819050919050565b60006143ee6143e96143e4846143c9565b61337f565b6138a5565b9050919050565b6143fe816143d3565b82525050565b600060408201905061441960008301856143f5565b818103602083015261442b8184613d29565b90509392505050565b600081519050614443816138b2565b92915050565b600061445c61445784612678565b61264e565b90508281526020810184848401111561447857614477612673565b5b614483848285613cff565b509392505050565b600082601f8301126144a05761449f61266e565b5b81516144b0848260208601614449565b91505092915050565b600080604083850312156144d0576144cf6125ce565b5b60006144de85828601614434565b925050602083015167ffffffffffffffff8111156144ff576144fe6125d3565b5b61450b8582860161448b565b9150509250929050565b600061452082612a30565b9050919050565b61453081614515565b811461453b57600080fd5b50565b60008151905061454d81614527565b92915050565b60008060006060848603121561456c5761456b6125ce565b5b600061457a868287016139b7565b935050602061458b8682870161453e565b925050604061459c86828701613ba0565b9150509250925092565b60006060820190506145bb6000830186612bcb565b6145c860208301856134f4565b6145d56040830184613248565b949350505050565b6000602082840312156145f3576145f26125ce565b5b600082015167ffffffffffffffff811115614611576146106125d3565b5b61461d8482850161448b565b91505092915050565b7f45564d2d00000000000000000000000000000000000000000000000000000000815250565b600081519050919050565b600081905092915050565b600061466d8261464c565b6146778185614657565b9350614687818560208601613cff565b80840191505092915050565b600061469e82614626565b6004820191506146ae8284614662565b915081905092915050565b7f504f4c4b41444f542d0000000000000000000000000000000000000000000000815250565b60006146ea826146b9565b6009820191506146fa8284614662565b915081905092915050565b7f4e487b7100000000000000000000000000000000000000000000000000000000600052601260045260246000fdfea2646970667358221220c18eeca5b68aa5f6e13f3147dbb4ccba85fe900dfa1bf08904f321f1a45cc10c64736f6c634300081c0033",
  "linkReferences": {},
  "deployedLinkReferences": {}
}